:020000041000EA
:100000004B2A110200000000A4030000EEC3A6E981
:100010007EEEE78880B500F087F90020002100F02F
:100020000DF8292000F00FF8202000F011F800F062
:1000300033F900F013F800F025F980BD4CF2B93C1B
:10004000C0F2000C604747F67D1CC0F2000C604710
:1000500047F6D12CC0F2000C6047000080B54FF08D
:10006000A040012100F075F900060BD1032000F03B
:1000700075F9000606D1012000F075F9000604BFED
:10008000002080BD00F074F94FF47A7000F075F92B
:10009000012080BD2DE9F04381B019B343F2B83897
:1000A0000F4606464FF0FF344FF00009C2F2000839
:1000B0003D46B7F5807F28BF4FF480754FF0A040D4
:1000C000314642462B46CDF8009000F05BF960B90E
:1000D00040462946224600F05AF904467F1B2E442A
:1000E000E6D103E04FF0FF3400E00124204601B0E8
:1000F000BDE8F08310B582B004464FF0000C4FF01D
:10010000A0404FF4805122462023CDF800C000F0DB
:1001100039F9000622D120461C214FF0FF3200F0B1
:1001200036F9E169814219D1E078112816D1A07819
:10013000022813D1E168B1F5002F0FD8606846F2AC
:100140007872C4F26A72904208D1A068FFF7A2FFE9
:100150002169401A18BF012002B010BD012002B071
:1001600010BD00002DE9F0410C4605460E184FF079
:100170000008B4F5803F07D3A8B228B94FF4803700
:100180000321102021E000BFB4F5004F08D328461A
:100190006FF3DF3020B94FF4004702210F2014E045
:1001A00029466FF31F31200BB1FA81F1B8EB143FF0
:1001B00018BF0120490901404FF008004FF4807733
:1001C00018BF0C2018BF4FF4805725FA00F082B2F8
:1001D0004FF0A04047F2305300F0DEF800060BD19C
:1001E0003D44B542A4EB070424BF0020BDE8F081E4
:1001F000B4F5803FC0D2C7E700F0BAF84FF47A7088
:1002000000F0BBF80120BDE8F08100002DE9F047C7
:1002100082B04FF000098AB343F2B83814460E4654
:100220000746C2F2000840F6B83A00BF2546B4F5CA
:10023000807F28BF4FF480754FF0A040394642467A
:100240002B46CDF8009000F09DF890B94FF0A040FB
:10025000314642462B46CDF80090CDF804A000F080
:10026000A0F848B92F44641B2E44DFD14FF0000999
:1002700004E04FF0010901E04FF00109484602B0E7
:10028000BDE8F08780B542F20400C1F200000068CA
:1002900000F08CF880BD0000B0B588B06846FFF76C
:1002A00029FF08B101243CE0DDE90501FFF75AFF11
:1002B00038B100F05DF84FF47A7000F05EF8012478
:1002C0002FE0DDE902020599FFF7A0FF38B100F049
:1002D0004FF84FF47A7000F050F8012421E00399B0
:1002E0000598FFF7D7FE0499884213D14FF0A0403C
:1002F0000021102247F23053002400F04DF805464B
:1003000000F036F828060CD04FF47A7000F035F87B
:10031000012406E000F02CF84FF47A7000F02DF87C
:100320000124204608B0B0BDEC20C6F205000168EB
:100330007F2221F002010160016821F004010160C7
:100340006FF0030143180431342943F8D82CF9D154
:10035000704748F6F57CC0F2000C604747F2613CFC
:10036000C0F2000C604747F21D3CC0F2000C604731
:1003700047F6717CC0F2000C604744F2717CC0F219
:10038000000C604748F69D2CC0F2000C604744F218
:10039000C17CC0F2000C604748F6A10CC0F2000C12
:1003A000604749F2D90CC0F2000C604744F62D0CAE
:1003B000C0F2000C604700000000000000000000D8
:1003C000000000000000000000000000000000002D
:1003D000000000000000000000000000000000001D
:1003E000000000000000000000000000000000000D
:1003F00000000000000000000000000000000000FD
:1020000000700220C13100102D3200103F3200104C
:102010005132001051320010513200100000000007
:10202000000000000000000000000000D1020000DD
:102030005132001000000000750300008103000011
:102040005132001051320010513200105132001044
:102050005132001051320010513200105132001034
:102060005132001051320010513200105132001024
:102070005132001051320010F97A0010FD7A001030
:10208000017B0010513200105132001011730120F9
:1020900051320010513200105132001051320010F4
:1020A00051320010513200105132001051320010E4
:1020B000513200104D730120513200105132001086
:1020C00051320010513200105132001051320010C4
:1020D000057B0010513200105132001051320010B7
:1020E00051320010513200105132001051320010A4
:1020F0005132001051320010513200105132001094
:102100005132001051320010513200105132001083
:102110005132001051320010513200105132001073
:0C212000513200105132001051320010FA
:10212C0010F8012B11F8013B012A28BF9A42F7D075
:10213C00D01A704781F0004102E000BF83F00043E9
:10214C0030B54FEA41044FEA430594EA050F08BF46
:10215C0090EA020F1FBF54EA000C55EA020C7FEA0A
:10216C00645C7FEA655C00F0E2804FEA5454D4EB87
:10217C005555B8BF6D420CDD2C4480EA020281EA51
:10218C00030382EA000083EA010180EA020281EA89
:10219C000303362D88BF30BD11F0004F4FEA0131DB
:1021AC004FF4801C4CEA113102D0404261EB4101EA
:1021BC0013F0004F4FEA03334CEA133302D0524270
:1021CC0063EB430394EA050F00F0A780A4F101042C
:1021DC00D5F1200E0DDB02FA0EFC22FA05F2801866
:1021EC0041F1000103FA0EF2801843FA05F359414C
:1021FC000EE0A5F120050EF1200E012A03FA0EFCCB
:10220C0028BF4CF0020C43FA05F3C01851EBE371F4
:10221C0001F0004507D54FF0000EDCF1000C7EEB11
:10222C0000006EEB0101B1F5801F1BD3B1F5001F4F
:10223C000CD349085FEA30004FEA3C0C04F101046E
:10224C004FEA445212F5800F80F09A80BCF1004F97
:10225C0008BF5FEA500C50F1000041EB045141EA19
:10226C00050130BD5FEA4C0C404141EB0101013CE2
:10227C0028BFB1F5801FE9D291F0000F04BF0146D1
:10228C000020B1FA81F308BF2033A3F10B03B3F1A3
:10229C0020020CDA0C3208DD02F1140CC2F10C0233
:1022AC0001FA0CF021FA02F10CE002F11402D8BF91
:1022BC00C2F1200C01FA02F120FA0CFCDCBF41EA5D
:1022CC000C019040E41AA2BF01EB0451294330BD2C
:1022DC006FEA04041F3C1CDA0C340EDC04F1140409
:1022EC00C4F1200220FA04F001FA02F340EA0300E0
:1022FC0021FA04F345EA030130BDC4F10C04C4F126
:10230C00200220FA02F001FA04F340EA0300294605
:10231C0030BD21FA04F0294630BD94F0000F83F44F
:10232C00801306BF81F480110134013D4EE77FEA32
:10233C00645C18BF7FEA655C29D094EA050F08BF7E
:10234C0090EA020F05D054EA000C04BF194610465F
:10235C0030BD91EA030F1EBF0021002030BD5FEAA3
:10236C00545C05D14000494128BF41F0004130BDCB
:10237C0014F580043CBF01F5801130BD01F000451F
:10238C0045F0FE4141F470014FF0000030BD7FEA92
:10239C00645C1ABF194610467FEA655C1CBF0B468D
:1023AC00024650EA013406BF52EA033591EA030FA4
:1023BC0041F4002130BD00BF90F0000F04BF00219C
:1023CC00704730B54FF4806404F132044FF00005CF
:1023DC004FF0000150E700BF90F0000F04BF002148
:1023EC00704730B54FF4806404F1320410F00045AE
:1023FC0048BF40424FF000013EE700BF42004FEAA9
:10240C00E2014FEA31014FEA02701FBF12F07F4325
:10241C0093F07F4F81F06051704732F07F4208BFDC
:10242C00704793F07F4F04BF41F40021704730B5E3
:10243C004FF4607401F0004521F000411CE700BF2F
:10244C0050EA010208BF704730B54FF000050AE0B2
:10245C0050EA010208BF704730B511F0004502D5B3
:10246C00404261EB41014FF4806404F132045FEAB5
:10247C00915C3FF4D8AE4FF003025FEADC0C18BF5E
:10248C0003325FEADC0C18BF033202EBDC02C2F150
:10249C00200300FA03FC20FA02F001FA03FE40EAE2
:1024AC000E0021FA02F11444BDE600BF70B54FF0E6
:1024BC00FF0C4CF4E06C1CEA11541DBF1CEA1355C4
:1024CC0094EA0C0F95EA0C0F00F0DEF82C4481EA2C
:1024DC00030621EA4C5123EA4C5350EA013518BF4C
:1024EC0052EA033541F4801143F4801338D0A0FB39
:1024FC0002CE4FF00005E1FB02E506F00042E0FBE6
:10250C0003E54FF00006E1FB03569CF0000F18BFEB
:10251C004EF0010EA4F1FF04B6F5007F64F5407493
:10252C0004D25FEA4E0E6D4146EB060642EAC62126
:10253C0041EA55514FEAC52040EA5E504FEACE2E93
:10254C00B4F1FD0C88BFBCF5E06F1ED8BEF1004F96
:10255C0008BF5FEA500E50F1000041EB045170BD12
:10256C0006F0004646EA010140EA020081EA030156
:10257C00B4EB5C04C2BFD4EB0C0541EA045170BD52
:10258C0041F480114FF0000E013C00F3AB8014F1CC
:10259C00360FDEBF002001F0004170BDC4F1000415
:1025AC00203C35DA0C341BDC04F11404C4F1200596
:1025BC0000FA05F320FA04F001FA05F240EA0200F1
:1025CC0001F0004221F0004110EBD37021FA04F627
:1025DC0042EB06015EEA430E08BF20EAD37070BDE1
:1025EC00C4F10C04C4F1200500FA04F320FA05F040
:1025FC0001FA04F240EA020001F0004110EBD37042
:10260C0041F100015EEA430E08BF20EAD37070BDB1
:10261C00C4F1200500FA05F24EEA020E20FA04F38A
:10262C0001FA05F243EA020321FA04F001F0004139
:10263C0021FA04F220EA020000EBD3705EEA430EAA
:10264C0008BF20EAD37070BD94F0000F0FD101F0D9
:10265C000046400041EB010111F4801F08BF013C12
:10266C00F7D041EA060195F0000F18BF704703F050
:10267C000046520043EB030313F4801F08BF013DD7
:10268C00F7D043EA0603704794EA0C0F0CEA135593
:10269C0018BF95EA0C0F0CD050EA410618BF52EA4D
:1026AC004306D1D181EA030101F000414FF0000053
:1026BC0070BD50EA410606BF1046194652EA430661
:1026CC0019D094EA0C0F02D150EA013613D195EAD5
:1026DC000C0F05D152EA03361CBF104619460AD11D
:1026EC0081EA030101F0004141F0FE4141F4700127
:1026FC004FF0000070BD41F0FE4141F4780170BD17
:10270C0070B54FF0FF0C4CF4E06C1CEA11541DBF7B
:10271C001CEA135594EA0C0F95EA0C0F00F0A7F87D
:10272C00A4EB050481EA030E52EA03354FEA0131AA
:10273C0000F088804FEA03334FF0805545EA1313BD
:10274C0043EA12634FEA022245EA111545EA106585
:10275C004FEA00260EF000419D4208BF964244F11C
:10276C00FD0404F5407402D25B084FEA3202B61A3B
:10277C0065EB03055B084FEA32024FF480104FF40F
:10278C00002CB6EB020E75EB030E22BFB61A754683
:10279C0040EA0C005B084FEA3202B6EB020E75EB16
:1027AC00030E22BFB61A754640EA5C005B084FEA7E
:1027BC003202B6EB020E75EB030E22BFB61A75464B
:1027CC0040EA9C005B084FEA3202B6EB020E75EB56
:1027DC00030E22BFB61A754640EADC0055EA060E17
:1027EC0018D04FEA051545EA16754FEA06164FEA5A
:1027FC00C30343EA52734FEAC2025FEA1C1CC0D106
:10280C0011F4801F0BD141EA00014FF000004FF092
:10281C00004CB6E711F4801F04BF01430020B4F153
:10282C00FD0C88BFBCF5E06F3FF6AFAEB5EB030C0B
:10283C0004BFB6EB020C5FEA500C50F1000041EB08
:10284C00045170BD0EF0004E4EEA113114EB5C04D5
:10285C00C2BFD4EB0C0541EA045170BD41F48011A8
:10286C004FF0000E013C90E645EA060E8DE60CEAB0
:10287C00135594EA0C0F08BF95EA0C0F3FF43BAFCD
:10288C0094EA0C0F0AD150EA01347FF434AF95EA84
:10289C000C0F7FF425AF104619462CE795EA0C0F68
:1028AC0006D152EA03353FF4FDAE1046194622E735
:1028BC0050EA410618BF52EA43067FF4C5AE50EA0F
:1028CC0041047FF40DAF52EA43057FF4EBAE12E7FF
:1028DC004FF0FF3C06E000BF4FF0010C02E000BFE0
:1028EC004FF0010C4DF804CD4FEA410C7FEA6C5CC3
:1028FC004FEA430C18BF7FEA6C5C1BD001B050EA66
:10290C00410C0CBF52EA430C91EA030F02BF90EA50
:10291C00020F0020704710F1000F91EA030F58BF0F
:10292C00994208BF90422CBFD8176FEAE37040F071
:10293C00010070474FEA410C7FEA6C5C02D150EA0F
:10294C00013C07D14FEA430C7FEA6C5CD6D152EACA
:10295C00033CD3D05DF8040B704700BF844610468F
:10296C0062468C461946634600E000BF01B5FFF78E
:10297C00B7FF002848BF10F1000F01BD4DF808ED5E
:10298C00FFF7F4FF0CBF012000205DF808FB00BF2F
:10299C004DF808EDFFF7EAFF34BF012000205DF889
:1029AC0008FB00BF4DF808EDFFF7E0FF94BF0120D6
:1029BC0000205DF808FB00BF4DF808EDFFF7CEFFD7
:1029CC0094BF012000205DF808FB00BF4DF808ED16
:1029DC00FFF7C4FF34BF012000205DF808FB00BFE7
:1029EC004FEA410212F5001215D211D56FF478732B
:1029FC00B3EB625212D94FEAC12343F0004343EACE
:102A0C00505311F0004F23FA02F018BF40427047A8
:102A1C004FF00000704750EA013005D111F0004032
:102A2C0008BF6FF0004070474FF00000704700BFC8
:102A3C0080F0004002E000BF81F0004142001FBF67
:102A4C005FEA410392EA030F7FEA226C7FEA236C70
:102A5C006AD04FEA1262D2EB1363C1BFD218414065
:102A6C0048404140B8BF5B42192B88BF704710F0FB
:102A7C00004F40F4000020F07F4018BF404211F09E
:102A8C00004F41F4000121F07F4118BF494292EA06
:102A9C00030F3FD0A2F1010241FA03FC10EB0C0032
:102AAC00C3F1200301FA03F100F0004302D54942BF
:102ABC0060EB4000B0F5000F13D3B0F1807F06D36C
:102ACC0040084FEA310102F10102FE2A51D2B1F164
:102ADC00004F40EBC25008BF20F0010040EA030059
:102AEC007047490040EB0000013A28BFB0F5000FD9
:102AFC00EDD2B0FA80FCACF1080CB2EB0C0200FA8F
:102B0C000CF0AABF00EBC25052421843BCBFD040DD
:102B1C001843704792F0000F81F4000106BF80F457
:102B2C0000000132013BB5E74FEA41037FEA226C1A
:102B3C0018BF7FEA236C21D092EA030F04D092F0E5
:102B4C00000F08BF0846704790EA010F1CBF002019
:102B5C00704712F07F4F04D1400028BF40F0004076
:102B6C00704712F100723CBF00F50000704700F096
:102B7C00004343F0FE4040F4000070477FEA2262BD
:102B8C0016BF08467FEA23630146420206BF5FEA8E
:102B9C00412390EA010F40F4800070474FF000038E
:102BAC0004E000BF10F0004348BF40425FEA000C55
:102BBC0008BF704743F0964301464FF000001CE0FD
:102BCC0050EA010208BF70474FF000030AE000BF53
:102BDC0050EA010208BF704711F0004302D5404291
:102BEC0061EB41015FEA010C02BF84460146002003
:102BFC0043F0B64308BFA3F18053A3F50003BCFA1E
:102C0C008CF2083AA3EBC25310DB01FA02FC6344CA
:102C1C0000FA02FCC2F12002BCF1004F20FA02F2D1
:102C2C0043EB020008BF20F00100704702F12002C4
:102C3C0001FA02FCC2F1200250EA4C0021FA02F225
:102C4C0043EB020008BF20EADC7070474FF0FF0C2A
:102C5C001CEAD0521EBF1CEAD15392EA0C0F93EA25
:102C6C000C0F6FD01A4480EA010C400218BF5FEAC7
:102C7C0041211ED04FF0006343EA501043EA51113A
:102C8C00A0FB01310CF00040B1F5000F3EBF490034
:102C9C0041EAD3715B0040EA010062F17F02FD2A38
:102CAC001DD8B3F1004F40EBC25008BF20F001001B
:102CBC00704790F0000F0CF0004C08BF49024CEA32
:102CCC00502040EA51207F3AC2BFD2F1FF0340EAC4
:102CDC00C250704740F400004FF00003013A5DDC35
:102CEC0012F1190FDCBF00F000407047C2F1000276
:102CFC00410021FA02F1C2F1200200FA02FC5FEA63
:102D0C00310040F1000053EA4C0308BF20EADC70AC
:102D1C00704792F0000F00F0004C02BF400010F41E
:102D2C00000F013AF9D040EA0C0093F0000F01F0CB
:102D3C00004C02BF490011F4000F013BF9D041EAED
:102D4C000C018FE70CEAD15392EA0C0F18BF93EAEF
:102D5C000C0F0AD030F0004C18BF31F0004CD8D119
:102D6C0080EA010000F00040704790F0000F17BFA0
:102D7C0090F0004F084691F0000F91F0004F14D0E6
:102D8C0092EA0C0F01D142020FD193EA0C0F03D13E
:102D9C004B0218BF084608D180EA010000F0004041
:102DAC0040F0FE4040F40000704740F0FE4040F41C
:102DBC00400070474FF0FF0C1CEAD0521EBF1CEABB
:102DCC00D15392EA0C0F93EA0C0F69D0A2EB0302D9
:102DDC0080EA010C49024FEA402037D04FF0805373
:102DEC0043EA111143EA10130CF000408B4238BF38
:102DFC005B0042F17D024FF4000C8B4224BF5B1A46
:102E0C0040EA0C00B3EB510F24BFA3EB510340EA93
:102E1C005C00B3EB910F24BFA3EB910340EA9C0041
:102E2C00B3EBD10F24BFA3EBD10340EADC001B01B1
:102E3C0018BF5FEA1C1CE0D1FD2A3FF650AF8B4255
:102E4C0040EBC25008BF20F0010070470CF0004C62
:102E5C004CEA50207F32C2BFD2F1FF0340EAC2508D
:102E6C00704740F400004FF00003013A37E792F04E
:102E7C00000F00F0004C02BF400010F4000F013AAC
:102E8C00F9D040EA0C0093F0000F01F0004C02BFA7
:102E9C00490011F4000F013BF9D041EA0C0195E710
:102EAC000CEAD15392EA0C0F08D142027FF47DAFA9
:102EBC0093EA0C0F7FF470AF084676E793EA0C0F99
:102ECC0004D14B023FF44CAF08466EE730F0004C97
:102EDC0018BF31F0004CCAD130F000427FF45CAF27
:102EEC0031F000437FF43CAF5FE700BF4FF0FF3C95
:102EFC0006E000BF4FF0010C02E000BF4FF0010CE8
:102F0C004DF804CD4FEA40024FEA41037FEA226CB0
:102F1C0018BF7FEA236C11D001B052EA530C18BFD2
:102F2C0090EA010F58BFB2EB030088BFC81738BF37
:102F3C006FEAE17018BF40F0010070477FEA226C25
:102F4C0002D15FEA402C05D17FEA236CE4D15FEA21
:102F5C00412CE1D05DF8040B704700BF8446084655
:102F6C006146FFE70FB5FFF7C9FF002848BF10F116
:102F7C00000F0FBD4DF808EDFFF7F4FF0CBF01205B
:102F8C0000205DF808FB00BF4DF808EDFFF7EAFFE5
:102F9C0034BF012000205DF808FB00BF4DF808EDA0
:102FAC00FFF7E0FF94BF012000205DF808FB00BF95
:102FBC004DF808EDFFF7D2FF94BF012000205DF81B
:102FCC0008FB00BF4DF808EDFFF7C8FF34BF012028
:102FDC0000205DF808FB00BF4FEA4002B2F1FE4F43
:102FEC000FD34FF09E03B3EB12620DD94FEA0023BF
:102FFC0043F0004310F0004F23FA02F018BF404298
:10300C0070474FF00000704712F1610F01D142027E
:10301C0005D110F0004008BF6FF0004070474FF032
:10302C000000704742000ED2B2F1FE4F0BD34FF0AE
:10303C009E03B3EB126209D44FEA002343F0004322
:10304C0023FA02F070474FF00000704712F1610F45
:10305C0001D1420202D14FF0FF3070474FF0000017
:10306C00704700BF7BB972B90029BEBF00204FF07A
:10307C00004106E008BF00281CBF6FF000414FF074
:10308C00FF3000F057B8ADF1080C6DE904CE002903
:10309C0009DB002B1ADB0CF087FEDDF804E0DDE920
:1030AC00022304B07047404261EB4101002B1BDB53
:1030BC000CF07AFEDDF804E0DDE9022304B04042B6
:1030CC0061EB4101524263EB43037047524263EBA5
:1030DC0043030CF069FEDDF804E0DDE9022304B0E3
:1030EC00404261EB41017047524263EB43030CF0E9
:1030FC005BFEDDF804E0DDE9022304B0524263EB31
:10310C004303704753B94AB9002908BF00281CBFB4
:10311C004FF0FF314FF0FF3000F00CB8ADF1080C60
:10312C006DE904CE0CF040FEDDF804E0DDE902238D
:10313C0004B07047704700BF4A0011D212F500125C
:10314C0011D20DD56FF47873B3EB62520ED44FEAF3
:10315C00C12343F0004343EA505323FA02F0704773
:10316C004FF00000704750EA013002D14FF0FF30B1
:10317C0070474FF0000070470A4B0B4A03F59670EE
:10318C0053F8041B834242F8041FF9D1074B084A39
:10319C009A605A6942F010025A615A6942F480727C
:1031AC005A61704700200010FC6F012000ED00E018
:1031BC0000700120244880F30888244880F30A8892
:1031CC0023488047002103E0224B5B5843500431D5
:1031DC002148224B42189A42F6D3002103E0204B9F
:1031EC005B58435004311F481F4B42189A42F6D388
:1031FC00002103E01D4B5B58435004311C481D4B10
:10320C0042189A42F6D31C4A02E00023136004329F
:10321C001A4B9A42F9D30BF0CBFD00F0A5F9FEE75F
:10322C005FEA0E00EFF30881EFF30982144B984725
:10323C00FEE75FEA0E00EFF30881EFF30982114B12
:10324C009847FEE7FEE700000070022000600220B5
:10325C008531001088FE0110003000201875002008
:10326C00A043021000720120707A0120104C021051
:10327C0000F0012000F4012000F401200CFE0120DC
:10328C0051330010553300102DE9F84F431C88467C
:10329C0034D00138012828D8002A2FDD4C1E4FF0DD
:1032AC00000BDFF860A0184DDFF86090A6180FE057
:1032BC00B5F800C002680CF1010302F80C1082880A
:1032CC009BB29A422B8098BFA5F800B0B44210D0A4
:1032DC00DAF80000274614F8011F0028E8D1D9F8C5
:1032EC0000000CF0DFFF0028F0D04FF0FF30BDE8FD
:1032FC00F88FB81CA0EB0800BDE8F88F0020BDE8E3
:10330C00F88F00BF00F4012008F4012004F4012020
:10331C00012070474FF0FF30704700BF002070470E
:10332C004FF4005300204B60704700BF00207047E3
:10333C00012070474FF0FF30704700BFFEE700BF21
:10334C00FEE700BFFEE700BF10F0040F08BF0A46FF
:10335C009269184B82B00192DA6ADA6ADA6A500022
:10336C0026D59A6AD2B242B19A6A9A6A910748BF34
:10337C009B6A104B9A6A9A6A9B6A0E4B9A6A12F471
:10338C007F4F09D09A6A9A6A920548BF9B6A094B8B
:10339C009A6A9A6A9A6A9B6A064B9A6AB2F5803F55
:1033AC0006D39A6A9A6A9A6A9A6A9A6A9A6A9B6A1B
:1033BC00FEE700BF00ED00E003490448044B054A5A
:1033CC0008601A60704700BFE80000204933001005
:1033DC00EC0000204D33001030B5474C85B0226016
:1033EC000446464D464B2960012202200DF107018F
:1033FC001C700CF0FFFE9DF80750C5F34115022D13
:10340C0014D0032D1FD0042C07D8032C70D0042CFF
:10341C000CBF022000200CF001FF09230B2203211A
:10342C00012005B0BDE830400CF094BE01224FF4F1
:10343C00504134480CF046FF2A464FF4483131488D
:10344C000CF040FFDFE702A906223A200CF0D2FE76
:10345C0001229DF808101F2901F01F0194BF294873
:10346C00294802FA01F10CF02DFF01219DF80930D9
:10347C0002221F2B03F01F0301FA03F194BF214812
:10348C0021480CF01FFF01229DF80A101F2901F0A2
:10349C001F0194BF1B481C4802FA01F10CF012FFEB
:1034AC0001229DF80B101F2901F01F0194BF154834
:1034BC00154802FA01F10CF005FF01219DF80C30C2
:1034CC0002221F2B03F01F0394BF0E480E48994095
:1034DC000CF0F8FE01219DF80D3002221F2B03F099
:1034EC001F0394BF0748084899400CF0EBFE8AE78D
:1034FC0001200CF093FE90E70CF4012010F4012055
:10350C000AF4012000B0046080B004600020704711
:10351C0000207047704700BF704700BF704700BF66
:10352C00014B1868704700BF18F4012010B4084C08
:10353C004FF4006122680748B2FA82F3003A4FEA6E
:10354C005313236018BF012210BC0CF097BE00BFB0
:10355C0014F4012080B0046000224FF40061014893
:10356C000CF08CBE80B0046000B56C4885B00CF0DB
:10357C0011FE64200CF03AFE02200CF0DFFD0CF082
:10358C0065FE03200CF09AFE00200CF0D3FD002009
:10359C000CF054FE00200CF0C9FD002301AC0122FC
:1035AC000F2021468DF804300CF024FE9DF80430D9
:1035BC00002B00F0A1800122214610200CF01AFEF5
:1035CC009DF8040000B9A9200CF070FE00200CF04E
:1035DC00A5FD0321642208460CF0F8FD40F6C41149
:1035EC0002200CF0C7FD0022012011460CF0CEFD8C
:1035FC00FFF7E2FE04F00AFA2D200CF04FFE0C222D
:10360C004FF0006146480CF029FE02224FF0006199
:10361C0043480CF057FE4FF46122424B214642487E
:10362C00CDE901230CF036FE0E21404A404804F04F
:10363C00EBFA4FF400254FF0600C3E4B3E4A07CAA4
:10364C0084E80700C3F8805183F813C31D6013216D
:10365C0001200CF0FFFD2246022138480CF0F2FD4F
:10366C000122022135480CF0E5FD022133480CF013
:10367C00D9FD0022012132480CF024FE0A2400233B
:10368C004FF488722F4830490381016042218372C4
:10369C00C28004710AF0FAFDBD200AF00BFE2B4922
:1036AC0002202B4AFFF798FE20200CF097FD4FF4D8
:1036BC0080614FF480300CF051FD08B300224FF4C0
:1036CC00001117480CF0CAFD00224FF400111448E9
:1036DC000CF0F8FD01224FF4001111480CF0A6FD7E
:1036EC0001224FF400110E480CF0C8FD64200CF0C0
:1036FC007DFD01F05BFDFEE756200CF0B3FD5AE7B3
:10370C00144B59680CF0E2FD29200CF0C7FD2A205F
:10371C000CF0C4FD20200CF0ADFDCFE700E0046000
:10372C0000B0046021300101000800601935001060
:10373C0028F4012000E100E0E00201100020036009
:10374C0080B004601CF40120000002601D350010E4
:10375C0021350010003000202DE9F84F0D461F4692
:10376C0000EBC503D3F80C9004462E494846164688
:10377C00BDF82880FFF708FC002841D104EBC606F1
:10378C00F1684846FFF758F927490646FFF7FCFB56
:10379C00002835D131464846FFF750F9DFF88CA0A8
:1037AC0001465AF82500FFF749F9214A4AF8250045
:1037BC00535DDFF880A0FF2B5AF825B01CBF0133F6
:1037CC00535549465846FFF7DFFBD8B1DFF868B0D0
:1037DC0020461A4AC5EBC5034AF825904BF82560DC
:1037EC0002EB830204F13801C3680830884242F8C6
:1037FC00043FF9D1124A134B42F8257023F8158077
:10380C00BDE8F88F58464946FFF7B4FB0028F7D0BF
:10381C00DFF824B031465BF82500FFF7B5FB002834
:10382C00EED0D5E70AD7A33E0AD7233D84F5012075
:10383C007CF5012064F501204CF50120A0F4012059
:10384C008CF4012080F4012003680868184700BF3D
:10385C0010B40468086811681A68234610BC18472D
:10386C00034610B5104652B15A18C02A07D8054C59
:10387C008A0004EB83010BF0D0FA002010BD4FF04E
:10388C00FF3010BDA8F5012070B500241D491E4B5A
:10389C001E4D1F4EA822C1E90044C1E90244C1E9F2
:1038AC0004441C482146C5E90044C5E90244C5E965
:1038BC000444C3E90044C3E90244C3E9044434604A
:1038CC00B4800BF018FA144BFF25C3E90044C3E98C
:1038DC000244C3E904449C61104B114A1C80002330
:1038EC0010491148C2E90044C2E90244C2E9044447
:1038FC00C1E9004405700D4A0D488C6014600360EA
:10390C0070BD00BF64F501204CF5012084F5012049
:10391C007CF50120A4F4012060F4012050F4012076
:10392C008CF4012080F4012000F0012054F40120DB
:10393C007CF401200BF040B808B528B130F8023CFB
:10394C00C01AFFF7F7FF08BD6B21024B024A034870
:10395C000AF0F0FFEC020110F00201101C03011040
:10396C002DE9F843D0F80CE01C469EF85460DDF8C5
:10397C0020C0D3F8805066B100212F1D55F83100BE
:10398C0020B157F831309A4207D033B101318E4211
:10399C00F4D16FF02000BDE8F883BEF86270E7B197
:1039AC000568DEF86460013FDCF80080DCF8049008
:1039BC002F44043E013D15F9010FFFF7F3F8414682
:1039CC00FFF73AF84946FFF741F956F8043FBD4274
:1039DC0004F1080423606060EDD10020BDE8F88399
:1039EC00012A02D1016000207047022A05D0032A67
:1039FC00F9D0002AF7D10260F5E70B680360F2E713
:103A0C00012A02D1016000207047022A05D0032A46
:103A1C00F9D0002AF7D10260F5E70B680360F2E7F2
:103A2C00012A02D1016000207047022A05D0032A26
:103A3C00F9D0002AF7D10260F5E70B680360F2E7D2
:103A4C002DE9F04F04680868A1681268B0FBF1F921
:103A5C00B2FBF1FA1F68E36887B01A6A02FB09F936
:103A6C0002FB0A9AD1452CD24FF0000B019721B3DF
:103A7C00019B0026012703EB8B0506E0A168731C54
:103A8C008B4205F1040514D21E46D4E900039B5D5C
:103A9C0082684B44CDE903370595B2B1D0F80C8060
:103AAC0005AB04AA03A9C0470028E7D007B0BDE8BE
:103ABC00F08F0BF1010BE368B3441A6A9144CA45C9
:103ACC00D5D8002007B0BDE8F08F0AF01DFF00BF6D
:103ADC0070B5D0E9001391F83C20054682B1002462
:103AEC00264653F8240030B10368DB689847D5E9C3
:103AFC00001343F8246091F83C2001349442F0D335
:103B0C001846FFF717FF284670BD00BF2DE9F04F90
:103B1C0083B005460F464FF47A79FFF701FDA0FB01
:103B2C000998002D5DD0EE68F36C2BB3002402E0F5
:103B3C00F36CA34220D9D5F810E03B462146284629
:103B4C00BEF1000F01D05EF824E0326D02EB441C94
:103B5C00DCF81C20CDF804E0DCF818E00134CDF8DA
:103B6C0000E0DCF810A0D04782460028E0D0FFF738
:103B7C00D7FC4FF47A7328E096F85420FAB100245D
:103B8C00D7F88030A2460BE02846FFF7D3FED7F8D3
:103B9C00803043F80BA096F854200134A2420ED981
:103BAC0053F834504FEAC40B002DF6D02868002887
:103BBC00EAD02B7B002BE7D0FFF7BCFEE4E7FFF746
:103BCC00AFFC4FF0000A4FF47A73A0FB0332B3EB57
:103BDC00090362EB0802C7E91C32504603B0BDE88A
:103BEC00F08F6FF00A0AF8E7002070472DE9F043D8
:103BFC000546C068984690F844300E46174685B086
:103C0C000BB3002404E0E86890F84430A3421AD9BE
:103C1C00826C04EB440302EBC30CDCF81030CDF8DF
:103C2C000C80DCF808203146CDE901729CF8142098
:103C3C000092DCF804902246C84701340028E2D0F8
:103C4C0005B0BDE8F083FFF7CFFF831C18BF002041
:103C5C0005B0BDE8F08300BF0FB430B5C3B046ABC0
:103C6C0053F8042B4FF4807102A801930BF00CF85D
:103C7C00051E0CDDB5F5807F28BFFF2502AC254461
:103C8C0014F8011B04480CF00DFBAC42F8D143B006
:103C9C00BDE8304004B07047000800602DE9F04FDB
:103CAC0083B00C9B15460190002B00F08C800027F4
:103CBC003E46B846019B29781C680329D4E9013299
:103CCC0002FB03F080440BD0092950D0012936D0D7
:103CDC004348FFF7C1FF6FF00C0003B0BDE8F08F55
:103CEC004FF00009D8B12368E96853F82900FFF7B1
:103CFC0061F80AF0C9FDFFF76FF92969D5F804B02E
:103D0C00084480F308000BF80600D4E9013202FBEA
:103D1C0003F309F101094B4506F10106E3D80C9BAD
:103D2C000137BB42C6D1A969B8EB910F03D041450D
:103D3C0018BFC3464CD1002003B0BDE8F08F00285B
:103D4C00EDD023686A6806F18041043B013902EB2F
:103D5C00810203EB800453F8041F9C4242F8041FB9
:103D6C00F9D10C9B0137BB420644A3D1DBE74FF0E2
:103D7C00000B0028D3D02268E96852F82B00FFF71B
:103D8C0019F80AF081FDFFF727F92B69D5F804A083
:103D9C0018446FF07F039842B8BF18467F28A8BF1D
:103DAC007F200AF80600D4E9012101FB02F20BF195
:103DBC00010B5A4506F10106DDD80C9B0137BB42BD
:103DCC007FF478AFAFE791698B08B4D0DDF830B0F1
:103DDC0004485A46FFF740FF6FF017007DE700BF1D
:103DEC009C030110C00301100B4601782DE9F04132
:103DFC0003290446D3E9012002FB00F028D009294D
:103E0C000CD001293ED1A269B0EB920F41D161686F
:103E1C0018680BF002F80020BDE8F081A16981421E
:103E2C0042D10029F7D065681E680139276905EB76
:103E3C000108043E013D15F9010FC01BFEF7B2FE4F
:103E4C00E168FEF703FF454546F8040FF3D1E2E7BE
:103E5C00A169814228D10029DDD065681E6801392D
:103E6C00276905EB0108043E013D15F8010FC01B45
:103E7C00FEF798FEE168FEF7E9FEA84546F8040F48
:103E8C00F3D1C8E70B48FFF7E7FE6FF00D00BDE874
:103E9C00F081111EB8BF0331024689100648FFF7A6
:103EAC00DBFE6FF01700B7E702460348FFF7D4FEBE
:103EBC00F7E700BF54040110100401102DE9F04184
:103ECC000C461D4606469046FFF72AFB4FF47A7CBB
:103EDC000346A3FB0C3237692D6879681348C4E993
:103EEC00003288470146D8B941463B699847044699
:103EFC0078B9337B1BB910E0327B9A420DD9B2688A
:103F0C0029467B69105D98470134E3B2403500289F
:103F1C00F2D06FF00200BDE8F0810020BDE8F08126
:103F2C000348FFF799FE6FF00500F7E75D400010BE
:103F3C009404011070B50C46002586B0D668019526
:103F4C004A68A568816805FB02F20569AA4228BF88
:103F5C002A46029222680492002955D0C56804AB07
:103F6C0002AA01A9A8474FF07E513046FFF702F88C
:103F7C00054610B1002006B070BD0346A28831463C
:103F8C0062F30F03ADF80820228902A862F31F43E5
:103F9C0004932368ADF80A2004AA0393059303F055
:103FAC0065FE0028E6D019491948FFF755FE2B4647
:103FBC00A2883146ADF8082062F30F03228902A8CB
:103FCC0062F31F4304932368ADF80A2004AA0393F9
:103FDC00059303F04BFE01460E48FFF73DFEA38808
:103FEC0031462689ADF8083063F30F05236804AA1F
:103FFC0002A866F31F45CDE90335ADF80A600593B9
:10400C0003F034FE06B070BD0AF07EFCC40401104F
:10401C00C8040110D004011030B58BB0FEF7EEF9D6
:10402C0004460D46064A2021CDE9004502A80AF0B7
:10403C00C7FD044802A9FFF70FFE0BB030BD00BF4F
:10404C00E4040110EC0401100AF0AEBC0AF090BCC0
:10405C00431E034210B5044613D180B179B1481CFC
:10406C0020440121FFF7F2FF024640B1631C0344D8
:10407C00644203EA0400821A20F8022C10BD0020CE
:10408C0010BD4821024B034A03480AF053FC00BF01
:10409C00F00401100C0501101C0301100B462DE956
:1040AC00F04F8FB009939368044606465649506901
:1040BC000893FEF735F8002814BF03230123226967
:1040CC000393002A00F095804FF0000A17465446DF
:1040DC00B3464E4DCDF810A0B7F5806F3E4628BFC5
:1040EC004FF48066089B012103FB06F080000296CA
:1040FC00FFF7ACFF059000287FD0049ADBF808305E
:10410C00CDE90B260D90002B7BD05846DBF80C60CC
:10411C000DAB0CAA0BA9B047002F5CD0099B4FF03C
:10412C000008D3F800A0059BCDE9067BA3F1040998
:10413C0021E0374958460193FEF788FD0246354980
:10414C0038461746FEF782FD01463846FEF776FCE8
:10415C000246314930461646FEF778FD0146304698
:10416C00FEF76CFC019B08F101084AF80300029B66
:10417C00013443452DD959F8040FFEF753FF064679
:10418C00C0F30740FEF70AFD2946FEF713FE8346EF
:10419C00C6F30720FEF702FD2946FEF70BFE074685
:1041AC00F0B2FEF7FBFC2946FEF704FE0399064627
:1041BC0003294FEA84030AEB8402BAD1029B08F16B
:1041CC00010843454AF824B05760906004F1030499
:1041DC00D1D8DDE9067B029B0598FF1AFFF7AAFBF5
:1041EC00049ADBF8103002F58062934204923FF699
:1041FC0073AF00200FB0BDE8F08F08480FB0BDE8DA
:10420C00F08F0AF081FB00BF4405011000007F43D2
:10421C008716993EA245163FD578E93D16FCFFFF5F
:10422C002DE9F04FA3B0DDE92DB48046207B256944
:10423C0080018946924604930595FFF705FF0646D3
:10424C000890FFF76DF900237C4A1193CDE91223F6
:10425C007B4B12AD10937B4B0DAF95E803000F9386
:10426C0087E8030008AB2A4620460AA9FFF726FE7A
:10427C000346D0B1119A52B10F990992002900F05E
:10428C00DA803846109A09A904939047049B0022BF
:10429C000F9C11922CB10322394638460493A04747
:1042AC00049B184623B0BDE8F08F2C99049B009119
:1042BC0098F844102A46029198F83C10484601910F
:1042CC00DBF88010FFF7EAFC03460028D2D1DDE9C9
:1042DC000A892269049092689047002840F0A880CF
:1042EC00FFF71EF94FF47A72A0FB0221B2EB080221
:1042FC0061EB0901CBE91A21FFF776FC0230049B34
:10430C0008BF6FF00103227B002A54D0B0464FF057
:10431C000009CDE906634FEACA05D8F808100A6807
:10432C00002A40F3828000234FF0010A51F8040F59
:10433C000133934200FB0AFAF8D198F80060032E7F
:10434C000AD0092E08D0012E56D031463E48FFF730
:10435C0083FC6FF00D038DE7237D1020002B34D1EF
:10436C00FFF772FE012104905046FFF76FFE4FF0ED
:10437C00010C049B1860DBF88060D8F81820D8F882
:10438C000410C3F808A083F80CC0C3F804C0735120
:10439C000AF043FDDBF8803062682B444A445A60D3
:1043AC00237B09F101094B4508F1400805F108058B
:1043BC00B3D8DDE906630493059B2048DA6890477F
:1043CC003046FFF7B7FA049B54E7FFF73DFE012197
:1043DC0004904FEA8A00FFF739FE0122049BDBF8B8
:1043EC0080601860C3F808A01A735A6019464046DA
:1043FC007351FFF7F9FCCDE71020FFF725FE31468E
:10440C0004904FEA8A00FFF721FE049BDBF8802022
:10441C00C3F808A018601E735E60D8F804105351DE
:10442C00D8F818200AF0F9FCB4E74FF0010A84E739
:10443C006FF0020367E70AF067FA00BF4539001016
:10444C00553800102D3A0010540401102DE9F04F8E
:10445C00B5B03E9E0446307B3569800189469A464C
:10446C0011950F929DF8FC80FFF7EEFD0023054699
:10447C00259323933E4B3F4A22933F4B2492219307
:10448C0024AA1FAB0E9092E8030083E80300304689
:10449C0017AB1CA91795FFF711FD0D90002840F0E4
:1044AC00D5829DF89030092B02D0032B40F052831B
:1044BC00FFF736F8259BA269129004931592002BF6
:1044CC0000F03E8300231093236C2898DD68279B13
:1044DC000093FEF767FBA36C0290DB68686901939D
:1044EC00AB6826490C93FDF71BFE002814BF032371
:1044FC000123D9F810500593002D00F0DE80002721
:10450C00BB46CDF84CA0DDF800A008953E96CDF842
:10451C005080089B0C9AB3F5806F28BF4FF48063D2
:10452C0002FB03F0012180000393FFF78FFD09903C
:10453C00002800F07F82039BCDF860B01993099B93
:10454C001A93D9F80830002B00F00C831AAB4846AC
:10455C00D9F80C4019AA18A9A047089B002B00F009
:10456C009980099B0025CDE90AB9A3F104083AE02A
:10457C0055380010453900102D3A00104405011033
:10458C005046BA49FEF7F6FC002800F02D814FF09A
:10459C0043410298FEF7EEFC002800F02581019BB8
:1045AC00002B40F06F8149F2456244F68B4341F693
:1045BC002F5002FB09F2009911FB032314FB00306E
:1045CC000014FEF7EFFA4FF08641FEF735FAFEF7CE
:1045DC0003FD00F3070040B2039B0135AB423746A5
:1045EC008BF8000054D958F8040FFEF71BFD049B00
:1045FC007E1C03EB070BC0F307430093059BC0F332
:10460C000729032BC4B2BBD1049A504693190693C5
:10461C00BB1CD318954907930337FEF7ABFC002856
:10462C0000F056814FF043410298FEF7A3FC00289E
:10463C0000F04E81DDE90003002B40F09381FEF782
:10464C00B1FA4FF08641FEF7F7F9FEF7C5FC0646C6
:10465C004846FEF7A7FA4FF08641FEF7EDF9FEF754
:10466C00BBFC034620465CB2FEF79CFA4FF0864139
:10467C00FEF7E2F9FEF7B0FC76B240B2069B8BF87F
:10468C0000601C70079B01351870039BAB42AAD8C5
:10469C00DDE90AB9089B039A09989B1A0893FFF75E
:1046AC0049F9D9F810300BF5806B9B45FFF431AF0D
:1046BC00DDF84CA03E9EDDF85080FFF795FA831C88
:1046CC0000F03C82FEF72CFF129BC01A62EB020238
:1046DC00510143011B1A41EAD06161EB02018900CF
:1046EC0041EA93719B001B1842EB0102D20042EA93
:1046FC005372DB00CAF86420CAF86030B8F1000FBE
:10470C0040F0FC81FEF70CFF4FF47A74A0FB04859B
:10471C003369CDE91C859B689847002840F01E82C0
:10472C00FEF7FEFEA0FB0432B3EB080362EB0502BE
:10473C00CAE91A32FFF758FA02300D9B08BF6FF026
:10474C0001030D93337B002B46D000250F9B0E9C51
:10475C004FEAC308A2681068002840F3F9810023CF
:10476C00012752F8041F0133834201FB07F7F8D1EC
:10477C0094F80090B9F1030F00F07F81B9F1090FA3
:10478C0000F07B81B9F1010F40F093811020FFF70D
:10479C005BFC49468346B800FFF758FCDAF88030DA
:1047AC00CBF80870CBF800008BF80C90CBF8049089
:1047BC00A269616843F808B00AF02FFBDAF8803080
:1047CC00726843442A445A60337B0135AB4204F18E
:1047DC00400408F10808BDD8119B2548DB689847B0
:1047EC000E98FFF7A7F82CE10098FEF7D7F90746CB
:1047FC004846FEF7D3F981462046FEF7CFF9019BD8
:10480C000446002B4AD138461A49FEF7D3FA194907
:10481C0007464846FEF7CEFA164981462046FEF773
:10482C00C9FA044638461449FEF710FA13490746EC
:10483C004846FEF70BFA01463846FEF7FFF80346EA
:10484C000F4920461C46FEF701FA01462046FEF7AA
:10485C00F5F85146FEF7AEFA0AF016F80146029842
:10486C00FEF7ECF8FEF7B8FB40B2B5E68180803B72
:10487C004539001000007F438716993EA245163F2C
:10488C00D578E93D0098FEF789F907464846FEF7CA
:10489C0085F981462046FEF781F90446019B022BDF
:1048AC0000F08480019B042BBCD138464FF086412C
:1048BC00FEF7C2F84FF0864107464846FEF7BCF8B3
:1048CC004FF0864181462046FEF7B6F80446A9E72C
:1048DC000098FEF763F906464846FEF75FF98146F5
:1048EC002046FEF75BF9019B0446002B45D1304670
:1048FC009D49FEF75FFA9C4906464846FEF75AFA70
:10490C00994981462046FEF755FA044651463046F1
:10491C00FEF750FA09F0B8FF01460298FEF78EF840
:10492C00FEF75AFB514606464846FEF743FA09F095
:10493C00ABFFDDF8089001464846FEF77FF8FEF71E
:10494C004BFB0346514620465CB2FEF733FA09F0A6
:10495C009BFF01464846FEF771F8FEF73DFB76B229
:10496C0040B28BE6FEF71AF906464846FEF716F9F2
:10497C0081462046FEF712F90446019B022B37D0E4
:10498C00019B042BC2D130464FF08641FEF754F800
:10499C004FF0864106464846FEF74EF84FF08641EA
:1049AC0081462046FEF748F80446AFE738466E4984
:1049BC00FEF700FA6D49FEF73FF86D49FEF7FAF97C
:1049CC00694907464846FEF7F5F96A49FEF734F897
:1049DC006949FEF7EFF9644981462046FEF7EAF98A
:1049EC006649FEF729F86649FEF7E4F9044619E72B
:1049FC0030465D49FEF7DEF95C49FEF71DF85C496F
:104A0C00FEF7D8F9584906464846FEF7D3F95949F6
:104A1C00FEF712F85849FEF7CDF953498146204666
:104A2C00FEF7C8F95549FEF707F85549FEF7C2F9E4
:104A3C0004466BE753495448FFF70EF96FF0040333
:104A4C000D93049B13B1109B002B53D1239B43B1AB
:104A5C00219A1B93002A00F08580229B1FA81BA97A
:104A6C0098470022219B23921BB11FA903220846C1
:104A7C0098470D9835B0BDE8F08F337D102003B307
:104A8C00FFF7E2FA01218146B800FFF7DFFA0123B4
:104A9C00DAF88020C9F80000C9F8087089F80C30E1
:104AAC00C9F804304946204642F80890FFF79CF9B3
:104ABC0084E649463548FFF7CFF86FF00D030D93A8
:104ACC00BFE7FFF7C1FA012181463846FFF7BEFA6E
:104ADC000123C9F80000C9F80870DAF88070A269DF
:104AEC00616889F80C30C9F8043047F808900AF06E
:104AFC0094F963E60498FEF71DFFA7E7DAF84C106B
:104B0C002348FFF7A9F8159BA3B1159B5C1E049BCA
:104B1C001C445D1E289B15F9010FC01AFEF742F8C4
:104B2C002799FEF793F8FFF777FA1A48FFF794F8EE
:104B3C00AC42EFD11848FFF78FF8E3E50D9080E712
:104B4C0001211046FFF782FA012304901093BBE475
:104B5C0001270DE66FF008030D9377E76FF0020362
:104B6C000D93EFE509F0D0FE00007F43EC51F83EC9
:104B7C00FA7E6A3ED578E93E4260653E3BDFCF3E29
:104B8C006666663E16FCFFFF5005011054040110CA
:104B9C00780501108C050110940601102DE9F04FD9
:104BAC00A3B082460F469046994606910D93002875
:104BBC0000F0C982C368002B00F0C582002A00F007
:104BCC00C282002900F0BF828822002140460AF0F0
:104BDC0092F8DAF80C3093F85440E4002046FFF7D2
:104BEC0033FA22460021C8F8800006460AF083F802
:104BFC00DAF80C0090F85520836C0E2A90F83C40A3
:104C0C00D3E9015126D844F6A403D340DB0721D5C0
:104C1C0090F86130F3B9A44B9D421BD14B7BCBB1C7
:104C2C00012C17D1036C9A68A04B9A4240F08E82EB
:104C3C00CDE90019434639460022FFF707FC05462B
:104C4C00002800F080813046FEF774FE284623B021
:104C5C00BDE8F08F0B94E4002046FFF7F5F983468E
:104C6C00002800F0B481224600210AF044F80B9C85
:104C7C00A31C9F00384609F045FE0423036003463D
:104C8C0008330C9044600A93002C00F05A82DDE942
:104C9C000A0300219A000AF02EF8FEF741FCDAF81C
:104CAC000C30119093F83C20002A00F0A9800024CD
:104CBC00CDF82480A0460C9ACDE90F7602F10409B8
:104CCC00196C04EBC40201EB820351F82210920020
:104CDC000892D3E901520792DA685E6905921A6963
:104CEC00DB691020039302910492FFF7ADF90121C7
:104CFC000746A800FFF7AAF94FF001033B73012305
:104D0C0059F8041FC7E90135C9F80070386049B17A
:104D1C00086818B10B7B002B40F002810846FEF7A7
:104D2C0009FE3868002800F05881029ADAF80CC0A5
:104D3C000BF104034BF8347043F83420DCF81830D2
:104D4C00A844984500F26B81049B069A19930023A2
:104D5C001E93DCF82010CDE91A6C8E4218921C932D
:104D6C001F931D9300F093801593514B1CAD1E9314
:104D7C00504B1F93136914AAB3FBF1F306FB03F317
:104D8C00209318AB149312AB92E8030083E8030052
:104D9C00039BC5E90001002B7DD0474E3378002BD7
:104DAC0000F08C80DAF8046056F82400002800F03B
:104DBC009680099FDAF80C605BF834202946056868
:104DCC000197B66B059B00966D68A847002840F0CC
:104DDC003281FEF709FF821C1E9B00F036811BB14D
:104DEC001CA9032208469847DAF80C30013493F8D2
:104DFC003C20A2423FF664AFDDF82480DDE90F765B
:104E0C00FEF78EFB119BC01A62EB020251014301AB
:104E1C001B1A41EAD06161EB0201890041EA9371EE
:104E2C009B001B1842EB0102D20042EA5372DB00DA
:104E3C00C8F860300D9BC8F86420002B40F05981F5
:104E4C000D9B424659465046FEF7D0FE0A9BA7F1F1
:104E5C00080405461C44002800F002810A9BA3426A
:104E6C0069D0A046DDF8289004E02046FEF762FDEC
:104E7C00C14560D058F8044D002CF9D020680028AA
:104E8C00F3D0237B002BF0D0FEF754FDEDE7039B12
:104E9C00069D002B81D12846059ADCF838305BF84A
:104EAC003410079DA84791E72D420010A94000102F
:104EBC00ED3900104D3A0010A8F80120B049B14866
:104ECC00FEF7CAFEB048FEF7C7FE4FF00103337081
:104EDC00DAF8046056F8240000287FF46AAFDAF898
:104EEC00003008991A6C0A44D068996BD3699847BA
:104EFC00DAF8043046F8240053F8240000287FF434
:104F0C0058AF6FF00A05DDE90F761E9B1BB11CA98B
:104F1C000322084698470A9BA7F108041C449DE706
:104F2C000E91FEF707FD0E99F8E608210C9809F092
:104F3C00D6FC6FF007050C98394609F0D0FC5846A2
:104F4C00FEF7F8FC7FE641465046FEF7DFFD0546CE
:104F5C00D8E9180110F5FA704FF47A724FF000038B
:104F6C0041F10001FEF77EF8C8F84C00D8F8680053
:104F7C00D8F86C1010F5FA704FF47A724FF00003F9
:104F8C0041F10001FEF76EF8C8F85000D8F878002F
:104F9C00D8F87C1010F5FA704FF47A724FF00003C9
:104FAC0041F10001FEF75EF8C8F85800D8F870001F
:104FBC00D8F8741010F5FA704FF47A724FF00003B1
:104FCC0041F10001FEF74EF8C8F854003BE66F487B
:104FDC00FEF742FE6FF0070535E62146DDE90F7658
:104FEC006B48FEF739FE0A9BA7F108041C44A34248
:104FFC009BD0A046DDF8289004E02846FEF79AFCEA
:10500C00C14526D058F8045D002DF9D02868002839
:10501C00F3D02B7B002BF0D0FEF78CFCEDE75D483A
:10502C00DDE90F76FEF718FE0A9BA7F108046FF076
:10503C0004051C4412E70146DDE90F765648FEF7DD
:10504C000BFE6FF004051E9B60E70546DDE90F764D
:10505C005CE739460C9809F042FC6FF00705FDE659
:10506C0050464146FEF752FD054600287FF4F6AE49
:10507C00D8F86030D8F8641013F5FA704FF47A72DF
:10508C004FF0000341F10001FDF7ECFFD8F8683058
:10509C00D8F86C10C8F84C0013F5FA704FF47A720B
:1050AC004FF0000341F10001FDF7DCFFD8F8783038
:1050BC00D8F87C10C8F8500013F5FA704FF47A72D7
:1050CC004FF0000341F10001FDF7CCFFD8F8703030
:1050DC00D8F87410C8F8580013F5FA704FF47A72B7
:1050EC004FF0000341F10001FDF7BCFFC8F854007C
:1050FC00B4E6D8F84C102948FEF7AEFD0B9BE3B193
:10510C000024DDF82C905BF834309BB19A680025B4
:10511C006AB11B6853F82500FEF77EFF2048FEF7A6
:10512C009BFD5BF8343001359A68AA42F1D81D48D2
:10513C00FEF792FD0134A145E5D11B48FEF78CFD2D
:10514C007EE60827A9E56FF015057FE50820FEF738
:10515C007BFF834600283FF43AAF00230C20CBF8AA
:10516C000030CBF8043009F0CDFB0123042243605E
:10517C000B9300F108030C270C9002600A9386E550
:10518C0024060110C80401102C0601109005011012
:10519C00C0050110F805011050050110780501102B
:1051AC008C05011094060110980601102DE9F04FA2
:1051BC00C1B004E0FEF7BAF9C8200BF017F801F003
:1051CC0031FE0028F6D00024FEF7C6F94FF44072E9
:1051DC000021A24809F08FFDA14BDFF888B21C60BA
:1051EC00A14BDFF888821C60A14B9C4F1C70A14B1B
:1051FC001C70FEF749FB01239F4A13709F4B1C60E8
:10520C009F4B1C609F4B1C609F4B1C609F4B1C70EA
:10521C00042303930CA801F0DBFD0028F8D0DBF885
:10522C0000209B4B02F51C424032A3FB0213D8F822
:10523C00004009A804EB53045B0803EBC303D21A28
:10524C00CBF80020C8F8004001F09CFD00284AD0A3
:10525C00894B1B78002B46D08C4A1378002B47D1F6
:10526C0001231370234645F6EA321344854A136032
:10527C000022854B1A607A4B1D68AE1DC02E88BF6C
:10528C001A6030D8BDF92400FDF78CFC47F82500D6
:10529C00BDF92600FDF786FC05F1010947F8290048
:1052AC00BDF92800FDF77EFC05F1020947F829003D
:1052BC00BDF92A00FDF776FC05F1030947F8290032
:1052CC00BDF92C00FDF76EFC05F1040947F8290027
:1052DC00BDF92E00FDF766FC614B0535C02E47F875
:1052EC0025001E600FD0039B013B039392D18FE7E7
:1052FC00644B1B68E21A002AF5DB634A126802F55C
:10530C00B7426A32B1E700231F93624B88221E9387
:10531C00614B15961393614B14931EAB93E80300EA
:10532C0016AB83E8030011AB83E803001EA809F059
:10533C00E2FCFEF7F5F8002306461EAA584811A910
:10534C00FFF72CFC0546FEF7EBF8002D69D14FF664
:10535C00FF73801B984228BF184683B20793FEF751
:10536C00DFF8239EDDF88490069049463046FDF721
:10537C0029FE00286DD00123049305944FF00209F7
:10538C002C460DEBC903D3F8845031462846FDF763
:10539C0019FE40AB5FFA89FA03EBC401002853D124
:1053AC00284651F87C1CFDF70DFE002818BF54460A
:1053BC0009F10109B9F1060FE3D1DDF8B4A02C4BCA
:1053CC0050463849254693F80090059CFDF7F0FDB2
:1053DC0000286DD1B9F1000F40F06E812849069A72
:1053EC000B68D31A002B1CDB30462F49FDF7E0FD70
:1053FC00B8B150462B49FDF7C7FD90B101231D49AB
:10540C0006981B4A81F800901C4913700860FEF73F
:10541C003BFA079B2A460093049923461EA8FEF7E5
:10542C009BF922494FF41072A1F1C00009F04AFC1B
:10543C0090230B4A1360139B002B3FF454AF11A91C
:10544C000322084698474EE7049C2E46CDF810A040
:10545C00AEE704954E4601258FE700BFA8F5012065
:10546C00A4F5012048F40120A0F501204CF4012002
:10547C009DF501209CF501203DF401205CF40120F8
:10548C0058F4012044F4012040F401203CF40120A4
:10549C00398EE3386D3800100D3A00105D3800106D
:1054AC00ACF801209A99593F9A99993E68F60120D7
:1054BC00B9F1000FB5D0079B2A46009304992346F7
:1054CC001EA8FEF749F9974B1B78FF2B06D001332A
:1054DC00DBB2944A012B137000F00481924BD3F889
:1054EC0004901C6848462146FDF76CFD002800F02E
:1054FC0002810025012402264846B2468B4B0493B8
:10550C00049BA14653F8041F5FFA8AF6CDE90431D7
:10551C00FDF73AFD059958B1D1460AF1010ABAF1E5
:10552C00060F2546344611D07F4B53F82900E7E788
:10553C007D4B084653F82510FDF744FD0AF1010A8E
:10554C00002818BF3546BAF1060FEDD1069B03F5BE
:10555C00AF76774B13F80920002A00F0D280DFF8E1
:10556C00C8A100215AF825502846FDF72BFD50B153
:10557C0029465AF82900FDF75FFA6E49FDF704FD3C
:10558C00002840F0C78000256B4BC9EBC90C1E608E
:10559C006A4B6B4A1C706B4BDFF8ACE103EB8C0C69
:1055AC006A4B53F829606A4B1E606A4B53F829A06A
:1055BC00694BC2F800A033F81930684A0493138081
:1055CC00674B1D70574B1D70BCE80F00AEE80F0009
:1055DC009CE807008EE8070030466249FDF7E8FCBE
:1055EC0000283FF41EAF604A4FF07E5113683046DE
:1055FC001793013313605D4BCDF860A08DF86440B8
:10560C00CDF86650CDF86A50CDF86E50CDF872508A
:10561C00ADF876501693FDF7CBFC00286FD15449AA
:10562C003046FDF713FB4FF07C51FDF707FAFDF701
:10563C00F9FCC3B24FF07C594E4DDFF83CA18DF80C
:10564C00653019AE14E04FF07E512046FDF7B0FCEA
:10565C0078BB51462046FDF7F9FA4946FDF7EEF9BD
:10566C00FDF7E0FC80B2454B26F8020FAB420DD0A3
:10567C0055F8044F00212046FDF790FC0028E2D09D
:10568C0000203E4B26F8020FAB42F1D10022049BC6
:10569C00ADF874300DF1570313F8011F0A440DF1E6
:1056AC0075018B42F8D116A8ADF8762002F0BAF944
:1056BC00B7E642F21070D6E7079B049900931EA838
:1056CC0023462A46FEF748F831465046FDF77AFC49
:1056DC00F0B150462A49FDF757FC00287FF4F3AE91
:1056EC00104B1870274B069A1B68D31AB3F5C86F6A
:1056FC00BFF4F4AE95E6A14601250024FBE6FF239A
:10570C0098E70D4B1E60164B1A70064B1A7088E604
:10571C003046DFE7084B124A1E6000231370014A23
:10572C0013707EE69CF5012084F5012088F501209C
:10573C007CF50120CDCC4C3D58F4012000F001202B
:10574C0054F40120A4F4012060F4012064F501203C
:10575C007CF401208CF4012080F4012050F4012011
:10576C009DF501203333B33EA0F50120AA5501026B
:10577C0000007F435CF4012000401C4678F40120BB
:10578C009A99993E5CF401202DE9F04100270F4DC8
:10579C000F4B95F83C600F4C1B684FEA860840464F
:1057AC002560EB662772FEF74FFC60601EB1424627
:1057BC00394609F0A0FA0023E560C4E90433BDE8DA
:1057CC00F041054A0549034809F082B804F001206C
:1057DC00C4F80120ACF8012038F40120DD3A0010A7
:1057EC0010B52C220021044609F085FA0423A3717C
:1057FC00002010BD034619B110B10020196070478C
:10580C000320704730B4056808462C6811461A46C8
:10581C001CB1A446AB6830BC6047022030BC70475A
:10582C0030B4056808466C6811461A461CB1A4468B
:10583C00AB6830BC6047022030BC704710B5032900
:10584C0082B014D883798B420ED0036881711C68A6
:10585C0009018DF807106CB101227F209B680DF1B6
:10586C000701A04702B010BD002002B010BD0320FC
:10587C0002B010BD0220F5E7002230B5817983B06B
:10588C00044603688DF8042041B182711D682DB166
:10589C009B6801227F2001A9A84723685D68ADB1F0
:1058AC00012206209B6801A9A84768B925689DF8C4
:1058BC0004302C6843F080038DF8043034B101229D
:1058CC000620AB6801A9A04703B030BD022003B08D
:1058DC0030BD00BF70B500220446807982B00E4600
:1058EC0023688DF8042040B1A2711D682DB19B680E
:1058FC0001227F2001A9A84723685D68ADB1012270
:10590C0006209B6801A9A84768B925689DF8043052
:10591C002C6866F386138DF8043034B1012206200E
:10592C00AB6801A9A04702B070BD022002B070BDE7
:10593C0070B500220446807982B00E4623688DF83B
:10594C00042040B1A2711D682DB19B6801227F20FB
:10595C0001A9A84723685D68ADB1012206209B68A8
:10596C0001A9A84768B925689DF804302C6866F32E
:10597C0045138DF8043034B101220620AB6801A91F
:10598C00A04702B070BD022002B070BD002230B53D
:10599C00817983B0044603688DF806208DF80720C2
:1059AC0049B182711D6835B19B6801227F200DF1D0
:1059BC000701A84723685C6874B1012200209B682A
:1059CC000DF10601A04728B99DF80600EA3818BF6A
:1059DC000120800003B030BD022003B030BD00BFF9
:1059EC002DE9F04184B001928A070C4606466BD033
:1059FC0011F0010505D1A3073ED4284604B0BDE83B
:105A0C00F0810225827903688DF80F50AA42BDF807
:105A1C000470D3F800805CD0202285718DF80F20A3
:105A2C00B8F1000F57D09B6801227F200DF10F01B8
:105A3C00C04705463368D3F800808DF80F703F0AD5
:105A4C008DF80E70B8F1000F45D09B680122102024
:105A5C000DF10E01C047336805431F68EDB2002FEE
:105A6C0042D09B68012211200DF10F01B847A3070A
:105A7C0045EA0005EDB2C0D50223B27931688DF844
:105A8C000F309A420C680ED02022B3718DF80F2083
:105A9C002CB38B6801220DF10F017F20A0473168D8
:105AAC0028430C68C5B29DF806308DF80F30CCB188
:105ABC008B68012200200DF10F01A0472843C5B2CD
:105ACC00284604B0BDE8F0810725284604B0BDE89F
:105ADC00F0810025B1E745F00205EDB28BE71846E1
:105AEC001D43EBE70220E9E745F0020583E700BF21
:105AFC00002370B5827982B004460D468DF80430CF
:105B0C005AB1016883710E680EB38B6801227F2035
:105B1C0001A9B04708B102B070BD23685E68B6B188
:105B2C00012203209B6801A9B0470028F3D1266805
:105B3C009DF80430346865F386138DF8043034B165
:105B4C000122B36801A90320A04702B070BD022056
:105B5C00E1E700BF002330B5827983B004468DF8AD
:105B6C00043062B1016883710D68002D32D08B68EE
:105B7C0001227F2001A9A84708B103B030BD2368DA
:105B8C005D683DB3012268209B6801A9A8470028E5
:105B9C00F3D121689DF804300D6843F01F038DF894
:105BAC000430BDB18B680122682001A9A8470028E8
:105BBC00E3D11E2225689DF804302C6862F304039F
:105BCC008DF8043034B10122AB6801A96820A047DC
:105BDC0003B030BD0220D0E7002370B5827982B0CB
:105BEC0004460D468DF804305AB1016883710E6875
:105BFC0056B38B6801227F2001A9B04708B102B0CF
:105C0C0070BD23685E68FEB10122702069469B68F6
:105C1C00B0470028F3D121689DF800304C6803F0A0
:105C2C001F038DF800307CB18B680122712001A913
:105C3C00A0470028E3D19DF800209DF8043043EAEA
:105C4C0002232B8002B070BD022002B070BD00BFD9
:105C5C000023F0B50446807983B00E4615468DF8C6
:105C6C00073060B12268A3711768A7B193687F20D1
:105C7C0001220DF10701B84708B103B0F0BD23684C
:105C8C005C6844B12A4631467220A4469B6803B036
:105C9C00BDE8F04060470220EFE700BF002370B57D
:105CAC00827982B004460D468DF804305AB10168F1
:105CBC0083710E680EB38B6801227F2001A9B04757
:105CCC0008B102B070BD23685E68B6B10122032032
:105CDC009B6801A9B0470028F3D126689DF80430D1
:105CEC00346865F3C7138DF8043034B10122B368FE
:105CFC0001A90320A04702B070BD0220E1E700BF5C
:105D0C00002330B5827983B004468DF804305AB143
:105D1C00016883710D680DB38B6801227F2001A986
:105D2C00A84708B103B030BD23685D68B5B1012246
:105D3C0003209B6801A9A8470028F3D125689DF88A
:105D4C0004302C6843F008038DF8043034B1012280
:105D5C00AB6801A90320A04703B030BD0220E1E7E6
:105D6C0030B50379044683B003B3837949BA022B67
:105D7C00ADF8041010D00221202203688DF8032006
:105D8C001D688171ADB101227F209B680DF103016B
:105D9C00A84708B103B030BD23681C684CB102227F
:105DAC009B6801A95020A04703B030BD082003B068
:105DBC0030BD0220EEE700BF2DE9F04705460C464A
:105DCC0016461F4682B0002B58D0002382798DF8DE
:105DDC0007306AB183710368D3F80080B8F1000F03
:105DEC0038D001227F209B680DF10701C04790BB82
:105DFC00EA79230A9A428DF806302FD14FF0000829
:105E0C0006BB3FE001227C209B680DF10701C847CF
:105E1C00A6EB0809F8B92B68B9F1100FD3F800A05C
:105E2C0028BF4FF0100907EB0801BAF1000F11D091
:105E3C007D204A469B68D0474C44C844A4B250B914
:105E4C0046451FD92B688DF80740D3F80090B9F15F
:105E5C00000FD7D1022002B0BDE8F087EB712B68A0
:105E6C00D3F80080B8F1000FF4D001227E209B689B
:105E7C000DF10601C0470028C0D0ECE7062002B0A7
:105E8C00BDE8F087002002B0BDE8F0872DE9F047AF
:105E9C0005460C4616461F4682B0002B58D00023F0
:105EAC0082798DF807306AB183710368D3F800806A
:105EBC00B8F1000F38D001227F209B680DF107014B
:105ECC00C04790BBEA79230A9A428DF806302FD14D
:105EDC004FF0000806BB3FE001227C209B680DF1CF
:105EEC000701C847A6EB0809F8B92B68B9F1100FE0
:105EFC00D3F804A028BF4FF0100907EB0801BAF142
:105F0C00000F11D07D204A469B68D0474C44C844B2
:105F1C00A4B250B946451FD92B688DF80740D3F869
:105F2C000090B9F1000FD7D1022002B0BDE8F08784
:105F3C00EB712B68D3F80080B8F1000FF4D001227C
:105F4C007E209B680DF10601C0470028C0D0ECE70D
:105F5C00062002B0BDE8F087002002B0BDE8F08753
:105F6C002DE9F04F1F46037904468846164689B042
:105F7C00002B5FD043791BB1002009B0BDE8F08F36
:105F8C00817902688DF8103041B1837115682DB19B
:105F9C0093687F20012204A9A84722685568002D28
:105FAC0078D093680620012204A9A8470028E4D1E0
:105FBC0022689DF81030156860F386138DF8103048
:105FCC00002D67D093680620012204A9A847002859
:105FDC00D3D101462046FFF7ABFC0028CDD1002ED3
:105FEC0067D03546C246B946102DAB4628BF4FF098
:105FFC00100B1FFA8BFB5BFA89F3B3F5807FC8BFDC
:10600C00A3F5807B51465A4604A808F006FF494682
:10601C0004AB5A462046FFF7CFFE1FFA8BF3ED1A5E
:10602C004B44ADB2DA441FFA83F90028A5D1002DF8
:10603C00DAD10DE0082009B0BDE8F08FC8441FFA92
:10604C0089F9A6EB0906B6B2B9441FFA89F71EB353
:10605C00102EB14628BF4FF0100959FA87F2B2F54D
:10606C00807FC8BFA2F580796B46394620464A46E8
:10607C00FFF70CFF00B101354A46414604A808F071
:10608C00CCFE4A46684604A908F00CFE0028D5D080
:10609C00092072E7022070E701212046FFF748FC37
:1060AC0000287FF46AAF002D7FF466AF0123637183
:1060BC0062E701212046FFF73BFC0028F6D05CE7A5
:1060CC00902343F2DD720149FFF74ABF881C01108F
:1060DC0070B5037905460E4682B0002B3FD00021E7
:1060EC0052BAADF80020ADF80410FFF7F3FB0446EC
:1060FC0010B1204602B070BD01462846FFF718FCCF
:10610C0004460028F5D1A03E1E2E1ED8DFE806F06E
:10611C00391D1D1D471D1D1D551D1D1D631D1D1DDF
:10612C001D1D711D101D7F1D8D1D9B1DA91D2B007F
:10613C000222B4216B462846FFF73EFE0222942130
:10614C00284601ABFFF738FE044601212846FFF72D
:10615C00EFFB002818BF0446204602B070BD08248F
:10616C00204602B070BD0222BE216B462846FFF7C6
:10617C0023FE02229E21284601ABFFF71DFE04469A
:10618C00E3E70222A0216B462846FFF715FE022208
:10619C008021284601ABFFF70FFE0446D5E702220B
:1061AC00A4216B462846FFF707FE022284212846CD
:1061BC0001ABFFF701FE0446C7E70222A8216B469C
:1061CC002846FFF7F9FD02228821284601ABFFF78C
:1061DC00F3FD0446B9E70222AC216B462846FFF7D3
:1061EC00EBFD02228C21284601ABFFF7E5FD0446AE
:1061FC00ABE70222B2216B462846FFF7DDFD0222F7
:10620C009221284601ABFFF7D7FD04469DE70222F9
:10621C00B6216B462846FFF7CFFD02229621284671
:10622C0001ABFFF7C9FD04468FE70222B8216B468C
:10623C002846FFF7C1FD02229821284601ABFFF743
:10624C00BBFD044681E70222BA216B462846FFF7C4
:10625C00B3FD02229A21284601ABFFF7ADFD04469F
:10626C0073E70222BC216B462846FFF7A5FD0222EC
:10627C009C21284601ABFFF79FFD044665E700BF54
:10628C002DE9F04F0379064685B0002B67D0132912
:10629C0061D8834B5B5C2B2B5DD84FF6FF7181482B
:1062AC0030F81300884256D0D6E904CE1F2B5AD9A9
:1062BC000121203B9940002A40F0E7802EEA010E94
:1062CC00C6F814E000224FF0010817461546144694
:1062DC007549DFF8D891DFF8D8B1019622E0E0B12A
:1062EC000E8810F4DD6F47EA06071CBF45F0020567
:1062FC0044F4007400F0840640F6180A10EA0A0F01
:10630C0003D045F0010544F4807403EA09033343D8
:10631C0003D045F0080544F080040132202A01F135
:10632C00020146D008FA02F30EEA03001CEA03034A
:10633C00D5D031F8406C37435E4E1E40E8B903EAC5
:10634C000B0A5EB345F0020544F40074BAF1000F79
:10635C0027D00646D5E7072005B0BDE8F08F08200A
:10636C0005B0BDE8F08F01219940002A40F08880EB
:10637C002CEA010CC6F810C0A4E7B1F800A047EA5B
:10638C000A07002E00F0868045F0020544F40074E4
:10639C0013EA0B0F00F08406B3D1ADE7BAF1000F8E
:1063AC00AFD113EA090FB4D10132202A01F1020155
:1063BC00B8D1019E00213046FFF78CFA0028CBD1D2
:1063CC0001463046FFF7B4FA0028C5D144F2400329
:1063DC001F4242F220534FEA570808F4804818BF76
:1063EC0048F400581F427BBAADF80C304FF0020253
:1063FC004FF040013046378403AB18BF48F4805847
:10640C00FFF7DAFC0028A7D18DF80D00A6F8228042
:10641C0002224FEA18284221304603AB8DF80C803B
:10642C00FFF7CAFC002897D18DF80C0002228A21B4
:10643C003046B58403AB8DF80D50FFF7BDFC00283A
:10644C008AD17A0548BF44F0400417F0170F18BFE3
:10645C0044F40054FB0548BF44F0080461BAADF89D
:10646C000C1002224E21304603ABF484FFF7A4FC3F
:10647C0000287FF471AF01213046FFF759FA6BE722
:10648C004CEA010CC6F810C01CE74EEA010EC6F827
:10649C0014E017E710F4DD6F7FF476AF78E700BFF8
:1064AC00841B0110981B0110D81B01100C48108381
:1064BC00188E01E60A8E9EE270B5037905460C46ED
:1064CC0086B0002B00F0D6810DF10601FFF784FB9E
:1064DC00002840F0CD81BDF80660012E40F2E0812D
:1064EC0020800222284602A9FFF7B2FB002840F0C8
:1064FC00BF81BDF80830023E5BBAB6B223809AB2B7
:10650C001B076080ADF8066000F1B781100400F144
:10651C00CA8151041BD50B2E40F2FC810C2228465B
:10652C0002A9FFF795FB002840F0A281A94A02A915
:10653C0002F1300C52F8043B11F8010B2344624574
:10654C009872F7D10C3EB6B22288ADF8066093046F
:10655C0017D5052E40F2F6810622284602A9FFF730
:10656C0077FB002840F08481029B063E5BBAC4F89E
:10657C001630BDF80C30B6B25BBA2288ADF80660A6
:10658C006383D00400F1A58111051CD50B2E40F2BC
:10659C00F1810C22284602A9FFF75AFB002840F093
:1065AC0067818D4A02A902F1300C52F8043B11F8B4
:1065BC00010B2344624583F82400F6D10C3EB6B29D
:1065CC002288ADF8066053051DD50D2E40F2DF81F3
:1065DC000E22284602A9FFF73BFB002840F0488119
:1065EC007E4A0DF1070102F1380C52F8043F11F804
:1065FC00010F2344944583F83000F6D10E3EB6B219
:10660C002288ADF80660900517D5052E40F2CC8196
:10661C000622284602A9FFF71BFB002840F0288120
:10662C00029B063E5BBA2364BDF80C30B6B25BBA73
:10663C002288ADF80660A4F84430D1051DD50D2E86
:10664C0040F2BF810E22284602A9FFF701FB002869
:10665C0040F00E81614A0DF1070102F1380C52F83D
:10666C00043F11F8010F2344944583F84800F6D1F8
:10667C000E3EB6B22288ADF80660130615D5052E6F
:10668C0040F2AC810622284602A9FFF7E1FA002865
:10669C0040F0EE800298063EA065BDF80C30B6B214
:1066AC002288ADF80660A4F85C3090061CD50B2E41
:1066BC0040F2A1810C22284602A9FFF7C9FA002852
:1066CC0040F0D680444A02A902F1300C52F8043B47
:1066DC0011F8010B2344944583F86C00F6D10C3E61
:1066EC00B6B22288ADF80660D10611D5032E40F261
:1066FC008F810422284602A9FFF7AAFA002840F04D
:10670C00B780029B043EB6B21BBAADF80660A36715
:10671C0063885A0414D5012E40F28881022228463F
:10672C0002A9FFF795FA002840F0A280BDF80830C6
:10673C00023E5BBAB6B2A4F87C306388ADF8066052
:10674C009B0413D5012E40F27F810222284602A918
:10675C00FFF77EFA002840F08B80BDF80830023E2F
:10676C00B6B25BBAADF80660A4F87E306388D80484
:10677C0013D5012E40F276810222284602A9FFF79A
:10678C0067FA002874D1BDF80830023E5BBAB6B285
:10679C00A4F880306388ADF80660590513D5012E36
:1067AC0040F27C810222284602A9FFF751FA002808
:1067BC005ED1BDF80830023E5BBAB6B2A4F88430A4
:1067CC006388ADF806601A062DD5052E40F274814B
:1067DC0006E000BFF01B0110201C01104C1C011026
:1067EC000622284602A9FFF733FA002840D19DF86B
:1067FC000830063E63F307009DF80930B6B263F328
:10680C000F209DF80D30ADF8066063F31740BDF80E
:10681C000A305BBAA4F88C309DF80C3063F31F601F
:10682C006388C4F888005B0611D5012E40F25281B2
:10683C000222284602A9FFF70BFAC8B9BDF80830A6
:10684C00023EB6B25BBAADF80660A4F89030012EE9
:10685C0040F216810222284602A9FFF7F9F938B94D
:10686C00022E18BF0C20BDF808305BBAA4F8923089
:10687C0006B070BD082006B070BD012E56D902229C
:10688C00284602A9FFF7E4F90028F1D1BDF8083039
:10689C00023EB6B25BBA2288ADF80660638035E67C
:1068AC000A2006B070BD052E27D90622284602A95B
:1068BC00FFF7CEF90028DBD1029B063E5BBA636082
:1068CC00BDF80C30B6B25BBA2288ADF806602381F5
:1068DC001FE6072E42D9082228460DEB0201FFF7CE
:1068EC00B7F90028C4D1083EB6B202AB03CB22885C
:1068FC00ADF80660E061216246E628460DF106011E
:10690C00FFF76AF90028B3D1BDF80660052ECCD884
:10691C000B20ADE728460DF10601FFF75DF90028C5
:10692C00A6D1BDF806600B2EF2D9F7E528460DF17D
:10693C000601FFF751F900289AD1BDF80660012E27
:10694C00E6D99CE728460DF10601FFF745F900282A
:10695C008ED1BDF80660052EDAD9FDE528460DF17D
:10696C000601FFF739F9002882D1BDF80660072E21
:10697C00CED9B0E728460DF10601FFF72DF9002816
:10698C007FF476AFBDF806600B2EC1D901E6284620
:10699C000DF10601FFF720F900287FF469AFBDF86F
:1069AC0006600D2EB4D913E628460DF10601FFF74B
:1069BC0013F900287FF45CAFBDF80660052EA7D94B
:1069CC0026E628460DF10601FFF706F900287FF4AC
:1069DC004FAFBDF806600D2E9AD933E628460DF15F
:1069EC000601FFF7F9F800287FF442AFBDF8066006
:1069FC00052E8DD946E628460DF10601FFF7ECF879
:106A0C0000287FF435AFBDF806600B2E80D951E617
:106A1C0028460DF10601FFF7DFF800287FF428AFB8
:106A2C00BDF80660032E7FF673AF62E628460DF1C3
:106A3C000601FFF7D1F800287FF41AAFBDF8066005
:106A4C00012E7FF665AF69E628460DF10601FFF7CA
:106A5C00C3F800287FF40CAFBDF80660012E7FF65A
:106A6C0057AF72E628460DF10601FFF7B5F800287E
:106A7C007FF4FEAEBDF80660012E7FF649AF7BE6D3
:106A8C0028460DF10601FFF7A7F800287FF4F0AEB9
:106A9C00BDF80660012E7FF63BAFDBE628460DF114
:106AAC000601FFF799F800287FF4E2AEBDF8066006
:106ABC00012E7FF62DAF75E628460DF10601FFF786
:106ACC008BF800287FF4D4AEBDF80660052E7FF657
:106ADC001FAF85E628460DF10601FFF77DF800286B
:106AEC007FF4C6AEBDF80660012E7FF611AF9FE6AF
:106AFC0070B5037904460D4682B0002B4AD00122B2
:106B0C008179036891428DF804200AD0102182719A
:106B1C008DF804101E6826B19B687F2001A9B04730
:106B2C0023685E68002E38D0012228209B680DF166
:106B3C000301B04760BB9DF90320194B1949681C30
:106B4C00002AA0FB030305FB01112273BDBF02F059
:106B5C007F02C2F59E62063202F2F6421944D31746
:106B6C00FCF7D0FA0023104AFCF7CCFAB0F1004F36
:106B7C0071F1000128BF6FF00040042205BAA0603B
:106B8C004FF4987120460DEB02030195FFF714F9B1
:106B9C0002B070BD082002B070BD0220F8E700BF43
:106BAC00F05A676635080F00A086010030B50278F0
:106BBC00002A52D02D4C0023A44601E0462B45D090
:106BCC000CF8012B10F8012F9E460133002AF5D149
:106BDC000EF102050EF1030C0EF104000EF1050E80
:106BEC002022E25473226255742204F80C203D22B8
:106BFC006329225426DD1E4A0533A2FB01025209E9
:106C0C00303204F80E201B4A03F1010EA2FB015096
:106C1C00C008A2FB0052D20802EB8202A0EB420099
:106C2C003030E0540022134BA3FB0103DB0803EBD1
:106C3C008303A1EB4301303104EB0E0304F80E1077
:106C4C005A7030BD0929EDDD7346DCE74FF04A0E72
:106C5C0049204FF0480C4725C2E74FF0040E0320A3
:106C6C004FF0020C13460125004CB9E7ECF0012063
:106C7C001F85EB51CDCCCCCC08B51D2009F00EFBFB
:106C8C001C224FF400710A4809F0E8FA1D228021F9
:106C9C00074809F0E3FA02224FF40071044809F0A6
:106CAC0011FBBDE8084002228021014809F00ABB13
:106CBC0080B0046070B515461C4686B0E3B1D9B1FE
:106CCC00102A19D88DF804000DF1050008F0A5F86C
:106CDC000121206809F04AFA2179206809F06EFA3E
:106CEC000123EA18206801A992B207F01DFC0546A1
:106CFC0030B9284606B070BD0325284606B070BDD5
:106D0C00206807F0F1FA012DF6D00125F1E700BF5C
:106D1C00F0B583B00D4616461C468DF8070043B3FC
:106D2C0039B3102A25D81868012109F01FFA2179E6
:106D3C00206809F043FA0023012220680DF10701B5
:106D4C0007F0F2FB07462068B7B9022109F00EFAEA
:106D5C002179206809F032FA294601232068B2B261
:106D6C0007F0F8FA054628B1206807F0BDFA012DA6
:106D7C0006D1032003B0F0BD07F0B6FA012FF8D00E
:106D8C000120F7E710B5044684B020B100210F486C
:106D9C00FEF754FD10B1002004B010BD0C232D21C2
:106DAC000A4801AAFEF73CFD0028F4D1A11E01AB54
:106DBC000A3418785A78023342EA002221F8022F5A
:106DCC008C42F6D1012004B010BD00BFCCF80120DC
:106DDC0010B50446A6B058B10021942201A807F0C2
:106DEC008AFF0F4801A9FFF767FB20B10C2802D0DE
:106DFC00002026B010BDBDF8043003F40843B3F5F1
:106E0C00084FF5D1DDE90B2301200A996260A360DC
:106E1C00029ABDF80C302160E260238226B010BDCE
:106E2C00CCF801202DE9F04F754D764C764E91B093
:106E3C0095E80700334603C4110C24F8022B21708B
:106E4C00002495E8070003C3704FDFF8C4A123F8B2
:106E5C00022B150C32201D703C708AF8004009F092
:106E6C00C5F9FFF709FF4FF4007122466948CDE9D7
:106E7C000C4409F0F3F922468021664809F0EEF93A
:106E8C0002224FF40071634809F01CFA022280219F
:106E9C00604809F017FA02224FF400715D4809F0BE
:106EAC00C5F9022280215B4809F0C0F9022009F0E3
:106EBC009DF94FF400710CAA564809F047F980214E
:106ECC0054480DAA09F042F9DDE90C31002B50D0E1
:106EDC0000295AD00322504BDFF84081DFF8409153
:106EEC001A7008F1020B18F8015B4E4BCDE90D44FA
:106EFC00C9F800308DF82C408DF8304089F80450DA
:106F0C000F94FFF7B9FE4FF4C8730D939DF83E3004
:106F1C000DA923F01F0343F0150342488DF83E30B2
:106F2C00ADF8385009F03EF93E4809F04BF92946C6
:106F3C003C4809F043F94B4601227F200BA9FFF78F
:106F4C00B9FE58B94B4601220CA9FFF7E1FE28B94E
:106F5C009DF83030EA2B8AF8003018D0D845C2D1D1
:106F6C0031489AF80010FFF721FE002011B0BDE85F
:106F7C00F08F39B90B46284A2C481370FFF716FED0
:106F8C000020F3E701231946F5E70221F2E710236D
:106F9C00482205930A93E4238DF80A208DF80B30D0
:106FAC004FF4807240234FF00108CDE906232049AD
:106FBC00204B3D70CDE90B1303F1AB63114D1E4C0F
:106FCC0003F56C33C533CDE908008DF807008DF857
:106FDC000900ADF80C000D930FCC0FC594E803001D
:106FEC00286016488DF8088025F8041FFEF7F8FB7A
:106FFC00044628B321460348FFF7D8FDC0E700BF7D
:10700C00140701103CF10120ECF00120CAF801201A
:10701C00C9F8012080B00460C8F801206854011040
:10702C00F8F80120003400603C0C0110200701101E
:10703C0000E8BA2E3D27D27D48070110CCF801207C
:10704C00D54CA5F114070FCC0FC794E80300DFF85B
:10705C004C93386029704846D14989F80480FEF772
:10706C00C9FB04460028C5D1CE4FA5F114040FCF9F
:10707C000FC43B682746238048461B0C07F8023F89
:10708C00FEF7FAFB04460028B4D1642009F0AEF8F0
:10709C004FF60473DFF810C3A5F11404A9F80630F9
:1070AC00BCE80F000FC4DCF80030484623801B0CF2
:1070BC003B70FEF76BFC044600289BD1DFF8ECE23A
:1070CC00A5F1140CBEE80F00ACE80F009EE8070019
:1070DC00ACE80300214648468CF80020FEF7AEFBD6
:1070EC000446002886D1B24CA5F1140C0FCCACE8A8
:1070FC000F0094E803004346CCF8000002AA298054
:10710C0048460621FEF77EFB044600287FF472AF4A
:10711C000A2009F06BF8DFF89CC2143DBCE80F00A4
:10712C000FC59CE8070085E8070021464846FEF796
:10713C00D1FB044600287FF45DAF9F4C103D0FCC73
:10714C000FC594E80F0085E80F0000214846FEF7B4
:10715C00EFFB044600287FF44DAF0A20974C09F052
:10716C0045F80FCCA5F1100CACE80F0094E8030027
:10717C0043462860A980484607210DF10902FEF715
:10718C0041FB044600287FF435AF0A2009F02EF8A5
:10719C00DFF82CC2A5F1100EBCE80F00AEE80F0012
:1071AC009CE80F0085E80F0021464846FEF7A0FC3E
:1071BC00044600287FF41EAFDFF808E2A5F1100C9E
:1071CC00BEE80F00ACE80F009EE80F00ACE807002B
:1071DC002146ACF8003048461B0CAB73FEF75EFD45
:1071EC00044600287FF406AFDFF8DCC1A5F1100ED1
:1071FC00BCE80F00AEE80F009CE8030085E8030034
:10720C0021464846FEF71AFB044600287FF4F2AEEE
:10721C006E4CA5F1100C0FCCACE80F0094E80300F9
:10722C00434628602971484666210DF10702FEF796
:10723C00E9FA044600287FF4DDAE654CA5F1100C8C
:10724C000FCCACE80F0094E803004346286029718A
:10725C00484667210DF10702FEF7D4FA04460028D0
:10726C007FF4C8AEDFF86CC1A5F11004BCE80F00C8
:10727C000FC49CE8070003C448462270FEF76AFC62
:10728C00044600287FF4B6AEDFF84CC1A5F110041B
:10729C00BCE80F000FC4BCE80F000FC4DCF80030D2
:1072AC004FF4805148462360FEF75AFD04460028EF
:1072BC007FF4A0AE494CA5F1100C0FCCACE80F003C
:1072CC0094E8030085E803004846FEF7F9FE0446FF
:1072DC0000287FF48FAE424C103D0FCC0FC594E8C4
:1072EC000F0007C5002148462B70FEF7F3FA044641
:1072FC0000287FF47FAEDFF8ECC0A5F11C08BCE8D9
:10730C000F00A8E80F00BCE80F00A8E80F00DCF89D
:10731C0000302146484688F80030FEF709FB044649
:10732C0000287FF467AE0A202F4C08F05FFF0FCCCB
:10733C00A5F11C0CACE80F000FCCACE80F0094E8E6
:10734C000300C8F8000088F8041048464FF4805138
:10735C00FEF706FD044600287FF44CAE234C1C3D82
:10736C008DF810000FCC0FC594E8070085E80700D6
:10737C0002214846FEF762FA044600287FF43AAE32
:10738C0001231421484604AAFEF74AFA04460028B1
:10739C007FF430AE2CE000BF60070110CCF8012068
:1073AC006C540110780701108C070110A007011014
:1073BC00BC070110D4070110F007011010080110D0
:1073CC0028080110480801106808011080080110F5
:1073DC0098080110B0080110CC080110F008011039
:1073EC0008090110280901104C0901107409011039
:1073FC009DF81030142143F006038DF810304846E8
:10740C00012304AAFEF7FEF9044600287FF4F2AD2E
:10741C0001231421484604AAFEF702FA0446002868
:10742C007FF4E8AD9DF8103003F00603062B01D075
:10743C000124DFE50123C448194604AAFEF7F0F93C
:10744C00044600287FF4D6AD01239DF81020194680
:10745C0042F006028DF81020BB4804AAFEF7D2F9C0
:10746C00044600287FF4C6AD0123B748194604AA88
:10747C00FEF7D6F9044600287FF4BCAD9DF8103019
:10748C0003F00603062BD3D14FF00409AF4DB04CDB
:10749C008DF812900FCC0FC594E8070003C5ADF81A
:1074AC0010902A800321049AA748FEF799FA044603
:1074BC0000287FF49FADDFF89CC2A5F11808BCE84A
:1074CC000F00A8E80F00DCF8003021469E48C8F8F1
:1074DC000030FEF7B3F9044600287FF48BAD9E4CC8
:1074EC00A5F1180C0FCCACE80F0094E803000123B5
:1074FC00C8F8000088F80410934875210DF10A02B1
:10750C00FEF780F9044600287FF474ADDFF84CC216
:10751C00A5F11804BCE80F000FC49CE80F0007C4C9
:10752C0024F8023B1B0C23702621012386480DF105
:10753C000B02FEF767F9044600287FF45BAD884B1D
:10754C00A5F1180A0FCBAAE807004A46AAF80030A2
:10755C004FF4F0717C4805ABFEF72EFC0446002876
:10756C007FF448AD7F4BA5F118040FCB07C4AAF8E4
:10757C0000301B0C8AF802304A4640F2F441724843
:10758C0006ABFEF719FC044600287FF433AD764CAD
:10759C00A5F1180C0FCCACE80F0023684A4688F80C
:1075AC00003040F2E461684809ABFEF705FC044684
:1075BC0000287FF41FAD6D4C183D0FCC0FC5236810
:1075CC004A4688F800304FF4DD615F4809ABFEF79E
:1075DC00F3FB044600287FF40DAD654C103D0FCC39
:1075EC000FC523684A462B7040F2EC61564809AB34
:1075FC00FEF7E2FB044600287FF4FCAC5D4BA5F1E2
:10760C0010080FCBA8E80700A8F800301B0C08F8EE
:10761C00023F4A464FF450614B4807ABFEF7CCFB98
:10762C00044600287FF4E6AC534BA5F110040FCBB5
:10763C0007C423801B0C88F800304A4640F60451DE
:10764C00414808ABFEF7B8FB044600287FF4D2ACE7
:10765C004A4BA5F110040FCB07C423801B0C88F8F0
:10766C0000304A4640F60851374808ABFEF7A4FBF9
:10767C00044600287FF4BEAC414BA5F110040FCB9F
:10768C0007C423801B0C88F800304A4640F60C5186
:10769C002D4808ABFEF790FB044600287FF4AAACFB
:1076AC00384BA5F110040FCB07C423801B0C88F8B2
:1076BC0000304A464FF45161234807ABFEF77CFB80
:1076CC00044600287FF496AC2F4BA5F110040FCB89
