:020000042000DA
:1030000000700120653200206D3200207D320020EA
:1030100000000000000000000000000000000000B0
:103020000000000000000000000000001905010081
:1030300000000000000000009D050100A90501003E
:103040008D3200208F320020133400209332002074
:103050009532002097320020993200209B320020C8
:103060009D3200209F320020A1320020A332002098
:10307000A5320020A7320020A9320020AB32002068
:10308000AD320020AF320020B1320020B332002038
:10309000B5320020B7320020B93200201D340020A4
:1030A000BD320020BF320020C1320020C3320020D8
:1030B000BD310020C7320020C93200203D3400203D
:1030C0000348854600F006F80048004765480020A0
:1030D000007001201CB50948009009480190054680
:1030E0000126009C05E0E36807CC33430C3C98477D
:1030F0001034AC42F7D3FFF7E7FF00002431002083
:103100003431002002E008C8121F08C1002AFAD199
:1031100070477047002001E001C1121F002AFBD157
:10312000704700001875002018750020E076000038
:103130001431002070B51D4E3078002834D0EFF3E4
:103140001085EFF3108072B619480068002802D08D
:103150008047002813D03078811E032912D2012421
:103160002046214603F0DEFB1248016804220A4390
:10317000026030BF0021204603F0D4FB0AE085F353
:10318000108870BD012805D10A48016804229143C6
:10319000016030BF08480068002803D03178022958
:1031A00000D1804785F3108870BDC0462CC7002031
:1031B0009CE2002010ED00E098E20020B0B582B063
:1031C0006D4600242C702046294603F0B1FB297877
:1031D000204603F0B3FB287800283DD0019402205C
:1031E00001A903F0B1FB1D4D01982860002833D0E0
:1031F0000024204603F0AEFB002808D0012003F095
:10320000AFFB0194022001A903F09EFBECE71448F8
:103210000268002A1DD02868017843781B025918DB
:1032200083781B04C918C3781B06C918001D904772
:103230000446022003F08EFB002803D0012003F097
:103240008FFBF6E70520214603F06CFB022003F01C
:103250008DFB002003F08AFB02B0B0BD3CC700200C
:1032600038C7002019488047194800477046EFF3D7
:103270000881EFF30982174B9847FEE77046EFF39A
:103280000881EFF30982144B9847FEE7FEE7FEE75B
:10329000FEE7FEE7FEE7FEE7FEE7FEE7FEE7FEE706
:1032A000FEE7FEE7FEE7FEE7FEE7FEE7FEE7FEE7F6
:1032B000FEE7FEE7FEE7FEE7FEE7FEE7FEE7FEE7E6
:1032C000FEE7FEE7FEE7FEE7FEE7FEE73935002012
:1032D000C13000201B34002011340020F0B51FB491
:1032E0000646002082B005464024019100901BE074
:1032F000019922460F46304600F079F8049A059B62
:10330000801A994110D310461946224600F05FF802
:10331000361A8F410197224601200021009F00F0BC
:1033200056F838184D4100902046641E0028DFDC16
:10333000019B00982946324607B0F0BD30B54343A3
:1033400051435C18010C130C0D465D432C1980B2DF
:1033500092B20546554351430A0C09044D19624186
:103360005843010C00044019514130BD03460B4342
:103370009B0703D009E008C9121F08C0042AFAD22B
:1033800003E00B780370401C491C521EF9D27047B1
:1033900070B50446002903D000202022012310E04C
:1033A000002801D00020C043C046C0460DE025469D
:1033B000D5408D4205D30D469540641B1D46954072
:1033C00040191546521E002DF1DC214670BD10B586
:1033D000202A04DB0146203A9140002010BD914094
:1033E00020239C1A0346E3401943904010BD10B5BA
:1033F000202A04DB0846203AD040002110BD0B46AD
:10340000D340D0402024A21A91400843194610BD51
:10341000FEE780B503F0B0FA80BDFEE710B582B0DC
:1034200001AC204603F0AEFA019803F0B1FA6078DF
:10343000000601D500F090FF02B010BDF0B585B0D8
:10344000002503953B4C04AE2046314603F0A6FA16
:1034500030880821014001200190C607002907D0CB
:10346000204603F0A1FA642003F07AFAE5480660EA
:10347000032103AA204603F09DFAD948046803E01B
:1034800003F006F9DF480660002C25D02046A46A28
:10349000017D0029F4D1417D0129F1D0817D0229EE
:1034A000F2D102A90746F24803F08AFA3846BA6810
:1034B000FB6802999A4204D29142E5D3994204D31F
:1034C000E2E7994201D39142DED3C1690029D7D006
:1034D000006A88473846D3E70096E9480668002E18
:1034E00018D00021029A0D46F54804E01D46F44824
:1034F000B66A002E10D0B37D022BF9D1B368CC0789
:1035000005D0AC1A9F1AA742F0D32B46EEE71D4612
:103510000199EDE72946EA48C90709D003998D4288
:1035200006D003212A4603F051FA0098ED490860BD
:1035300005B0F0BD003005600148024901607047E8
:1035400008ED00E00030002082B0282003F044FAAB
:103550000A2003F041FA0B2003F03EFA0C2003F09E
:103560003BFA0D2003F038FA0E25284603F034FA12
:103570000F2003F031FA102003F02EFA352003F06B
:103580002BFA112003F028FA1226304603F024FA11
:10359000002420462146224603F024FA03F028FAAC
:1035A00003F02CFA00F030F901F0B2F86448654AF3
:1035B000294601F0C9F800F0A1FE00F04FFD00F02F
:1035C00059FF61A03146224600F062FD00F01AFB6F
:1035D00001F012F801F0ACF81721204603F014FABC
:1035E00001200190C005A3490860FF2109065B4A3C
:1035F00013688B431360A149086002205849594A57
:1036000001F016F9584D5F4F03E03C70012003F0C4
:1036100001FA00F0ABFF00282DD003F001FA0646B6
:1036200003F004FA2978002927D04B21890041436F
:10363000514808187D21C900FFF7AAFE4D490968C5
:10364000711A814229D302F0D9FF202802D30198B0
:10365000474908704648007801281ED100F07CFFD9
:1036600000281AD002F0CAFF1F2828D8404804704A
:1036700002F0C8FF4DE02C700FE002F0BFFF002801
:1036800003D002F0C5FF02F0BDFF3848046038489F
:103690000470019828703748066038780128B5D141
:1036A00000F05EFF0028B0D000F056FF0028ADD03B
:1036B0003549097800F068FF0028A7D1A5E702F096
:1036C0009DFF202822D300F051FF00281ED000F0DB
:1036D00043FF00281AD006462021284802F0B2FFF6
:1036E000202813D120223046244900F067FF00280B
:1036F0001CD01E490868401C0860052806D300F04D
:103700003BFF2C701A48047018480460019818494F
:10371000087002F073FF1F2804D81548047002F0E7
:1037200071FFBAE7019812490870B6E7202002F04D
:103730006FFF0E490C60124A116808181060E8E724
:1037400038B30020C147002053757065725F536D18
:103750006172745F5261636B6574000014E400E091
:103760002D48002025480020A4830020A8830020A5
:10377000AC830020A0830020E703000035EB00208D
:1037800020EB00201875002094E20020B0B503461D
:103790001020002B22D0012920D8EFF31084EFF362
:1037A000108572B69D7D002D02D084F31088B0BDC7
:1037B00000209862DA6119760121997530490A680A
:1037C000002A02D10B600021D9622E490A68002A22
:1037D00001D09362DA620B6084F31088B0BDC046FA
:1037E000C4C7002001461020002909D08A7D002A84
:1037F00006D001224A750020C875D107394A1160E8
:103800007047C04600E200E0F0B581B0052003F04B
:10381000E3F82B4D00242846214603F00DF901273B
:10382000F80714490860FF263106134A13688B43D2
:103830000321890759181160104908601F2120468B
:1038400003F0E2F87902284603F0FCF80821284644
:1038500003F0FEF82846314603F000F9284603F04D
:1038600003F90748046007480460204601B0F0BD32
:103870000030056080E200E01CE400E000E100E0D0
:10388000C4C70020C8C7002010B51023002815D0D9
:10389000847D002C12D04262416001461031084AFA
:1038A0000446104603F08CF80220E075FF20023039
:1038B000A0820120C0070B4908600023184610BDF4
:1038C0000030056001461020002909D08A7D002AB9
:1038D00006D001204875C875C0070249086000205D
:1038E0007047C04600E200E084B0104C104D04E088
:1038F000621C81B2104603F0BDF828680022D34351
:1039000001A903F0BDF80028F2D101A803F0BEF828
:1039100002990029F1D00398002802D003F0BCF8E6
:10392000EBE7204603F0BEF8E7E7C0460260000080
:103930009875002080B50A460021FFF727FF414215
:10394000484180BD80B5FFF74DFF4142484180BDF1
:1039500080B5FFF799FF4142484180BD80B5FFF730
:10396000B1FF4142484180BDF0B591B07648012198
:1039700003F09EF80026002800D1E1E0734803F030
:103980009DF8002800D1DBE0714803F09DF8002885
:1039900000D1D5E06F480124214603F09BF80028B0
:1039A00000D1CDE0042000906B486C4A10210B46FA
:1039B00003F096F8002800D1C2E06948062103F020
:1039C00095F8002800D1BBE06648022103F094F886
:1039D000002800D1B4E0250200206349634A13188F
:1039E00059601D8149191C307028F8D100206049A8
:1039F000604A1318596028261E8128311C3070280F
:103A0000F7D15D480B905CA041688268C0680E9059
:103A10000D920C910BA803F075F8002800D18EE0F0
:103A200059490C310822594B0B608D804120800090
:103A30001B183031521EF7D1019455490C310C221C
:103A4000544B0B608E8030312C33521EF9D1BF2184
:103A5000C943514A514B5F18CC243A51D0243D53AD
:103A600012183031F7D14E480C3008214D4A02600F
:103A7000868030302C32491EF9D14BA102A8024673
:103A8000D8C9D8C2D8C9D8C203F042F8002856D045
:103A90004D480C3008214D4A0580031F1A60521909
:103AA0002030491EF8D148480822294603F036F84C
:103AB000002844D000204649464A115013189D80E2
:103AC000491910301028F8D042480222294603F044
:103AD0002BF80026002833D03F480BAA114698C87F
:103AE00098C198C898C14020082103F023F83B49A9
:103AF0000860002824D03A4802AA114658C858C184
:103B000058C858C158C858C136480026314603F035
:103B100017F835490860002812D0344803F016F829
:103B200003F01AF8F435284603F01CF87D20400114
:103B30002F4903F01DF803F021F8019E00E0002654
:103B4000304611B0F0BDC046A0890020708C002026
:103B5000388B00201085002068900020789000208D
:103B6000B894002008900020E89E0020588D002086
:103B700018AF002088900020588D0020000104001C
:103B80008890002028000400888E0020F8A60020DD
:103B90007892002018B10020E8A20020C88D0020F3
:103BA000F8900020B8AF0020888E002000010800A7
:103BB0007892002028000C00C88D0020000104002D
:103BC000F89000202800080010840020E8940020CD
:103BD000E89C00208089002000730020C4B30020EE
:103BE000DC720020014800208CB30020CD6500204D
:103BF000AC0D000058480088081A41424141C800F5
:103C00007047C046F0B583B03A4900253A4B284684
:103C10002A4601F0AFF80126002867D000950195EB
:103C200081204300354C284621462A4601F036F8CB
:103C300000285BD0484908800D2001903048009052
:103C4000611C00200223024601F028F800284DD014
:103C50000E2701972B480090A11C0025022328461F
:103C60002A4601F01BF8002840D00297122701973E
:103C700025480090E11C022628462A46334601F0DA
:103C80000DF8019721480090211D28462A46334609
:103C900001F004F801971E480090611D28462A464D
:103CA000334600F0FBFF01971A480090A11D2846FB
:103CB0002A46334600F0F2FF029801901648009021
:103CC000E11D28462A46334600F0E8FF0720019010
:103CD000124800902D34284621462A46334600F0EB
:103CE000DDFF01F00DF802F04FFF2E46304603B025
:103CF000F0BDC0460A18000018730020232A0000F7
:103D00007C7300208C7300204073002054730020CB
:103D10009C73002068730020307300200175002020
:103D200010B50D480088814214D10820002B10D016
:103D30000A490A68496819711A700C0EDC710C0C7A
:103D40009C71090A5971110ED970110C9970110AE0
:103D5000597010BD002010BDD0C7002000E2002027
:103D600010B5421E622A00D936E1481C5200C046F6
:103D70007A449288520097446200BF009200E900A2
:103D8000F8009D00C900D4000901FF002F012F0198
:103D90002F012F012F012F012F012F012F012F01A3
:103DA0002F012F012F012F012F012F012F012F0193
:103DB0002F012F012F017700AD0080006E002F0131
:103DC000DA00E00018012F012F012F012F012F0130
:103DD0002F012F012F012F012F012F012F012F0163
:103DE0002F012F012F012F012F012F012F012F0153
:103DF0002F012F012F010F012F012F0168008F00CC
:103E000025016B007D007400BC0071002B012F01A7
:103E100028012F012F012F012F012F012F012F0129
:103E20002F012F012F012F017A002F012F012F01C8
:103E30002F012F012F012F012F019A00E600887812
:103E4000C978090209188448C4E009786C48C1E0BF
:103E500009786848BEE009887048BBE00978614885
:103E6000B8E009786148B5E009886F48B2E00978A0
:103E70006448AFE009785E48ACE0881C00220C463C
:103E8000114602F087FE014620786278120212186D
:103E9000634802F085FE10BD097858489AE00A7917
:103EA0004B791B029C18CB780278674835E009787B
:103EB00055488FE001784278120251188278C37811
:103EC0001B029A188379C0790002C3185A4802F07D
:103ED0006DFE10BD881C00220C46114602F05AFEF1
:103EE000014620786278120212184E4802F058FEFD
:103EF00010BD09783C486DE0CA780178554802F059
:103F00005BFE0020012102F05DFE10BD8878CA78BA
:103F1000120214184B790A794648214602F058FEDD
:103F200010BDCA7801784A4802F046FE10BD0878F4
:103F300049780902091838484CE08A7809783548E8
:103F400002F03AFE10BD0978384843E008794A7912
:103F5000120212183A480C46114602F08BFD211D40
:103F60003848082202F03AFE10BD0B89CA888988B9
:103F7000324802F01BFE10BD08784A78120213186E
:103F80008878C97809020A18294817E0017840782A
:103F9000000241182D481DE00B78C8784042C2B29B
:103FA0001A48194602F008FE10BD08784A78120235
:103FB0001318887AC97A09020A181548194602F0B6
:103FC00013FE10BD09780C4804E00978034801E0AD
:103FD0000978034802F04EFD10BDC0462BA000003A
:103FE0002AA0000029A0000028A0000027A00000AF
:103FF00026A0000025A0000024A0000023A00000AF
:1040000022A000002CA0000033A0000021A000008E
:1040100016A0000015A0000014A0000013A00000CE
:1040200012A0000011A0000010A0000034A00000A9
:104030000FA000000EA000000DA000000CA00000CA
:104040000AA000000BA0000009A0000008A00000CA
:1040500007A0000005A0000003A0000080B50248F2
:1040600002F0C8FD80BDC046613D00202F48008899
:10407000411A4842484170472C480088884205D17F
:104080000120002B01D000211970704700207047DB
:10409000F0B583B014460D460146202D00D32025EF
:1040A0001F4F38462A46FFF761F9200A1D4E7070EF
:1040B00034700320C10200201B4B024600F05AFE60
:1040C0000124002828D000970195152045020020E2
:1040D0000227294602463B4600F0E0FD00281BD09F
:1040E00000960197691C0026304632463B4600F098
:1040F000D5FD002810D000960196A63581204300FA
:1041000030462946324600F0C9FD002804D0074950
:10411000088000F0F5FD3446204603B0F0BDC046EF
:104120000CC7002008C7002024730020CCC7002043
:1041300000207047F0B597B00124E1024548464A97
:1041400010252B4600F074FE44A00BA94CC84CC1AE
:104150004CC84CC147A002AA1146C8C8C8C1C8C8AB
:10416000C8C12421284602F04BFD484908600028B8
:1041700012D047A011AA114668C868C168C868C1B2
:104180000820802102F03CFD47490860002807D143
:1041900003204003401C01E00320400302F082FCA6
:1041A00040200C210BAA02F0C5FC40490860002801
:1041B0001CD03FA002AA114668C868C168C868C17F
:1041C00068C868C14348002102F0BAFC424908604F
:1041D000411E05468D41002833D0802002F016FD97
:1041E0003E4802F019FD002D03D127E00025002DE7
:1041F00024D026020096102128220823204602F00F
:1042000011FD68363648314602F012FD3320810137
:10421000344802F013FD34480221302202F014FD2C
:1042200002F018FD314802F01BFD314802F01EFD7E
:10423000304802F021FD304802F024FD284617B036
:10424000F0BD03204003093002F02CFC002DD0D13A
:10425000F4E7C04640CD002044C70020CA730020C8
:104260000000000064750020340000009C750020F0
:1042700000060000047400200000000008E2002096
:1042800024000000C8C400204002000034C7002001
:10429000DD730020000000002CE20020240000005C
:1042A000C8C000200004000030C70020987500201E
:1042B000F7730020010000001C750020440000007E
:1042C000A07B00200008000020000000000000008B
:1042D00000000000E938002060750020F56400202F
:1042E000D8CB002040D50020B083002035390020F5
:1042F000513900205D39002045390020B0B501F06A
:10430000A5FF00240221204602F07EFB0F48042274
:104310000260FF2000040E490B6883430B600D48C8
:1043200002600F200321072302F0B2FC00F018F80E
:104330000125FFF719FB002806D0FFF7FBFE002838
:1043400002D000F059FC25462846B0BD80E200E0CE
:1043500000E400E000E100E080B502F09FFC80BDD9
:1043600010B52B4802F0A0FC2A4802F0A3FC2A4812
:1043700002F0A6FC294802F0A9FC294802F0ACFC96
:10438000284802F0AFFC284802F0B2FC274802F0AF
:10439000B5FC274802F0B8FC264802F0BBFC2648D2
:1043A00002F0BEFC254802F0C1FC254802F0C4FC26
:1043B000244802F0C7FC244802F0CAFC234802F05B
:1043C000CDFC234802F0D0FC224802F0D3FC224866
:1043D00002F0D6FC214802F0D9FC214802F0DCFCB6
:1043E000204802F0DFFC204802F0E2FC1F4802F007
:1043F000E5FC1F4802F0E8FC0020C44320462146AB
:1044000002F0E8FC2046214602F0EAFC10BDC0465E
:10441000D3BC0200B3BC0200BBBC0200CBBC020098
:10442000C3BC0200B95501006956010061270200B2
:104430000127020015270200710B02005D24020013
:10444000312602009D2502008D260200F92502007A
:10445000C52602007D270200752702007D0B0200A1
:10446000D9E9030001E803003DE70300C5EA0300C2
:104470009DEA0300F0B58DB0022002F0B7FC0924DC
:1044800001AE0625204631462A4602F0B5FC3178B9
:1044900070780A460243120605D10BA8264981808E
:1044A00026480B9012E0C2B20BA8C27001AA537941
:1044B0004371937883700B090901C9180171D17890
:1044C0003F23194041701179194001700BA802F087
:1044D00099FC1B4807A90A46C8C8C8C203881380AC
:1044E000807890700026304602F092FC06A98D700C
:1044F000812040000880032530462A4602F08EFCC9
:1045000001AF7C7013203870B81C0EA11222FEF788
:104510002DFF14223046394602F086FC304602F068
:1045200089FC05211022284602F08AFC0121304630
:1045300002F048FB0DB0F0BD03BA000055404D033A
:10454000CC72002053757065725F536D6172745F39
:104550005261636B657400005E4800887047C04616
:104560005D480178012008407047C04658480178EE
:10457000012008407047C046554800210170554849
:10458000018055480170704710B504460120002C89
:1045900011D0514A1278D20701D1022010BD4D4AE4
:1045A0001288944207D1044A1170564801880123A9
:1045B000204602F04BFC10BD0075002010B50446EB
:1045C0000120002C16D013460A46002912D0002BD9
:1045D00010D03F490978C90701D1022010BD3D49DB
:1045E0000988002906D08C4204D14448018820461D
:1045F00002F02CFC10BDC046F0B583B03448002555
:10460000057034480580344805700124E1023348C0
:10461000334A102300F00CFC324E334B284631460F
:104620002A4600F0A7FB00284FD0D72001902F4842
:104630000090F01C81B20025022328462A4600F093
:104640002DFB002841D02A49088000950195412082
:104650008700B01C81B228462A463B4600F01EFB6C
:10466000002832D02349088002F0F6FB2249088056
:1046700000282AD0009501953B460C33701C81B26E
:1046800028462A4600F00AFB00281ED01B49088055
:1046900002F0E2FB1A490880002816D00095019527
:1046A0000E37301D81B228462A463B4600F0F6FA06
:1046B00000280AD01349088002F0CEFB1249088076
:1046C000002802D000F01CFB2C46204603B0F0BDB1
:1046D00034EB0020AE83002024EB0020A0E2002079
:1046E000A0EA0020F0FF00000875002028740020D8
:1046F0002EEB002030EB00202AEB002032EB0020D4
:104700002CEB002026EB002028EB00207047000057
:104710000348044901600448044901607047C046E9
:10472000300B00208D6600202C0B0020B5480020A7
:104730000148024901607047280B002041470020D2
:1047400080B5FEF7F7FC80BD70B51024002828D096
:10475000002926D0144B1960144E306014480260B2
:104760000125284602F002F90324204602F0FEF853
:104770003168204602F0D6F80024E143062002F01A
:10478000D1F828070B4908600B490A68C023134376
:104790003F2293430B60094908601C21204602F028
:1047A00033F9204670BDC046D4C7002040C7002062
:1047B00038C7002080E200E01CE400E000E100E0F7
:1047C000002815D0002913D0022908D001290FD1C3
:1047D0000278AA2A01D1074808E0022908D1017805
:1047E000AB2905D1407804490870044801210170C3
:1047F00000207047AC83002094E200201875002050
:1048000082B0074C20680022D343694602F038F991
:104810000028F7D10199009802F024FBF2E7C04686
:10482000C4B3002080B502F023FB80BD0020704798
:1048300010B5094B19600949087009480260012048
:104840000024214602F06EF803210A2205232046A7
:1048500002F01EFA10BDC0469CE200202CC70020CA
:1048600098E200208AB009A001AC21462CC82CC1D6
:104870002CC82CC12CC82CC102F000FB0C48002114
:10488000224602F05DF902F0FFFAFEE71F740020F5
:104890000100000050E2002044000000D8C70020C2
:1048A00000040000180000000000000000000000EC
:1048B00049350020FEE70000F0B583B01C461646DF
:1048C0000F46029009891348089D2A4602F08CF988
:1048D000F888C00513D402943C8A0E48401C214637
:1048E000324602F081F9A01B81B2A94200D80546E8
:1048F000AAB2786981190298FEF738FD07E0398974
:10490000009502983246234600F0E4FD0546A8B221
:1049100003B0F0BD15510000F0B585B01D46164638
:104920000F46012101701478384602F0B3FA0028CE
:1049300000D16EE0009701950746C8379D490546AE
:10494000481C214602F096F8D8350295601E512881
:1049500000D9D9E04000C0467844808840008744B0
:1049600051005D006F0095009A00A100A700AE0005
:10497000B400BB00C000C700CC00D300D300D900F6
:10498000DF00E600EC00D300D300F300F9000001E3
:104990000501D3000C01D30013011A01D300D30089
:1049A000D300D300D300D300D300D300D300D3006F
:1049B000D300D300D300D300D300D300D300D3005F
:1049C000D300D300D300D300D300D300D300D3004F
:1049D000D300D300D300D300D300D300D300D3003F
:1049E000D300D300D300D300D300D300D300D3002F
:1049F000D300D300D300D300D300D300D300D3001F
:104A0000D3001E01029C20463146019A02F048FA6A
:104A1000CBE0684802F046F805B0F0BD38463146B4
:104A200002F044FA0028029C00D0BEE004A90098DD
:104A30000880388848800A20042202F03DFAB4E059
:104A40000121304602F03EFA7A889042014600D3B6
:104A500011463A88914202D2172900D339803A7818
:104A600054498B1CC1B2184602F0A6F80220B87156
:104A70003988009C204602F02BFA03A90C80388864
:104A800048800A20042202F017FA8DE038463146A9
:104A900002F024FA88E0029C20463146019A02F096
:104AA00023FA82E038463146019A02F023FA7BE08D
:104AB000029C20463146019A02F022FA75E03846FF
:104AC0003146019A00F0ECFA6EE0029C2046314635
:104AD000019A02F01BFA68E03846314600F0D6FB36
:104AE00062E0029C20463146019A02F015FA5CE031
:104AF0003846314600F066FA56E0029C20463146C0
:104B0000019A02F00FFA50E006223846214602F0E0
:104B10000FFA49E038463146019A02F00FFA43E0B5
:104B2000029C20463146019A02F00EFA3DE03846DA
:104B30003146019A00F042FC36E0029C20463146A4
:104B4000019A02F007FA30E038463146019A00F047
:104B5000D1F929E0029C20463146019A02F000FA80
:104B600023E03846314600F093F91DE0029C2046D0
:104B70003146019A02F0FAF917E0029C20463146CC
:104B8000019A02F0F9F910E0029C20463146019AA0
:104B900002F0F8F909E0384600F0D4FB04E03846AA
:104BA0003146019A00F0DDFB029C204602F0F0F94C
:104BB00005B0F0BD14520000014802494160704741
:104BC000BC0A00201949002010B50C46C988C90547
:104BD00003D5218900F066FC208210BD01480249FE
:104BE0000161704764090020ED4B00200121017034
:104BF00000487047FFFF000080B5114802F096F8AA
:104C0000104802F099F8104802F09CF80F4802F0A2
:104C10009FF80F4802F0A2F801F01AFA01F04AF8E2
:104C200001F032F800F09CFC01F034F801F012F8C9
:104C300000F09CFCFFF7D2FFFFF7BEFF80BDC0462F
:104C40006960002035610020A16000209161002092
:104C5000FD600020B0B501468B4A1088002810D0B6
:104C600013888A4A1468002204E00834521C9A42CD
:104C7000184608D225888D42F7D865888D42F4D32E
:104C800002E0002200E01846D100804B1B68591852
:104C90004968002900D01046B0BDC046F0B581B0CB
:104CA0001C4617460D461549079B069A00280DD04D
:104CB0000D46002F1BD03846214602F06FF90646FC
:104CC000681C1022394601F089FF0AE028460F4689
:104CD000214602F069F90646B81C294601F0CAFED1
:104CE0003D46E81C3146224601F07EFF03E028469F
:104CF00001F0D8FE0026304601B0F0BDA5520000FC
:104D0000F0B581B060480188002912D002885F4860
:104D10000368002004E00833401C9042114606D28C
:104D20005C88002CF7D11C88002CF4D002E01146DE
:104D300000E000200E4C884206D181B2204601F0EE
:104D400099FE002001B0F0BDC60002F033F905461F
:104D50004E4F38688019458002F032F90246601CD7
:104D6000294601F041FF38688019408801B0F0BD44
:104D7000A3520000F0B583B001920E46424D29883F
:104D80000024002902930FD0404A12681788002F90
:104D90000AD02988083201231C468B4204D2631CA6
:104DA00017880832002FF7D18C4205D1A1B21F48D5
:104DB00001F060FE002735E01C4D002813D02E4680
:104DC000019D002D2AD00520C102284602F0FEF8E0
:104DD0000746B01C10222946354601F0FFFE002F81
:104DE0000DD100271EE00520C102304602F0F4F884
:104DF0000746E81C314601F03DFE002FF1D0E000EF
:104E0000224909680F520818029941600021418027
:104E1000281DA2B2394601F0E7FE03E0701C01F044
:104E200041FE0027384603B0F0BDC046995200004D
:104E3000F0B581B0134D00281FD0002A1DD00C46BC
:104E400000291AD0002B18D00F490B800F490A6097
:104E500000210F460E46FF00D151761CF7B29F424B
:104E6000F9D3002200922146134602F0BBF8681CD9
:104E7000214601F0FFFD01B0F0BD284601F012FE11
:104E800001B0F0BD9752000028B300202CB30020E1
:104E900070B582B00E460446102002F0A9F8002832
:104EA0000AD005466189A088727800230093019397
:104EB000012A06D0032205E00D4801F0F3FD02B0FF
:104EC00070BD022200F026FB010607D0C3B21821F4
:104ED0000022284602F092F8024602E019202870CB
:104EE0000122A088294602F08FF802B070BDC046AA
:104EF00023510000F0B58BB004920C460546012109
:104F0000204601F0DFFF07460321204601F0DAFFCB
:104F100003902E462888001D80B202F069F8002810
:104F200013D0054605A8394602F074F8002811D0C0
:104F300005A8C088010701D5C00512D4162128464E
:104F40003A4602F06DF8024628E01D4801F0AAFD3D
:104F50000BB0F0BD162128463A4602F067F802462B
:104F60001CE005A9304602F067F8002801D003468E
:104F70000EE0B0880499491F89B2621D0092019128
:104F800001223946039B00F0C5FA01060CD0C3B2DA
:104F9000162128463A4602F031F80246B0882946E2
:104FA00002F032F80BB0F0BD28462146049C2246A0
:104FB000FEF7DCF91720287077812246EEE7C0461D
:104FC00022510000F0B589B00D4604460121284663
:104FD00001F078FF06460321284601F073FF029096
:104FE00003A8314602F016F807462088001D80B25B
:104FF00001F0FEFF00280CD00546002F0ED003A8BC
:10500000C088800710D40C212846324602F01AF8D6
:105010003BE0224801F046FD09B0F0BD0C212846D6
:10502000324602F003F830E003A9204602F004F80B
:10503000002806D003460C212846324601F0DEFF48
:1050400023E0A08803AF3946FFF7BEFD388A029AF5
:10505000824205D90C212846324601F0F9FF14E0BE
:10506000801A411C2088814203DD1018401E03A9CC
:1050700008820798801A81B2A08800916B1C03A94E
:10508000FFF71AFC0D212970401CA18882B2084646
:10509000294601F0B9FF09B0F0BDC0461F5100001C
:1050A000F0B591B014460E460746012130460991ED
:1050B00001F008FF05460321304601F003FF0246D8
:1050C00071480A9529460546089201F08DFD7279CE
:1050D000681C214601F088FD07973888001D80B2C2
:1050E00001F086FF002804D00746082C06D31020C4
:1050F00005E0A81C01F0D6FC11B0F0BD022006901E
:105100000A9A0899501E80B288420AD2701D0590F2
:105110000BA801F0A3FF00260396029609980490BD
:105120000FE00821384601F081FF9EE00BA9079CA3
:10513000204601F081FF002834D00390099C002C08
:1051400075D10BA801F090FF002870D00BAC204661
:1051500001F090FF2289A188E81C01F045FD0E981E
:10516000017840780002401882B2E188281D01F0E1
:105170003BFD20890028E1D000240A998842DED333
:1051800008998842DAD80BA80599069A01F078FFA9
:105190000028D4D00BA8C0888007C7D43004CED153
:1051A0000D9ECCE7A0880BA9FFF70EFD0F98801C81
:1051B000049989B200220392022904D382B2029B8D
:1051C0009BB29342BAD1012903D17870049B5B1C36
:1051D00001E0049B0298029080B299B20A182088DC
:1051E0008242049306D90229A8D8001F0BAA108274
:1051F000801C78700BAC2289384601F047FF079875
:105200008088218A00910499891C049189B27B18B5
:10521000002203922146FFF74FFB0446681D2146FA
:1052200001F028FC049820180490039C87E7049957
:1052300088B2022802D30920387017E003990806C3
:1052400006D0CBB2082138460A9A01F0D7FE0CE00E
:10525000300405D0B2B20821384601F0F3FE04E074
:10526000082138460A9A01F017FF0146A81D8CB2A2
:10527000214601F0FFFB079880883946224601F05D
:10528000C3FE11B0F0BDC04617510000F0B587B0A5
:105290000A4604460121104601F014FE064601A804
:1052A000314601F0B7FE07462088001D80B201F0AC
:1052B0009FFE00280CD00546002F0ED001A8C08804
:1052C000800710D40A212846324601F0BBFE2EE0AA
:1052D0001B4801F0E7FB07B0F0BD0A212846324623
:1052E00001F0A4FE23E001A9204601F0A5FE00285C
:1052F00006D003460A212846324601F07FFE16E01A
:10530000A08801AE3146FFF75FFC2088318A8142D8
:1053100002D3401E01A90882A08801A90A8A00922E
:105320006B1C0022FFF7C8FA0B212970401CA188D2
:1053300082B20846294601F067FE07B0F0BDC046BC
:105340001E51000080B582B00189002907D00023DA
:105350000381808800930193042200F0DBF802B0FF
:1053600080BDF0B589B015460C46074601212046A0
:1053700001F0A8FD064603A8314601F04BFE0028C7
:105380000CD04120800003A9C9880140814205D189
:1053900003A9384601F050FE002801D009B0F0BD45
:1053A000B888E91E89B2E21C0092019100223146C0
:1053B000134600F0AFF809B0F0BD0000F0B58BB0B7
:1053C00003920C46074601260846314601F07AFD55
:1053D000014605A8049101F01DFE0546102001F0CC
:1053E00007FE00280CD0002D0FD005A9CA88110790
:1053F0003D4613D412210446049A01F011FE1AE02E
:10540000274801F04FFB0BB0F0BD12210446049A6F
:1054100001F00CFE214606463D460EE005A9D205E8
:1054200011D4098AC91C039B99420CD2122104464B
:10543000049A01F037FE21460646A888324601F05C
:10544000E3FD0BB0F0BD002AD4D5074605A92846D8
:1054500001F0F2FD002805D0034612213C463846F3
:10546000049A13E0A8880399C91E89B2E21C00922D
:1054700001910022049C2146134600F04BF80106DE
:1054800009D0C3B2122122463C46384601F0B6FD8F
:1054900039460646D1E7132039463870CDE7C04675
:1054A00021510000B0B50C4605460846FFF7D2FB77
:1054B000014629480288002091420AD0C900274AA3
:1054C0001268511849680A68002A02D02846214605
:1054D0009047B0BDF0B581B01C4615460E46074654
:1054E0000846FFF7B7FB01461B480288002091429F
:1054F0000ED02346C900194A1268511849684C68F1
:10550000002C05D006980090384631462A46A04720
:1055100001B0F0BDF0B583B01C4615460E460746F7
:105520000846FFF797FB01460B480288002091428E
:1055300010D02346C900094A1268511849688C687E
:10554000002C07D0099808990091019038463146FF
:105550002A46A04703B0F0BD28B300202CB300209A
:1055600008480149C1647047915900200920400151
:105570000449054A0A50E2480021044A0260416099
:105580007047C046500B0020CD610020ED4900005F
:10559000F0B587B00546D8482E18452000012818D8
:1055A0000290F8482B5C0391497B9768D0682C46A1
:1055B00050340278002B45D0002965D0092A00D04C
:1055C000B1E0FF2109020F40092109028F4200D0FA
:1055D000FCE0027A04A90A72027943791B029A1844
:1055E0008379C5792D02EB181B049A18059202786D
:1055F00043781B029A188378C0780002C018000410
:1056000080180490481C01F053FD07460D46012008
:1056100030700026039A967210208143B9482F30CB
:105620003840029B03C3517BB448401C01F022FA6E
:10563000B64A3A4051208543218830462B4601F036
:105640003DFD55E1002970D0092A00D1CAE0072AA2
:1056500000D008E1FF231B021F40012673029F4276
:1056600000D015E140780E2800D041E100260398D3
:105670008672A248401D01F0FDF921881A203246A9
:10568000334601F01BFD33E10E2A00D09CE0FF21E0
:105690000902394009231B02994200D0E7E0027A4F
:1056A00004A90A72027943791B029A188379C47992
:1056B0002402E3181B049A180592027843781B020F
:1056C0009A188378C0780002C018000480180490EB
:1056D000481C01F0EDFC0191894A0ACA894A0090F0
:1056E000084011402F2404400A191027BB432846C4
:1056F00001F0EAFC002800D1F7E00246F84301215E
:105700003170814991610399D161019B03400098F7
:105710007C4E30400443029804604360284601F008
:10572000D9FC0026E4E00126E2E0082A00D09CE053
:10573000FF210902394009231B02994200D0C1E030
:10574000027A04A90A72027943791B029A188379B2
:10575000C4792402E3181B049A180592027843784E
:105760001B029A188378C0780002C01800048018C1
:105770000490481C01F09CFC0191614A0ACA614AEC
:105780000090084011402F2404400A191027BB4301
:10579000284601F099FC002800D1A8E00246F84311
:1057A00001213170584991610399D161019B0340F6
:1057B0000098544E304004430298046043602846E9
:1057C00001F088FC002693E0012691E02846039C26
:1057D000214601F085FC0026A672617B474801F056
:1057E00049F985E0FF2109020F4009210902434BD5
:1057F0008F425AD1027A04A90A72027943791B02B4
:105800009A188379C5792D02EB181B049A18059212
:10581000027843781B029A188378C0780002C01877
:10582000000480180490481C01F042FC07460D4615
:10583000012030700026039A96721020814331486F
:105840002F303840029B03C3517B2C48C01D01F010
:1058500011F92E4A3A4051208543218830462B4683
:1058600001F02CFC44E0012642E0012640E02846FD
:10587000039D294601F034FC204CA01C394601F060
:1058800035FC0026AE72697BE01C01F0F3F82FE0D6
:105890002846039C214601F023FC0026A672617B6A
:1058A0001648001D01F0E6F822E02846039C214638
:1058B0001D4601F015FC0026A672617BA81D01F0B3
:1058C000D9F815E02846039C214601F009FC0B4D50
:1058D00028460830394601F009FC0026A672617B93
:1058E0000935284601F0C6F802E0022600E002264B
:1058F000304607B0F0BDC04649040000CE36000077
:1059000030B3002000CF87F7A98002002FCF87F7A0
:1059100070B5002810D00D4600290DD0002A0BD0FC
:10592000D168097800240E290FD0082927D11549FC
:10593000405C002823D10CE0162049210024224697
:10594000234601F0D9FB204670BD0E49405C00287B
:1059500015D001242C730026EE72FF20043028811C
:10596000304601F0CFFB03C50748EE806E716E61D3
:10597000AE61E861AC700548314601F07BF8204625
:1059800070BDC0465103000091550020CD36000087
:1059900010B5044600F026FD002802D00C2101209D
:1059A00006E000F0F9FC002801D1014600E00C21DE
:1059B0002070084610BD000010B50A46002911D01D
:1059C0000446906B00280DD0107C072811D00628C3
:1059D00016D005281DD110480068D060104600F090
:1059E00023FD13E08520C1001C20002301F084FB6F
:1059F00010BD09480068D060104600F019FD05E0B0
:105A000005480068D060104600F018FD01202070A5
:105A100010BD0020207010BD50080020B0B50D460C
:105A200000290FD00446A86B00280BD0287C07283B
:105A30000FD0062812D0052817D12846114600F0AD
:105A4000F4FC0FE01C200A4900232A4601F054FB15
:105A5000B0BD2846114600F0EEFC03E02846114692
:105A600000F0F6FC01202070B0BD00202070B0BD19
:105A70008D04000010B50A46002918D00446906B2A
:105A8000002814D0107C072817D0062823D005281A
:105A900031D140480178D0684843184909688842A4
:105AA00000D80146D160104600F0C0FC20E01C2068
:105AB0001349002301F020FB10BD36480178D0685F
:105AC00048430E490968884200D80146D160104613
:105AD00000F0B2FC0CE02F480178D0684843074939
:105AE0000968884200D80146D160104600F0CFFC1A
:105AF0000120207010BD0020207010BD540800202F
:105B000053040000B0B50D46002919D00446A86B17
:105B1000002815D0287C072819D0062826D005286B
:105B200035D1E8681B490978FDF732FC1A49096844
:105B3000884200D30146E960284600F078FC23E063
:105B40001C20164900232A4601F0D6FAB0BDE868A9
:105B500010490978FDF71CFC0F490968884200D3F9
:105B60000146E960284600F068FC0DE0E868094954
:105B70000978FDF70DFC08490968884200D3014601
:105B8000E960284600F096FC01202070B0BD00209E
:105B90002070B0BD5C08002058080020B50400004B
:105BA000B0B50446012500F085FB002801D0284649
:105BB00008E000F017FC002801D0012002E000F00E
:105BC000EBFB054620702846B0BD70B504460C2698
:105BD000012500F0A3FB00280BD100F010FC0028E9
:105BE00007D100F0E6FB0546002801D12E4600E073
:105BF0000C262570304670BD70B504460C26012574
:105C000000F08CFB00280BD100F0F9FB002807D135
:105C100000F0CFFB0546002801D12E4600E00C26FF
:105C20002570304670BD10B5044600F077FB0028A3
:105C300003D100F0E4FB002803D0002020700C20EA
:105C400010BD00F0B6FB00212170002800D00C2010
:105C500010BD0000152000011249074A0A505320C8
:105C60008000064A0A502920C000054A0A505120E7
:105C70008000044A0A507047055B00201D5A00202E
:105C8000755A0020B959002006480149016670473D
:105C9000A15B002003480449044A054B8363C263A7
:105CA00001647047500B0020275C0020CB5B002074
:105CB000F95B002070470000B0B584B0002808D020
:105CC00004468168022001F023FA002804D004B0C1
:105CD000B0BD042004B0B0BDE389A289607C014658
:105CE00001F01CFA0028F2D16269A369217C607C72
:105CF00001250095019002900025284601F014FA34
:105D00000028E4D1206A01F015FA0028DFD1A18B28
:105D1000606A01F015FA0028D9D106480570627C46
:105D200003CC01F013FA0028D1D101F015FA28466E
:105D300004B0B0BD0C0D002070B5012606702748D8
:105D400000780024002801D0204670BDEFF31085B4
:105D5000EFF3108072B601F005FA00280CD0344C35
:105D60002078002804D11F4801F002FA0120207099
:105D700085F31088012070BD2F49084668380068F7
:105D80002B4A1278002A1DD030401BD0052208680B
:105D90000B68984204D0531E12061A46F7D1FF2210
:105DA000110613D023490968814213D90C4A12887D
:105DB00085F31088081A5109884200D80026344615
:105DC000204670BD85F31088204670BD85F310888D
:105DD000204670BD85F31088204670BD5F09002005
:105DE00022080020FFFFFF1FB0B501210170EFF373
:105DF0001084EFF3108072B60D4D2878002813D070
:105E00000C4800680C490968814205D2491D81424D
:105E100004D201F0B3F905E0642001E04B208000DA
:105E200000F09EFD0020287084F31088B0BDC046AD
:105E30005B09002080000040E8010040B0B584B05C
:105E4000002808D004468168042001F061F9002888
:105E500004D004B0B0BD042004B0B0BDE389A28971
:105E6000607C014601F05AF90028F2D16269A36909
:105E7000217C607C01250095019002900025284638
:105E800001F052F90028E4D1206A01F053F900280A
:105E9000DFD1A18B606A01F053F90028D9D103CC7E
:105EA000627A01F071F90028D3D10348057001F03E
:105EB00071F9284604B0B0BD9C0D002070B584B0C7
:105EC000002808D004468168062001F021F9002846
:105ED00004D004B070BD042004B070BDE389A28971
:105EE000A17C607C01F01AF90028F2D16269A369F3
:105EF000217C607CA57C01260096019002950025FE
:105F0000284601F011F90028E3D1206A01F012F9C6
:105F10000028DED1A18B606A01F012F90028D8D1E7
:105F200003CC627A01F012F90028D2D1034805703F
:105F300001F036F9284604B070BDC0469D0D002022
:105F4000B0B584B0002808D004468168032001F071
:105F5000DFF8002804D004B0B0BD042004B0B0BD08
:105F6000E389A289607C014601F0D8F80028F2D1CB
:105F70006269A369217C607C0125009501900290F3
:105F80000025284601F0D0F80028E4D1206A01F06D
:105F9000D1F80028DFD1A18B606A01F0D1F8002888
:105FA000D9D103CC627A01F0EFF80028D3D10348AD
:105FB000057001F0FBF8284604B0B0BDBC0D002010
:105FC00070B584B0002808D004468168052001F02F
:105FD0009FF8002804D004B070BD042004B070BD48
:105FE000638A228AA17D607D01F098F80028F2D1B1
:105FF000A17DE06801F0E0F80028ECD1A269E36936
:10600000217D607DA57D01260096019002950025E9
:10601000284601F089F80028DDD1606A01F08AF88D
:106020000028D8D1218CA06A01F08AF80028D2D1AA
:1060300003CCA27B01F0A8F80028CCD1034805705E
:1060400001F0C0F8284604B070BDC046BD0D002068
:10605000024803498164034941657047200D0020CF
:10606000E95D0020395D002070B50546554E306869
:10607000002801D0012070BD01F0AAF82846FFF7E2
:106080001BFE0446002801D0204670BD0348306046
:1060900003CD01F0A3F8204670BDC046842702005E
:1060A000F0B581B00446474F3868002801D001267A
:1060B0001EE001F08DF803CC637A00252A46083CE7
:1060C00001F092F803C42068627A2946083C01F086
:1060D00091F8A0602046FFF7B1FE0646284601F081
:1060E0008FF8002E04D10448386003CC01F076F814
:1060F000304601B0F0BDC046D427020070B5054659
:10610000304E3068002801D0012070BD01F060F8E9
:106110002846FFF7D3FE0446002801D0204670BD74
:106120000348306003CD01F059F8204670BDC046E9
:10613000E4270200F0B581B00446224F38680028F9
:1061400001D001261EE001F043F803CC637A00255C
:106150002A46083C01F048F803C42068627A2946C0
:10616000083C01F047F8A0602046FFF7E9FE06462C
:10617000284601F045F8002E04D10448386003CCCD
:1061800001F02CF8304601B0F0BDC046F427020003
:1061900070B505460B4E3068002801D0012070BD57
:1061A00001F016F82846FFF70BFF0446002801D03F
:1061B000204670BD0448306003CD01F00FF8204642
:1061C00070BDC046C00D002004280200B0B50123F8
:1061D0000370D06804780020162C35D87123DB00BA
:1061E000CB18C0467C4424796400A744151A2D0BB3
:1061F0002D2D2D2D102D0B2D1F2D102D2D2D2D2D39
:10620000242D29000846194601F000F8B0BD0846C3
:106210001946FFF77DFBB0BD0846194600F0FCFFAC
:10622000B0BD0846194600F0FDFFB0BD084619464E
:1062300000F0FEFFB0BD0846194600F0FFFFB0BDFC
:106240000846194601F000F8B0BD000080B501F025
:1062500001F801F005F801F009F8002800D080BD30
:1062600001F00AF8054801F00DF8022000F0BEFD2B
:106270000B2001F00DF8002080BDC04620F5010084
:10628000084909680A4A1278824203D80020002986
:1062900007D105E03522D20042438818002900D1F9
:1062A00008467047608C0020014800787047C0465F
:1062B0002AB30020F0B581B0FFF7F6FF002827D001
:1062C000044600250126E8B2FFF7DAFF00280FD0C8
:1062D00099300178002907D04078002804D00020A8
:1062E000374600280FD114E0304600280BD110E0CB
:1062F000912001011E202A46234600F0FDFE0027C2
:106300003846002805D06D1CAC42DCD1002700E0E7
:1063100000270120384001B0F0BD0000F0B581B089
:10632000FFF7C2FF002828D0044600250126E8B266
:10633000FFF7A6FF00280DD08D30017B002905D086
:10634000417B002902D00078002811D03046002877
:106350000AD115E01E200C492A46234600F0CCFE47
:106360000027384600280BD06D1CAC42DFD106E078
:10637000002037460028F7D102E0002700E0002780
:106380000120384001B0F0BD260900000148006836
:106390007047C046648C002080B5FFF7F7FF0028E7
:1063A00005D03321C900405C411E884180BD0020DA
:1063B00080BD80B5FFF7EAFF0146002000290AD022
:1063C0003322D2008A181278002A04D0913108783A
:1063D000411E4842484180BD014800687047C046A0
:1063E000688C002080B5FFF7F7FF002805D0472113
:1063F0008900405C411E884180BD002080BD80B581
:10640000FFF7EAFF0146002000290CD04722920046
:106410008A181278002A06D0A531097802220A4388
:10642000032A00D1012080BD704770477047704734
:10643000172181747047704770477047FF2174318E
:10644000826B642353548374501819214170704730
:1064500070B50A460446FF2108462030A36B1E187B
:10646000B92040001D18185C002807D0FF2A00D86A
:10647000D1B268781A2200F036F8687030780028B7
:1064800001D0012000E00220285CA07470BDB0B5EE
:106490000446FF20A16B024620328A5C002A08D005
:1064A00074300D18287801211A2200F01CF8287089
:1064B000A074B0BDB0B50446FF20A16B02462032E7
:1064C0008A5C002A08D074300D18287832216422A2
:1064D00000F003F82870A074B0BD4018904200D8B6
:1064E0000246D0B270475318834200D2421AD0B24B
:1064F00070470000F0B585B00646EFF3058002ACAA
:10650000A6702180E27000250395002800D1ED439C
:106510002A4F002A2BD00193242A15D80092294F04
:106520003868002100F0BAFE0390002808D1244FFB
:1065300038680024214600F0B1FE0390002836D0D0
:106540003868049003980DE0802A27D800921C4FE9
:1065500038680024214600F0A1FE0390002823D0D3
:10656000396804910199009AFCF700FF134FF81C59
:10657000314600F07FFA1448006802A9002632462E
:106580002B4600F091FE44424441002812D03A1DAF
:1065900081B2104600F06EFA34460BE0B81C11468A
:1065A00000F068FA002405E00448401C00E00348BD
:1065B00000F078FA204605B0F0BDC0460460000047
:1065C00030C7002034C700209875002080B582B005
:1065D000019100900022EFF30580002801D01346BE
:1065E00000E0D34304480068694600F05DFE414284
:1065F000484102B080BDC046C4B3002022480068B4
:106600007047C046014800210170704714F0022015
:1066100070B5002813D01C4C2168884200D3206834
:10662000261F31680A187D21C90005461046FCF76F
:10663000AFFE284631602168491B216070BD0020F3
:1066400070BDC046F0B581B005460020002D18D0C1
:106650000C46002915D00C4E3068844200D33468B3
:10666000301F0168002C0BD000277018007CE85503
:10667000481C7D21C900FCF78BFE7F1CBC42F4D175
:10668000204601B0F0BDC04608F00220FEE7000041
:10669000F0B585B00446407D217D01290CD1EFF392
:1066A0001081EFF3108272B60022227562682260B8
:1066B000626A226281F3108800280AD0EFF3108109
:1066C000EFF3108272B600226275E27DA27581F34B
:1066D0001088A17D02291DD000295AD1EFF3108026
:1066E000EFF3108172B6E16A002901D0A26A8A62D2
:1066F0002C4A1368A34201D1A36A13602A4A136883
:10670000A34200D1116080F310880020A062E062F3
:1067100005B0F0BD00280BD02769029720680090D3
:1067200003A800F0C7FD0398012813D11B4D14E006
:10673000207E01282BD100200290174802A900F0EA
:106740003FF920680090029F04A800F0B3FD049870
:106750000128EBD000F0B4FD0546114806880580FD
:106760000197E7607D2042030027009839463B46A9
:10677000FCF7E4FD002E01D0721955082A463B466D
:10678000FCF7ACFD01990818A06005B0F0BD012030
:10679000A07505B0F0BDC04600300560127A00005B
:1067A000CEC70020C4C70020C8C7002038480088D2
:1067B000081A424242415548008880B2081A4342B2
:1067C000434113435248008880B2081A4242424172
:1067D0001A4301D0022070472E480088814201D11F
:1067E000D72070472C480088091A48424841704712
:1067F000B0B5049C022C09D3002B07D04348008875
:10680000814203D10020587045480AE0022C0CD385
:10681000002B0AD03E480088814206D100205870E3
:106820003E48007818700220B0BD022C08D3002B1F
:1068300006D017480088814202D100205870F1E745
:1068400014480088814210D1D62A1ED814488118D5
:10685000D720801A80B2A04200D3204604461846B2
:106860002246FCF783FD2046B0BD0B48058800207A
:10687000A94209D1002B07D0002A05D1002C03D052
:106880000648007818700120B0BD0020B0BDC04699
:106890002AEB00202EEB002026EB002000750020C4
:1068A0002874002010B50B4602460399029802296D
:1068B0000CD300280AD0154C2488A34206D11649CF
:1068C0000A8000780121014015480DE002290ED30D
:1068D00000280CD00E4C2488A34208D10E490A800F
:1068E0000078012101400D480170002010BD094CC5
:1068F0002488A34207D1084B1A80002803D000291E
:1069000001D0FDF703FF002010BDC0462CEB002096
:1069100028EB002030EB0020AE83002024EB002089
:1069200034EB002003B40148019001BD39C40100DB
:1069300003B40148019001BDF5C2010003B4014850
:10694000019001BD8DC1010003B40148019001BD5A
:10695000D1C3010003B40148019001BD79C3010016
:1069600003B40148019001BD51F8020003B401488D
:10697000019001BDE9C3010003B40148019001BDCC
:10698000610E020003B40148019001BD45A301005E
:1069900003B40148019001BDADA0010003B401485A
:1069A000019001BD65BF010003B40148019001BD24
:1069B000BDBD010003B40148019001BD1DBF010030
:1069C00003B40148019001BD45BF010003B4014873
:1069D000019001BDCDBF010003B40148019001BD8C
:1069E0005572010003B40148019001BDADC301001F
:1069F00003B40148019001BD43D7010003B401482D
:106A0000019001BD41F9020003B40148019001BDAC
:106A100089C2010003B40148019001BDBD0D010010
:106A200003B40148019001BD0510010003B4014801
:106A3000019001BD2910010003B40148019001BD7E
:106A400079C0010003B40148019001BDBDBE010041
:106A500003B40148019001BD81BE010003B40148A7
:106A6000019001BDF9BD010003B40148019001BDD1
:106A7000D9C0010003B40148019001BDFDF6020038
:106A800003B40148019001BDF912010003B40148AB
:106A9000019001BDB9A0030003B40148019001BDFC
:106AA000A511010003B40148019001BDE9F60200FF
:106AB00003B40148019001BD3594020003B40148BC
:106AC000019001BD25AA020003B40148019001BD57
:106AD00049A0020003B40148019001BDCD39020074
:106AE00003B40148019001BD7DDC020003B40148FC
:106AF000019001BD11F4020003B40148019001BDF1
:106B000015D0020003B40148019001BD192C020008
:106B100003B40148019001BD1959020003B40148B2
:106B2000019001BD5129020003B40148019001BD4B
:106B30002982020003B40148019001BD0114010043
:106B400003B40148019001BD1D23010003B40148B5
:106B5000019001BDC5DF020003B40148019001BDF1
:106B60006118020003B40148019001BD2D2002000C
:106B700003B40148019001BDFD23020003B40148A4
:106B8000019001BD6982020003B40148019001BD7A
:106B9000B13C030003B40148019001BD03F90200B8
:106BA00003B40148019001BD61F7020003B401483C
:106BB000019001BD25F7020003B40148019001BD19
:106BC000C5F7020003B40148019001BDC9230300C9
:106BD00003B40148019001BD39F7020003B4014834
:106BE000019001BDD9F7020003B40148019001BD35
:106BF00011F7020003B40148019001BDD50503005F
:106C000003B40148019001BD9D12010003B4014885
:106C1000019001BD51EC030003B40148019001BD96
:106C2000E105030003B40148019001BD6D180300A4
:106C300003B40148019001BDB95A030003B40148EF
:106C4000019001BDDD59030003B40148019001BD6D
:106C50008518030003B40148019001BDAF2803006B
:106C600003B40148019001BDFD05030003B40148D0
:106C7000019001BD0506030003B40148019001BD68
:106C8000F505030003B40148019001BDED050300C3
:106C900003B40148019001BD89A6010003B4014875
:106CA000019001BD7923020003B40148019001BDA8
:106CB0007520020003B40148019001BD3920020093
:106CC00003B40148019001BD4520020003B401480E
:106CD000019001BD8120020003B40148019001BD73
:106CE0006920020003B40148019001BD5120020057
:106CF00003B40148019001BD5D20020003B40148C6
:106D0000019001BD31E0020003B40148019001BDD2
:106D100019E0020003B40148019001BD25E0020022
:106D200003B40148019001BDB9DF020003B401487A
:106D3000019001BDD1DF020003B40148019001BD03
:106D4000F5DF020003B40148019001BDDDDF020060
:106D500003B40148019001BD01E0020003B4014801
:106D6000019001BDE9DF020003B40148019001BDBB
:106D70000DE0020003B40148019001BD49E00200AA
:106D800003B40148019001BD3DE0020003B4014895
:106D9000019001BDADDF020003B40148019001BDC7
:106DA0005DE9030003B40148019001BD75E90300EA
:106DB00003B40148019001BD69E9030003B401482F
:106DC000019001BD51E9030003B40148019001BDE8
:106DD00045E9030003B40148019001BD49E2030005
:106DE00003B40148019001BD55E2030003B401481A
:106DF000019001BD0559010003B40148019001BD96
:106E0000F57E010003B40148019001BD792703001C
:106E100003B40148019001BDE523030003B4014818
:106E2000019001BD8D23030003B40148019001BD11
:106E30005D28030003B40148019001BD9F280300B1
:106E400003B40148019001BDEB28030003B40148DD
:106E5000019001BD253D030003B40148019001BD2F
:106E6000513A030003B40148019001BDA5BC0200E2
:106E700003B40148019001BD7D08010003B401483D
:106E8000019001BD4D10010003B40148019001BD06
:106E9000E110010003B40148019001BDD952030083
:106EA00003B40148019001BD3930030003B4014827
:106EB000019001BD2944030003B40148019001BDC4
:106EC000B105030003B40148019001BD99A7030077
:106ED00003B40148019001BDA530030003B401488B
:106EE000019001BD4946030003B40148019001BD72
:106EF0008931030003B40148019001BDED44030052
:106F000003B40148019001BD0931030003B40148F5
:106F1000019001BDE132030003B40148019001BDBD
:106F2000A934030003B40148019001BD35320300C8
:106F300003B40148019001BD814E030003B4014830
:106F4000019001BD3549030003B40148019001BD22
:106F50006932030003B40148019001BDB13503005B
:106F600003B40148019001BDC331030003B40148DB
:106F7000019001BDDD30030003B40148019001BD63
:106F80008D35030003B40148019001BD593503005C
:106F900003B40148019001BD0936030003B4014860
:106FA000019001BDF50B030003B40148019001BD40
:106FB000410C030003B40148019001BDE10C030042
:106FC00003B40148019001BDF10C030003B4014872
:106FD000019001BD910C030003B40148019001BD73
:106FE000A30C030003B40148019001BD110D03007F
:106FF00003B40148019001BDC15D030003B4014821
:10700000019001BD3166030003B40148019001BD48
:10701000ED16030003B40148019001BD190F0300F0
:1070200003B40148019001BD8766030003B4014821
:10703000019001BD5766030003B40148019001BDF2
:107040004D17030003B40148019001BD7B660300A6
:1070500003B40148019001BD6366030003B4014815
:10706000019001BD1D10030003B40148019001BD52
:107070001510030003B40148019001BDAF0F0300D8
:1070800003B40148019001BD2910030003B4014875
:10709000019001BDD1A7030003B40148019001BDD7
:1070A0004B66030003B40148019001BD6F66030005
:1070B00003B40148019001BD57EF020003B4014839
:1070C000019001BDDDE0030003B40148019001BD62
:1070D000FD7A020003B40148019001BDCD520200C7
:1070E00003B40148019001BD0552020003B40148F8
:1070F000019001BD4DF7020003B40148019001BDAC
:107100006942010003B40148019001BD31EE020063
:1071100003B40148019001BDA117020003B4014866
:10712000019001BDDD10020003B40148019001BDD2
:10713000F115020003B40148019001BD4917020096
:1071400003B40148019001BD4913020003B4014892
:10715000019001BD7115020003B40148019001BD09
:107160009D0F020003B40148019001BDE11A020025
:1071700003B40148019001BD1D18020003B4014889
:10718000019001BD4D18020003B40148019001BDFA
:107190009112020003B40148019001BDF1110200F7
:1071A00003B40148019001BD3512020003B4014847
:1071B000019001BDD513020003B40148019001BD47
:1071C0006114020003B40148019001BD15140200CE
:1071D00003B40148019001BD1124020003B4014829
:1071E000019001BDE922020003B40148019001BDF4
:1071F0003D1E020003B40148019001BD751E02004E
:1072000003B40148019001BDC91D020003B4014847
:10721000019001BD2178020003B40148019001BD35
:107220008543020003B40148019001BDB12D020065
:1072300003B40148019001BD11F1020003B40148FB
:10724000019001BDC961020003B40148019001BD74
:10725000E9C0020003B40148019001BD5D52010084
:1072600003B40148019001BD5D58010003B4014819
:10727000019001BDD953010003B40148019001BD43
:10728000E955010003B40148019001BD195A0100FC
:1072900003B40148019001BD91B2010003B401485B
:1072A000019001BD4D11010003B40148019001BDE1
:1072B0003514010003B40148019001BDED720100D5
:1072C00003B40148019001BDBD720100A000A000FF
:1072D000000200000000000000070000C173002051
:1072E0000100000048B3002044000000C8B800209E
:1072F0000008000020000000000000000000000066
:10730000AE7300200000000090B3002034000000A5
:10731000C8B3002000050000F53B0020213D0020FF
:10732000000000006D400020794000203141002025
:10733000FE006578706572696D656E74616C000041
:107340004669726D77617265205265766973696FFF
:107350006E00000048617264776172652052657644
:107360006973696F6E0000004D616E7566616374CC
:1073700075726572204E616D650000004D6F646529
:107380006C204E756D626572000000005365726975
:10739000616C204E756D626572000000536F6674FB
:1073A00077617265205265766973696F6E006C6CE7
:1073B000635F7461736B5F6D73675F71756575652E
:1073C000006C6C635F7461736B00626C6553746115
:1073D000636B5F6D73675F717565756500626C6582
:1073E000537461636B5461736B5F4D656D506F6F68
:1073F0006C5F6C6F6E6700626C65537461636B5495
:1074000061736B00626C65537461636B5461736B81
:107410005F4D656D506F6F6C5F73686F7274006164
:1074200070705F6D61696E00555549443A2030783F
:10743000464646342070726F7669646573206261D7
:107440007474657279206C6576656C2E0A555549A1
:10745000443A203078464646312070726F7669642F
:1074600065732049434D323039343820444D502023
:107470002F204149202F2064656275672066726164
:107480006D65732C203332206279746573207065CA
:1074900072206672616D652E0A555549443A203056
:1074A00078464646322070726F766964657320753F
:1074B000706C6F616420696E737472756374696F48
:1074C0006E732E0A555549443A2030784646463365
:1074D0002070726F766964657320726561642D6FC8
:1074E0006E6C792073657276696365207573616768
:1074F0006520696E666F726D6174696F6E2E0A0029
:107500006401000000001001AD670020F167002059
:08751000A56800200000000046
:040000052000326540
:00000001FF
