:020000041000EA
:100000004B2A110200000000A4030000EEC3A6E981
:100010007EEEE78880B500F087F90020002100F02F
:100020000DF8292000F00FF8202000F011F800F062
:1000300033F900F013F800F025F980BD4CF2B93C1B
:10004000C0F2000C604747F67D1CC0F2000C604710
:1000500047F6D12CC0F2000C6047000080B54FF08D
:10006000A040012100F075F900060BD1032000F03B
:1000700075F9000606D1012000F075F9000604BFED
:10008000002080BD00F074F94FF47A7000F075F92B
:10009000012080BD2DE9F04381B019B343F2B83897
:1000A0000F4606464FF0FF344FF00009C2F2000839
:1000B0003D46B7F5807F28BF4FF480754FF0A040D4
:1000C000314642462B46CDF8009000F05BF960B90E
:1000D00040462946224600F05AF904467F1B2E442A
:1000E000E6D103E04FF0FF3400E00124204601B0E8
:1000F000BDE8F08310B582B004464FF0000C4FF01D
:10010000A0404FF4805122462023CDF800C000F0DB
:1001100039F9000622D120461C214FF0FF3200F0B1
:1001200036F9E169814219D1E078112816D1A07819
:10013000022813D1E168B1F5002F0FD8606846F2AC
:100140007872C4F26A72904208D1A068FFF7A2FFE9
:100150002169401A18BF012002B010BD012002B071
:1001600010BD00002DE9F0410C4605460E184FF079
:100170000008B4F5803F07D3A8B228B94FF4803700
:100180000321102021E000BFB4F5004F08D328461A
:100190006FF3DF3020B94FF4004702210F2014E045
:1001A00029466FF31F31200BB1FA81F1B8EB143FF0
:1001B00018BF0120490901404FF008004FF4807733
:1001C00018BF0C2018BF4FF4805725FA00F082B2F8
:1001D0004FF0A04047F2305300F0DEF800060BD19C
:1001E0003D44B542A4EB070424BF0020BDE8F081E4
:1001F000B4F5803FC0D2C7E700F0BAF84FF47A7088
:1002000000F0BBF80120BDE8F08100002DE9F047C7
:1002100082B04FF000098AB343F2B83814460E4654
:100220000746C2F2000840F6B83A00BF2546B4F5CA
:10023000807F28BF4FF480754FF0A040394642467A
:100240002B46CDF8009000F09DF890B94FF0A040FB
:10025000314642462B46CDF80090CDF804A000F080
:10026000A0F848B92F44641B2E44DFD14FF0000999
:1002700004E04FF0010901E04FF00109484602B0E7
:10028000BDE8F08780B542F20400C1F200000068CA
:1002900000F08CF880BD0000B0B588B06846FFF76C
:1002A00029FF08B101243CE0DDE90501FFF75AFF11
:1002B00038B100F05DF84FF47A7000F05EF8012478
:1002C0002FE0DDE902020599FFF7A0FF38B100F049
:1002D0004FF84FF47A7000F050F8012421E00399B0
:1002E0000598FFF7D7FE0499884213D14FF0A0403C
:1002F0000021102247F23053002400F04DF805464B
:1003000000F036F828060CD04FF47A7000F035F87B
:10031000012406E000F02CF84FF47A7000F02DF87C
:100320000124204608B0B0BDEC20C6F205000168EB
:100330007F2221F002010160016821F004010160C7
:100340006FF0030143180431342943F8D82CF9D154
:10035000704748F6F57CC0F2000C604747F2613CFC
:10036000C0F2000C604747F21D3CC0F2000C604731
:1003700047F6717CC0F2000C604744F2717CC0F219
:10038000000C604748F69D2CC0F2000C604744F218
:10039000C17CC0F2000C604748F6A10CC0F2000C12
:1003A000604749F2D90CC0F2000C604744F62D0CAE
:1003B000C0F2000C604700000000000000000000D8
:1003C000000000000000000000000000000000002D
:1003D000000000000000000000000000000000001D
:1003E000000000000000000000000000000000000D
:1003F00000000000000000000000000000000000FD
:1020000000700220C13100102D3200103F3200104C
:102010005132001051320010513200100000000007
:10202000000000000000000000000000D1020000DD
:102030005132001000000000750300008103000011
:102040005132001051320010513200105132001044
:102050005132001051320010513200105132001034
:102060005132001051320010513200105132001024
:10207000513200105132001085670010896700103E
:102080008D67001051320010513200105132001093
:1020900051320010513200105132001051320010F4
:1020A00051320010513200105132001051320010E4
:1020B00051320010513200105132001051320010D4
:1020C00051320010513200105132001051320010C4
:1020D000916700105132001051320010513200103F
:1020E00051320010513200105132001051320010A4
:1020F0005132001051320010513200105132001094
:102100005132001051320010513200105132001083
:102110005132001051320010513200105132001073
:0C212000513200105132001051320010FA
:10212C0010F8012B11F8013B012A28BF9A42F7D075
:10213C00D01A704781F0004102E000BF83F00043E9
:10214C0030B54FEA41044FEA430594EA050F08BF46
:10215C0090EA020F1FBF54EA000C55EA020C7FEA0A
:10216C00645C7FEA655C00F0E2804FEA5454D4EB87
:10217C005555B8BF6D420CDD2C4480EA020281EA51
:10218C00030382EA000083EA010180EA020281EA89
:10219C000303362D88BF30BD11F0004F4FEA0131DB
:1021AC004FF4801C4CEA113102D0404261EB4101EA
:1021BC0013F0004F4FEA03334CEA133302D0524270
:1021CC0063EB430394EA050F00F0A780A4F101042C
:1021DC00D5F1200E0DDB02FA0EFC22FA05F2801866
:1021EC0041F1000103FA0EF2801843FA05F359414C
:1021FC000EE0A5F120050EF1200E012A03FA0EFCCB
:10220C0028BF4CF0020C43FA05F3C01851EBE371F4
:10221C0001F0004507D54FF0000EDCF1000C7EEB11
:10222C0000006EEB0101B1F5801F1BD3B1F5001F4F
:10223C000CD349085FEA30004FEA3C0C04F101046E
:10224C004FEA445212F5800F80F09A80BCF1004F97
:10225C0008BF5FEA500C50F1000041EB045141EA19
:10226C00050130BD5FEA4C0C404141EB0101013CE2
:10227C0028BFB1F5801FE9D291F0000F04BF0146D1
:10228C000020B1FA81F308BF2033A3F10B03B3F1A3
:10229C0020020CDA0C3208DD02F1140CC2F10C0233
:1022AC0001FA0CF021FA02F10CE002F11402D8BF91
:1022BC00C2F1200C01FA02F120FA0CFCDCBF41EA5D
:1022CC000C019040E41AA2BF01EB0451294330BD2C
:1022DC006FEA04041F3C1CDA0C340EDC04F1140409
:1022EC00C4F1200220FA04F001FA02F340EA0300E0
:1022FC0021FA04F345EA030130BDC4F10C04C4F126
:10230C00200220FA02F001FA04F340EA0300294605
:10231C0030BD21FA04F0294630BD94F0000F83F44F
:10232C00801306BF81F480110134013D4EE77FEA32
:10233C00645C18BF7FEA655C29D094EA050F08BF7E
:10234C0090EA020F05D054EA000C04BF194610465F
:10235C0030BD91EA030F1EBF0021002030BD5FEAA3
:10236C00545C05D14000494128BF41F0004130BDCB
:10237C0014F580043CBF01F5801130BD01F000451F
:10238C0045F0FE4141F470014FF0000030BD7FEA92
:10239C00645C1ABF194610467FEA655C1CBF0B468D
:1023AC00024650EA013406BF52EA033591EA030FA4
:1023BC0041F4002130BD00BF90F0000F04BF00219C
:1023CC00704730B54FF4806404F132044FF00005CF
:1023DC004FF0000150E700BF90F0000F04BF002148
:1023EC00704730B54FF4806404F1320410F00045AE
:1023FC0048BF40424FF000013EE700BF42004FEAA9
:10240C00E2014FEA31014FEA02701FBF12F07F4325
:10241C0093F07F4F81F06051704732F07F4208BFDC
:10242C00704793F07F4F04BF41F40021704730B5E3
:10243C004FF4607401F0004521F000411CE700BF2F
:10244C0050EA010208BF704730B54FF000050AE0B2
:10245C0050EA010208BF704730B511F0004502D5B3
:10246C00404261EB41014FF4806404F132045FEAB5
:10247C00915C3FF4D8AE4FF003025FEADC0C18BF5E
:10248C0003325FEADC0C18BF033202EBDC02C2F150
:10249C00200300FA03FC20FA02F001FA03FE40EAE2
:1024AC000E0021FA02F11444BDE600BF70B54FF0E6
:1024BC00FF0C4CF4E06C1CEA11541DBF1CEA1355C4
:1024CC0094EA0C0F95EA0C0F00F0DEF82C4481EA2C
:1024DC00030621EA4C5123EA4C5350EA013518BF4C
:1024EC0052EA033541F4801143F4801338D0A0FB39
:1024FC0002CE4FF00005E1FB02E506F00042E0FBE6
:10250C0003E54FF00006E1FB03569CF0000F18BFEB
:10251C004EF0010EA4F1FF04B6F5007F64F5407493
:10252C0004D25FEA4E0E6D4146EB060642EAC62126
:10253C0041EA55514FEAC52040EA5E504FEACE2E93
:10254C00B4F1FD0C88BFBCF5E06F1ED8BEF1004F96
:10255C0008BF5FEA500E50F1000041EB045170BD12
:10256C0006F0004646EA010140EA020081EA030156
:10257C00B4EB5C04C2BFD4EB0C0541EA045170BD52
:10258C0041F480114FF0000E013C00F3AB8014F1CC
:10259C00360FDEBF002001F0004170BDC4F1000415
:1025AC00203C35DA0C341BDC04F11404C4F1200596
:1025BC0000FA05F320FA04F001FA05F240EA0200F1
:1025CC0001F0004221F0004110EBD37021FA04F627
:1025DC0042EB06015EEA430E08BF20EAD37070BDE1
:1025EC00C4F10C04C4F1200500FA04F320FA05F040
:1025FC0001FA04F240EA020001F0004110EBD37042
:10260C0041F100015EEA430E08BF20EAD37070BDB1
:10261C00C4F1200500FA05F24EEA020E20FA04F38A
:10262C0001FA05F243EA020321FA04F001F0004139
:10263C0021FA04F220EA020000EBD3705EEA430EAA
:10264C0008BF20EAD37070BD94F0000F0FD101F0D9
:10265C000046400041EB010111F4801F08BF013C12
:10266C00F7D041EA060195F0000F18BF704703F050
:10267C000046520043EB030313F4801F08BF013DD7
:10268C00F7D043EA0603704794EA0C0F0CEA135593
:10269C0018BF95EA0C0F0CD050EA410618BF52EA4D
:1026AC004306D1D181EA030101F000414FF0000053
:1026BC0070BD50EA410606BF1046194652EA430661
:1026CC0019D094EA0C0F02D150EA013613D195EAD5
:1026DC000C0F05D152EA03361CBF104619460AD11D
:1026EC0081EA030101F0004141F0FE4141F4700127
:1026FC004FF0000070BD41F0FE4141F4780170BD17
:10270C0070B54FF0FF0C4CF4E06C1CEA11541DBF7B
:10271C001CEA135594EA0C0F95EA0C0F00F0A7F87D
:10272C00A4EB050481EA030E52EA03354FEA0131AA
:10273C0000F088804FEA03334FF0805545EA1313BD
:10274C0043EA12634FEA022245EA111545EA106585
:10275C004FEA00260EF000419D4208BF964244F11C
:10276C00FD0404F5407402D25B084FEA3202B61A3B
:10277C0065EB03055B084FEA32024FF480104FF40F
:10278C00002CB6EB020E75EB030E22BFB61A754683
:10279C0040EA0C005B084FEA3202B6EB020E75EB16
:1027AC00030E22BFB61A754640EA5C005B084FEA7E
:1027BC003202B6EB020E75EB030E22BFB61A75464B
:1027CC0040EA9C005B084FEA3202B6EB020E75EB56
:1027DC00030E22BFB61A754640EADC0055EA060E17
:1027EC0018D04FEA051545EA16754FEA06164FEA5A
:1027FC00C30343EA52734FEAC2025FEA1C1CC0D106
:10280C0011F4801F0BD141EA00014FF000004FF092
:10281C00004CB6E711F4801F04BF01430020B4F153
:10282C00FD0C88BFBCF5E06F3FF6AFAEB5EB030C0B
:10283C0004BFB6EB020C5FEA500C50F1000041EB08
:10284C00045170BD0EF0004E4EEA113114EB5C04D5
:10285C00C2BFD4EB0C0541EA045170BD41F48011A8
:10286C004FF0000E013C90E645EA060E8DE60CEAB0
:10287C00135594EA0C0F08BF95EA0C0F3FF43BAFCD
:10288C0094EA0C0F0AD150EA01347FF434AF95EA84
:10289C000C0F7FF425AF104619462CE795EA0C0F68
:1028AC0006D152EA03353FF4FDAE1046194622E735
:1028BC0050EA410618BF52EA43067FF4C5AE50EA0F
:1028CC0041047FF40DAF52EA43057FF4EBAE12E7FF
:1028DC004FF0FF3C06E000BF4FF0010C02E000BFE0
:1028EC004FF0010C4DF804CD4FEA410C7FEA6C5CC3
:1028FC004FEA430C18BF7FEA6C5C1BD001B050EA66
:10290C00410C0CBF52EA430C91EA030F02BF90EA50
:10291C00020F0020704710F1000F91EA030F58BF0F
:10292C00994208BF90422CBFD8176FEAE37040F071
:10293C00010070474FEA410C7FEA6C5C02D150EA0F
:10294C00013C07D14FEA430C7FEA6C5CD6D152EACA
:10295C00033CD3D05DF8040B704700BF844610468F
:10296C0062468C461946634600E000BF01B5FFF78E
:10297C00B7FF002848BF10F1000F01BD4DF808ED5E
:10298C00FFF7F4FF0CBF012000205DF808FB00BF2F
:10299C004DF808EDFFF7EAFF34BF012000205DF889
:1029AC0008FB00BF4DF808EDFFF7E0FF94BF0120D6
:1029BC0000205DF808FB00BF4DF808EDFFF7CEFFD7
:1029CC0094BF012000205DF808FB00BF4DF808ED16
:1029DC00FFF7C4FF34BF012000205DF808FB00BFE7
:1029EC004FEA410212F5001215D211D56FF478732B
:1029FC00B3EB625212D94FEAC12343F0004343EACE
:102A0C00505311F0004F23FA02F018BF40427047A8
:102A1C004FF00000704750EA013005D111F0004032
:102A2C0008BF6FF0004070474FF00000704700BFC8
:102A3C0080F0004002E000BF81F0004142001FBF67
:102A4C005FEA410392EA030F7FEA226C7FEA236C70
:102A5C006AD04FEA1262D2EB1363C1BFD218414065
:102A6C0048404140B8BF5B42192B88BF704710F0FB
:102A7C00004F40F4000020F07F4018BF404211F09E
:102A8C00004F41F4000121F07F4118BF494292EA06
:102A9C00030F3FD0A2F1010241FA03FC10EB0C0032
:102AAC00C3F1200301FA03F100F0004302D54942BF
:102ABC0060EB4000B0F5000F13D3B0F1807F06D36C
:102ACC0040084FEA310102F10102FE2A51D2B1F164
:102ADC00004F40EBC25008BF20F0010040EA030059
:102AEC007047490040EB0000013A28BFB0F5000FD9
:102AFC00EDD2B0FA80FCACF1080CB2EB0C0200FA8F
:102B0C000CF0AABF00EBC25052421843BCBFD040DD
:102B1C001843704792F0000F81F4000106BF80F457
:102B2C0000000132013BB5E74FEA41037FEA226C1A
:102B3C0018BF7FEA236C21D092EA030F04D092F0E5
:102B4C00000F08BF0846704790EA010F1CBF002019
:102B5C00704712F07F4F04D1400028BF40F0004076
:102B6C00704712F100723CBF00F50000704700F096
:102B7C00004343F0FE4040F4000070477FEA2262BD
:102B8C0016BF08467FEA23630146420206BF5FEA8E
:102B9C00412390EA010F40F4800070474FF000038E
:102BAC0004E000BF10F0004348BF40425FEA000C55
:102BBC0008BF704743F0964301464FF000001CE0FD
:102BCC0050EA010208BF70474FF000030AE000BF53
:102BDC0050EA010208BF704711F0004302D5404291
:102BEC0061EB41015FEA010C02BF84460146002003
:102BFC0043F0B64308BFA3F18053A3F50003BCFA1E
:102C0C008CF2083AA3EBC25310DB01FA02FC6344CA
:102C1C0000FA02FCC2F12002BCF1004F20FA02F2D1
:102C2C0043EB020008BF20F00100704702F12002C4
:102C3C0001FA02FCC2F1200250EA4C0021FA02F225
:102C4C0043EB020008BF20EADC7070474FF0FF0C2A
:102C5C001CEAD0521EBF1CEAD15392EA0C0F93EA25
:102C6C000C0F6FD01A4480EA010C400218BF5FEAC7
:102C7C0041211ED04FF0006343EA501043EA51113A
:102C8C00A0FB01310CF00040B1F5000F3EBF490034
:102C9C0041EAD3715B0040EA010062F17F02FD2A38
:102CAC001DD8B3F1004F40EBC25008BF20F001001B
:102CBC00704790F0000F0CF0004C08BF49024CEA32
:102CCC00502040EA51207F3AC2BFD2F1FF0340EAC4
:102CDC00C250704740F400004FF00003013A5DDC35
:102CEC0012F1190FDCBF00F000407047C2F1000276
:102CFC00410021FA02F1C2F1200200FA02FC5FEA63
:102D0C00310040F1000053EA4C0308BF20EADC70AC
:102D1C00704792F0000F00F0004C02BF400010F41E
:102D2C00000F013AF9D040EA0C0093F0000F01F0CB
:102D3C00004C02BF490011F4000F013BF9D041EAED
:102D4C000C018FE70CEAD15392EA0C0F18BF93EAEF
:102D5C000C0F0AD030F0004C18BF31F0004CD8D119
:102D6C0080EA010000F00040704790F0000F17BFA0
:102D7C0090F0004F084691F0000F91F0004F14D0E6
:102D8C0092EA0C0F01D142020FD193EA0C0F03D13E
:102D9C004B0218BF084608D180EA010000F0004041
:102DAC0040F0FE4040F40000704740F0FE4040F41C
:102DBC00400070474FF0FF0C1CEAD0521EBF1CEABB
:102DCC00D15392EA0C0F93EA0C0F69D0A2EB0302D9
:102DDC0080EA010C49024FEA402037D04FF0805373
:102DEC0043EA111143EA10130CF000408B4238BF38
:102DFC005B0042F17D024FF4000C8B4224BF5B1A46
:102E0C0040EA0C00B3EB510F24BFA3EB510340EA93
:102E1C005C00B3EB910F24BFA3EB910340EA9C0041
:102E2C00B3EBD10F24BFA3EBD10340EADC001B01B1
:102E3C0018BF5FEA1C1CE0D1FD2A3FF650AF8B4255
:102E4C0040EBC25008BF20F0010070470CF0004C62
:102E5C004CEA50207F32C2BFD2F1FF0340EAC2508D
:102E6C00704740F400004FF00003013A37E792F04E
:102E7C00000F00F0004C02BF400010F4000F013AAC
:102E8C00F9D040EA0C0093F0000F01F0004C02BFA7
:102E9C00490011F4000F013BF9D041EA0C0195E710
:102EAC000CEAD15392EA0C0F08D142027FF47DAFA9
:102EBC0093EA0C0F7FF470AF084676E793EA0C0F99
:102ECC0004D14B023FF44CAF08466EE730F0004C97
:102EDC0018BF31F0004CCAD130F000427FF45CAF27
:102EEC0031F000437FF43CAF5FE700BF4FF0FF3C95
:102EFC0006E000BF4FF0010C02E000BF4FF0010CE8
:102F0C004DF804CD4FEA40024FEA41037FEA226CB0
:102F1C0018BF7FEA236C11D001B052EA530C18BFD2
:102F2C0090EA010F58BFB2EB030088BFC81738BF37
:102F3C006FEAE17018BF40F0010070477FEA226C25
:102F4C0002D15FEA402C05D17FEA236CE4D15FEA21
:102F5C00412CE1D05DF8040B704700BF8446084655
:102F6C006146FFE70FB5FFF7C9FF002848BF10F116
:102F7C00000F0FBD4DF808EDFFF7F4FF0CBF01205B
:102F8C0000205DF808FB00BF4DF808EDFFF7EAFFE5
:102F9C0034BF012000205DF808FB00BF4DF808EDA0
:102FAC00FFF7E0FF94BF012000205DF808FB00BF95
:102FBC004DF808EDFFF7D2FF94BF012000205DF81B
:102FCC0008FB00BF4DF808EDFFF7C8FF34BF012028
:102FDC0000205DF808FB00BF4FEA4002B2F1FE4F43
:102FEC000FD34FF09E03B3EB12620DD94FEA0023BF
:102FFC0043F0004310F0004F23FA02F018BF404298
:10300C0070474FF00000704712F1610F01D142027E
:10301C0005D110F0004008BF6FF0004070474FF032
:10302C000000704742000ED2B2F1FE4F0BD34FF0AE
:10303C009E03B3EB126209D44FEA002343F0004322
:10304C0023FA02F070474FF00000704712F1610F45
:10305C0001D1420202D14FF0FF3070474FF0000017
:10306C00704700BF7BB972B90029BEBF00204FF07A
:10307C00004106E008BF00281CBF6FF000414FF074
:10308C00FF3000F057B8ADF1080C6DE904CE002903
:10309C0009DB002B1ADB07F0FBFFDDF804E0DDE9B0
:1030AC00022304B07047404261EB4101002B1BDB53
:1030BC0007F0EEFFDDF804E0DDE9022304B0404246
:1030CC0061EB4101524263EB43037047524263EBA5
:1030DC00430307F0DDFFDDF804E0DDE9022304B073
:1030EC00404261EB41017047524263EB430307F0EE
:1030FC00CFFFDDF804E0DDE9022304B0524263EBBC
:10310C004303704753B94AB9002908BF00281CBFB4
:10311C004FF0FF314FF0FF3000F00CB8ADF1080C60
:10312C006DE904CE07F0B4FFDDF804E0DDE902231D
:10313C0004B07047704700BF4A0011D212F500125C
:10314C0011D20DD56FF47873B3EB62520ED44FEAF3
:10315C00C12343F0004343EA505323FA02F0704773
:10316C004FF00000704750EA013002D14FF0FF30B1
:10317C0070474FF0000070470A4B0B4A03F59670EE
:10318C0053F8041B834242F8041FF9D1074B084A39
:10319C009A605A6942F010025A615A6942F480727C
:1031AC005A61704700200010FC6F012000ED00E018
:1031BC0000700120244880F30888244880F30A8892
:1031CC0023488047002103E0224B5B5843500431D5
:1031DC002148224B42189A42F6D3002103E0204B9F
:1031EC005B58435004311F481F4B42189A42F6D388
:1031FC00002103E01D4B5B58435004311C481D4B10
:10320C0042189A42F6D31C4A02E00023136004329F
:10321C001A4B9A42F9D306F09DFF00F0F9FAFEE73B
:10322C005FEA0E00EFF30881EFF30982144B984725
:10323C00FEE75FEA0E00EFF30881EFF30982114B12
:10324C009847FEE7FEE700000070022000600220B5
:10325C0085310010D418011000300020C0840020EB
:10326C00946D01100072012068790120FC7401102A
:10327C0000F0012020F3012020F30120B0020220F5
:10328C00A1340010C534001070B51F4D82B02B68EE
:10329C00B3F1C04F2CD01D4A93421ED01C4E1D4C76
:1032AC002D2008F02FF90C223168206808F04AF91B
:1032BC0008B102B070BD02223168206808F006F92E
:1032CC000028F6D1144A154B126869462868CDE9D6
:1032DC00002308F00FF902B070BD0D4E0D4C2C20E0
:1032EC0008F010F908223168206808F02BF9DFE7A4
:1032FC00074E084C2B2008F005F904223168206891
:10330C0008F020F9D4E700BF28F301200004006086
:10331C0034F3012024F3012030F30120213001018A
:10332C0030B4B2F1C04F029C06D0114DAA4203D06A
:10333C0005F58065AA4218D10E4DA84202D0803501
:10334C00A84212D10C4D2C6024B100240B4D2C80C2
:10335C000B4D2C800B4C22600B4A0C4C10600C4A11
:10336C00216030BC1360FFF78FBF102030BC70475A
:10337C000004006000B0046020F301202EF3012053
:10338C002CF3012028F3012024F3012034F3012035
:10339C0030F30120F8B50E4D2B68BBB10D4C0E4E21
:1033AC0023880E4F0FE02A6838681268D15C08F049
:1033BC0041F823882A68013392889BB29A42238071
:1033CC009CBF0023238032889A42ECD1F8BD00BF09
:1033DC0020F301202EF301202CF3012028F30120EF
:1033EC002DE9F84F431C884634D00138012828D8E1
:1033FC00002A2FDD4C1E4FF0000BDFF860A0184D9B
:10340C00DFF86090A6180FE0B5F800C002680CF168
:10341C00010302F80C1082889BB29A422B8098BF51
:10342C00A5F800B0B44210D0DAF80000274614F822
:10343C00011F0028E8D1D9F8000007F0FBFF002895
:10344C00F0D04FF0FF30BDE8F88FB81CA0EB0800AF
:10345C00BDE8F88F0020BDE8F88F00BF20F30120F5
:10346C002CF3012028F30120012070474FF0FF308E
:10347C00704700BF002070474FF4005300204B6092
:10348C00704700BF00207047012070474FF0FF309D
:10349C00704700BF0D461646044608B5FFF7F4FE0C
:1034AC0033462A462146034806F086FCFFF772FF96
:1034BC00FEE700BF60B5001070B582B004460D4643
:1034CC001646FFF7E1FEEFF30881834806F074FC23
:1034DC0023074CBF8148824806F0DEFC600737D5D5
:1034EC00804806F0D9FC35467F4806F0D5FC2968A3
:1034FC007E4806F061FC69687D4806F05DFCA968B1
:10350C007C4806F059FCE9687B4806F055FC2969B3
:10351C007A4806F051FC6969794806F04DFCA969B6
:10352C00784806F049FCE969774806F045FCAA6939
:10353C00764B0192DB6A99070ED4744BDB6A002B35
:10354C0041DB724CE36A5A000AD4FFF723FFFEE713
:10355C006F4806F0A1FCC7E76E4806F09DFCECE74F
:10356C006D4806F099FCA36ADBB2002B4DD1674C79
:10357C00A36A13F47F4F2AD1644CA36AB3F5803F3E
:10358C00E3D3664806F088FCA36ADE036FD45F4B76
:10359C009B6A9D0367D45D4B9B6A5C035FD45B4B5A
:1035AC009B6A180357D4594B9B6AD9024FD4574B7B
:1035BC009B6ADA0147D4554B9B6A9B01C5D5584889
:1035CC0006F06AFCC1E7574806F066FCB9E75648B6
:1035DC0006F062FCA36ADB0531D44C4CA36A9E0551
:1035EC006ED44A4B9B6A580566D4484B9B6A1905A6
:1035FC005ED4464B9B6ADA0456D4444B9B6A9B04BC
:10360C00BAD54A4806F048FCB6E7494806F044FCEF
:10361C00A36ADB0733D43D4CA36A9E0738D43B4BDB
:10362C009B6A180730D4394B9B6AD90623D4374B85
:10363C009B6A9A069BD53F4806F02EFC97E73E48BE
:10364C0006F02AFCC9E73D4806F026FCB3E73C48E7
:10365C0006F022FCABE73B4806F01EFCA3E73A4819
:10366C0006F01AFC9BE7394806F016FC93E738483D
:10367C0006F012FC8BE7374806F00EFCD7E70199F1
:10368C00354806F099FBC6E7344806F005FCCAE756
:10369C000199334806F090FBA36A1D06BFD5616BF8
:1036AC00304806F089FBBAE72F4806F0F5FBA4E793
:1036BC002E4806F0F1FB9CE72D4806F0EDFB94E755
:1036CC0001992C4806F078FBA36A1D0489D5A16BDF
:1036DC00244806F071FB84E780B50010A8B50010F3
:1036EC00BCB50010D4B50010F4B5001004B6001031
:1036FC0014B6001024B6001034B6001044B60010F6
:10370C0054B6001064B6001074B6001000ED00E062
:10371C00E4B5001084B60010A8B600105CBA001016
:10372C00B8BB001094B60010CCB8001010BA001042
:10373C00BCB6001078B80010D8B8001084BB0010CC
:10374C0058BB001018BB0010E8BA0010A8BA001043
:10375C006CBA001024B80010D0B60010CCB7001012
:10376C0048B70010BCB70010C4B9001078B90010ED
:10377C0040B9001008B9001010B4054CD4E900236E
:10378C00501C43F10001C4E9000110BC704700BF9C
:10379C0048F30120704700BF704700BF70B5EFF3CE
:1037AC00108C72B64FF0E023174AD2E90045174A45
:1037BC009869596956684A1C760105D5661C986942
:1037CC0045F1000334461D468CF31088091A4FF45A
:1037DC007A700023A1FB0001FFF794FC6B016201DE
:1037EC00121B43EAD46363EB05039B0043EA927319
:1037FC009200121943EB0503D400DB00001943EAD5
:10380C00527343EB010170BD48F3012000ED00E061
:10381C0008B5284807F066FE274C642007F02AFEFE
:10382C0002F056FF012002F063FF02F08FFF234AE3
:10383C00A368DA63BFF34F8FBFF34F8FBFF36F8F64
:10384C0007F0F4FD1E4BA3FB00239B09013BB3F1D6
:10385C00807F2BD24FF0E02207214FF0E00C0020AC
:10386C00536184F823C09061116103F02FF803F0C9
:10387C00EDF9202007F01EFE4FF480614FF48030EC
:10388C0007F0F0FD20B102F0E1F802F0DFF8FAE702
:10389C000C4B596807F04AFE292007F033FE2A200A
:1038AC0007F030FE202007F0F9FDECE7064806F0A3
:1038BC00F3FAFEE700E0046000ED00E0853700104D
:1038CC00D34D621000300020F4BB00102DE9F84FEE
:1038DC000D461F4600EBC503D3F80C9004462E4949
:1038EC0048461646BDF82880FFF74EFB002841D10C
:1038FC0004EBC606F1684846FFF79EF827490646D2
:10390C00FFF742FB002835D131464846FFF796F8C1
:10391C00DFF88CA001465AF82500FFF78FF8214AF2
:10392C004AF82500535DDFF880A0FF2B5AF825B02C
:10393C001CBF0133535549465846FFF725FBD8B1F8
:10394C00DFF868B020461A4AC5EBC5034AF8259043
:10395C004BF8256002EB830204F13801C368083090
:10396C00884242F8043FF9D1124A134B42F82570B1
:10397C0023F81580BDE8F88F58464946FFF7FAFA48
:10398C000028F7D0DFF824B031465BF82500FFF7AC
:10399C00FBFA0028EED0D5E70AD7A33E0AD7233D81
:1039AC0098F4012090F4012078F4012060F40120B7
:1039BC00B4F30120A0F3012094F301202DE9F84F7A
:1039CC00DFF8DC90D9F80450D9F80040284621469D
:1039DC00FFF7F8FA00285AD1254601274FF00008C6
:1039EC000224DFF8C0A05AF8046F29463046454639
:1039FC005FFA84FBFFF7E6FA40B125460134062C4A
:103A0C004746D8460DD059F82550ECE759F8271001
:103A1C003046FFF7D7FA0134002818BF5F46062C52
:103A2C00F1D1214B585D002835D059F827400021A1
:103A3C002046FFF7C7FA40B1214659F82500FEF79A
:103A4C00FBFF1A49FFF7A0FA28BB194CC5EBC503BD
:103A5C0004EB8304174A184B52F8252083F8008096
:103A6C00164B17491A60174B31F8151053F82520CF
:103A7C000125154B154E1980154B1A600FCC0FC62E
:103A8C0094E8070086E807002846BDE8F88F002771
:103A9C004FF00108A4E700252846BDE8F88F00BFC9
:103AAC0098F401209CF4012090F40120CDCC4C3DE5
:103ABC00B8F3012078F4012000F0012090F30120EC
:103ACC0094F30120A0F3012066F3012074F301208C
:103ADC0068F301202DE9F84F2C4F04463E780D4633
:103AEC0092469946BDF828800EBB00EBC103DE68F8
:103AFC0027493046FFF748FAE0B904EBCA02D2F87E
:103B0C000CA0D4F83CB051465846FFF75BFAA8B16C
:103B1C0059463046FEF790FF1E49FFF735FA48B973
:103B2C001D4B1E4A197859B90121157019700020C6
:103B3C00BDE8F88F0022184B1A70F8E75146E8E7F9
:103B4C001078A842F0D1012901D102221A70FFF796
:103B5C0035FF0028EBD0124B1B78AB42E7D1114B51
:103B6C001E60114B03F11C01E268083443F8042F6A
:103B7C008B42F9D10D4B0E4AC3F800900123A2F8E9
:103B8C0000800C4A3B701370D2E700BFB3F40120E5
:103B9C003333333F9A99193EB0F4012001F00120E0
:103BAC0000F0012090F3012070F3012068F3012054
:103BBC0066F30120B1F4012003680868184700BFC0
:103BCC0010B40468086811681A68234610BC1847BA
:103BDC00034610B5104672B140F22E2293420AD819
:103BEC00D21A8A4207D3054C8A0004EB830106F0F3
:103BFC00E6FA002010BD4FF0FF3010BD04F5012097
:103C0C0070B50024FF25224B224AC3E90044C3E9C6
:103C1C000244C3E90444204B20491C70204B21482A
:103C2C001D70214E214BC2E90044C2E90244C2E995
:103C3C000444C1E90044A822C1E90244C1E9044496
:103C4C000460214684801A4834701C7006F013FA04
:103C5C004FF0000C174A184B1849194EC2E9004492
:103C6C00C2E90244C2E904441648C1E90044C3E96C
:103C7C000044C3E90244C3E90444C6F800C0124A34
:103C8C00124E8C6005709C613460148070BD00BF56
:103C9C0060F4012098F40120B1F4012078F40120A3
:103CAC0001F0012090F40120B3F40120B0F40120C4
:103CBC00B8F30120A0F3012074F3012094F3012048
:103CCC0090F3012000F0012066F3012068F301203D
:103CDC0005F06EBF08B528B130F8023CC01AFFF7EA
:103CEC00F7FF08BD6B21024B024A034805F01EFF8B
:103CFC0018BC00101CBC001048BC001008B50E4BC2
:103D0C001B781BB10D4B1878073008BDFFF746FD2B
:103D1C0000234FF47A72FFF7F5F9094B1B68C01AB0
:103D2C00002806DB074B1B78002B0CBF0820062055
:103D3C0008BD082008BD00BFB5F40120B3F4012074
:103D4C006CF3012002F001202DE9F04F8DB00190B1
:103D5C00FFF724FD4FF47A720023FFF7D3F90546E1
:103D6C008846534E534FDFF850A103A802F002FFD0
:103D7C00044602F0A9FE002CC6F83C0C6ADB012CB0
:103D8C0013D0FFF70BFD4FF47A720023FFF7BAF94B
:103D9C00401B61EB0801B0F5FA7F71F1000180F076
:103DAC008180012007F066FBDFE706A903A802F07B
:103DBC0069FE3B7F002B5CD0D7F818B03D4CABF5BF
:103DCC007423D345A3F5107348D85846FEF7E6FE86
:103DDC003A49FEF7EFFF8046019BA14606AE1C1F39
:103DEC0003F1140A59F8045B56F8040B2946FEF744
:103DFC0023FE4146FEF72AFF2946FEF71FFE44F834
:103E0C00040F5445EED12B4D0BF5DF3303F59073B6
:103E1C0006ACBB610FCC0FC594E8030085E803002A
:103E2C000024274B03AA07CA83E80700254ADDF8BC
:103E3C0004901368244D01331360B9E80F000FC5CB
:103E4C0099E8030085E80300194ED6F8303C01339D
:103E5C00C6F8303C20460DB0BDE8F08F0DF1180CC3
:103E6C00BB61BCE80F000FC49CE8030084E80300AE
:103E7C007BE706ADAE460FCDDFF838C0019EACE84F
:103E8C000F0095E803008CE80300BEE80F000FC696
:103E9C0095E80300DFF8348086E80300C7F8188043
:103EAC003C77BDE76FF0030420460DB0BDE8F08F02
:103EBC0000500120E4F4012040420F00002474491A
:103ECC00D8F40120B8F40120C0F4012060011100E5
:103EDC002DE9F0410926124D124FDFF84C801349A1
:103EEC004FF4F962A1F1F00006F0ACF8104C20464A
:103EFC00FFF72AFF183488B9AC42F8D1D7F83C3C0C
:103F0C00C3F30A030C2B09D90A4A0B4B013E88F860
:103F1C00000010701870E2D16FF00C00BDE8F08159
:103F2C00BCFD012000500120B4F40120F4F5012067
:103F3C00CCFC0120B0F40120B2F401202DE9F843AF
:103F4C00D0F80CE01C469EF85460DDF820C0D3F885
:103F5C00805066B100212F1D55F8310020B157F863
:103F6C0031309A4207D033B101318E42F4D16FF027
:103F7C002000BDE8F883BEF86270E7B10568DEF892
:103F8C006460013FDCF80080DCF804902F44043EB0
:103F9C00013D15F9010FFEF705FE4146FEF74CFDFC
:103FAC004946FEF753FE56F8043FBD4204F108049F
:103FBC0023606060EDD10020BDE8F883012A02D1B6
:103FCC00016000207047022A05D0032AF9D0002A8C
:103FDC00F7D10260F5E70B680360F2E7012A02D122
:103FEC00016000207047022A05D0032AF9D0002A6C
:103FFC00F7D10260F5E70B680360F2E7012A02D102
:10400C00016000207047022A05D0032AF9D0002A4B
:10401C00F7D10260F5E70B680360F2E72DE9F04F8A
:10402C0004680868A1681268B0FBF1F9B2FBF1FAF8
:10403C001F68E36887B01A6A02FB09F902FB0A9A47
:10404C00D1452CD24FF0000B019721B3019B0026D8
:10405C00012703EB8B0506E0A168731C8B4205F16D
:10406C00040514D21E46D4E900039B5D82684B44C0
:10407C00CDE903370595B2B1D0F80C8005AB04AA95
:10408C0003A9C0470028E7D007B0BDE8F08F0BF1BB
:10409C00010BE368B3441A6A9144CA45D5D8002091
:1040AC0007B0BDE8F08F05F02BFD00BF70B5D0E96F
:1040BC00001391F83C20054682B10024264653F8A3
:1040CC00240030B10368DB689847D5E9001343F846
:1040DC00246091F83C2001349442F0D31846FFF749
:1040EC00F7FD284670BD00BF2DE9F04F83B00546A3
:1040FC000F46FFF753FB80468946002D60D0EE68D3
:10410C00F36C63B3002402E0F36CA34227D9D5F817
:10411C0010E03B4621462846BEF1000F01D05EF868
:10412C0024E0326D02EB441CDCF81C20CDF804E0DA
:10413C00DCF818E00134CDF800E0DCF810A0D04732
:10414C0082460028E0D0FFF729FBB0EB080061EBBA
:10415C000901C7E91C01504603B0BDE8F08F96F881
:10416C005420FAB10024D7F88030A2460BE0284640
:10417C00FFF7AEFDD7F8803043F80BA096F854202B
:10418C000134A2420ED953F834504FEAC40B002D1F
:10419C00F6D028680028EAD02B7B002BE7D0FFF75D
:1041AC0097FDE4E7FFF7FAFA4FF0000AB0EB0800CE
:1041BC0061EB0901C7E91C01504603B0BDE8F08F63
:1041CC006FF00A0AF8E700BFF8B507460D46F0B1E4
:1041DC00C668002496F83C20BAB1336C04EBC400DA
:1041EC0003EB80031B6A800063B1196851B15B69F2
:1041FC0043B1FA6855F83410126C1044984728B93A
:10420C0096F83C200134A242E7D80020F8BD6FF0AC
:10421C000A00F8BD002070472DE9F0430546C06840
:10422C00984690F844300E46174685B00BB30024E0
:10423C0004E0E86890F84430A3421AD9826C04EB8D
:10424C00440302EBC30CDCF81030CDF80C80DCF826
:10425C0008203146CDE901729CF814200092DCF85C
:10426C0004902246C84701340028E2D005B0BDE8CE
:10427C00F083FFF7CFFF831C18BF002005B0BDE80B
:10428C00F08300BF0FB430B5E3B066AC54F8045BF8
:10429C004FF4C072002102A805F0EDFE4FF4C0717E
:1042AC002A46234602A8019405F02CFE002810DDB6
:1042BC00002302AC0DF287158DF8873105E04FF025
:1042CC00C04007F0B7F8AC4203D014F8011B00292A
:1042DC00F5D163B0BDE8304004B070472DE9F04F24
:1042EC0083B00C9B15460190002B00F08C800027AE
:1042FC003E46B846019B29781C680329D4E9013253
:10430C0002FB03F080440BD0092950D0012936D090
:10431C004348FFF7B7FF6FF00C0003B0BDE8F08F18
:10432C004FF00009D8B12368E96853F82900FEF76B
:10433C0041FD05F0A5FBFEF74FFE2969D5F804B049
:10434C00084480F308000BF80600D4E9013202FBA4
:10435C0003F309F101094B4506F10106E3D80C9B67
:10436C000137BB42C6D1A969B8EB910F03D04145C7
:10437C0018BFC3464CD1002003B0BDE8F08F002815
:10438C00EDD023686A6806F18041043B013902EBE9
:10439C00810203EB800453F8041F9C4242F8041F73
:1043AC00F9D10C9B0137BB420644A3D1DBE74FF09C
:1043BC00000B0028D3D02268E96852F82B00FEF7D6
:1043CC00F9FC05F05DFBFEF707FE2B69D5F804A0A0
:1043DC0018446FF07F039842B8BF18467F28A8BFD7
:1043EC007F200AF80600D4E9012101FB02F20BF14F
:1043FC00010B5A4506F10106DDD80C9B0137BB4277
:10440C007FF478AFAFE791698B08B4D0DDF830B0AA
:10441C0004485A46FFF736FF6FF017007DE700BFE0
:10442C00C8BC0010ECBC00100B4601782DE9F04123
:10443C0003290446D3E9012002FB00F028D0092906
:10444C000CD001293ED1A269B0EB920F41D1616829
:10445C00186805F0B4FE0020BDE8F081A169814226
:10446C0042D10029F7D065681E680139276905EB30
:10447C000108043E013D15F9010FC01BFEF792FB2C
:10448C00E168FEF7E3FB454546F8040FF3D1E2E79C
:10449C00A169814228D10029DDD065681E680139E7
:1044AC00276905EB0108043E013D15F8010FC01BFF
:1044BC00FEF778FBE168FEF7C9FBA84546F8040F48
:1044CC00F3D1C8E70B48FFF7DDFE6FF00D00BDE838
:1044DC00F081111EB8BF0331024689100648FFF760
:1044EC00D1FE6FF01700B7E702460348FFF7CAFE8C
:1044FC00F7E700BF80BD00103CBD0010F8B50F46BB
:10450C001D4606461446FFF749F9C7E9000137690D
:10451C0012487B682D6898470146C8B921463B690B
:10452C009847044678B9337B1BB90FE0327B9A422B
:10453C000CD9B26829467B69105D98470134E3B207
:10454C0040350028F2D06FF00200F8BD0020F8BD15
:10455C000348FFF797FE6FF00500F8BDE946001021
:10456C00C0BD001070B50C46002586B0D66801950C
:10457C004A68A568816805FB02F20569AA4228BF52
:10458C002A46029222680492002955D0C56804ABD1
:10459C0002AA01A9A8474FF07E513046FEF7EAFC6B
:1045AC00054610B1002006B070BD0346A288314606
:1045BC0062F30F03ADF80820228902A862F31F43AF
:1045CC0004932368ADF80A2004AA0393059302F020
:1045DC0067FB0028E6D019491948FFF753FE2B4614
:1045EC00A2883146ADF8082062F30F03228902A895
:1045FC0062F31F4304932368ADF80A2004AA0393C3
:10460C00059302F04DFB01460E48FFF73BFEA388D5
:10461C0031462689ADF8083063F30F05236804AAE8
:10462C0002A866F31F45CDE90335ADF80A60059382
:10463C0002F036FB06B070BD05F062FAF0BD00105A
:10464C00F4BD0010FCBD001010B51A49FEF7FEFABF
:10465C0019490446FEF7B6FC40B320461749FEF74D
:10466C0093FC18B320460021FEF78EFCD8B94FF00E
:10467C007C512046FEF7E2F9FEF7AEFC4FF47A745B
:10468C0080EAE0730E4AA3EBE0730028A2FB03025E
:10469C004FEA921204FB1233B4BF0A490A490B4881
:1046AC00FFF7F0FD10BD4FF03F41E2E70848FFF780
:1046BC00E9FD10BD00007A44FBFFFFCEFBFFFF4E6F
:1046CC00D34D621010BE0010D0C200101CBE0010E2
:1046DC0014BE001005F064BA05F046BA431E03423E
:1046EC0010B5044613D180B179B1481C2044012186
:1046FC00FFF7F2FF024640B1631C0344644203EA35
:10470C000400821A20F8022C10BD002010BD482194
:10471C00024B034A034805F009FA00BF28BE0010FB
:10472C0044BE001048BC00100B462DE9F04F8FB072
:10473C000993936804460646564950690893FDF759
:10474C00EFFC002814BF0323012322690393002AE2
:10475C0000F095804FF0000A17465446B3464E4D74
:10476C00CDF810A0B7F5806F3E4628BF4FF4806699
:10477C00089B012103FB06F080000296FFF7ACFFBB
:10478C00059000287FD0049ADBF80830CDE90B2681
:10479C000D90002B7BD05846DBF80C600DAB0CAAAF
:1047AC000BA9B047002F5CD0099B4FF00008D3F841
:1047BC0000A0059BCDE9067BA3F1040921E0374954
:1047CC0058460193FEF742FA0246354938461746D9
:1047DC00FEF73CFA01463846FEF730F902463149FD
:1047EC0030461646FEF732FA01463046FEF726F9F9
:1047FC00019B08F101084AF80300029B0134434570
:10480C002DD959F8040FFEF70DFC0646C0F30740EE
:10481C00FEF7C4F92946FEF7CDFA8346C6F3072006
:10482C00FEF7BCF92946FEF7C5FA0746F0B2FEF7CB
:10483C00B5F92946FEF7BEFA0399064603294FEA55
:10484C0084030AEB8402BAD1029B08F101084345A8
:10485C004AF824B05760906004F10304D1D8DDE924
:10486C00067B029B0598FF1AFFF732FA049ADBF8D5
:10487C00103002F58062934204923FF673AF002031
:10488C000FB0BDE8F08F08480FB0BDE8F08F05F011
:10489C0037F900BF7CBE001000007F438716993E9D
:1048AC00A245163FD578E93D16FCFFFF2DE9F04FE8
:1048BC00A3B0DDE92DB48046207B256980019246AA
:1048CC00049389460595FFF705FF06460890FEF709
:1048DC0065FF00237A4A1193CDE91223794B12AD6F
:1048EC001093794B0DAF95E803000F9387E8030005
:1048FC0008AB2A4620460AA9FFF700FE0346D0B1B2
:10490C00119A52B10F990992002900F0D6803846BD
:10491C00109A09A904939047049B00220F9C1192B2
:10492C002CB10322394638460493A047049B184601
:10493C0023B0BDE8F08F2C99049B009198F844109B
:10494C002A46029198F83C1048460191DBF88010F9
:10495C00FFF7C4FC03460028D2D1DDE90A8922699D
:10496C00049092689047002840F0A480FEF716FF50
:10497C00B0EB080061EB0901CBE91A01FFF74AFC27
:10498C000230049B08BF6FF00103227B002A54D035
:10499C00B0464FF00009CDE906634FEACA05D8F8D6
:1049AC0008100A68002A40F3828000234FF0010AA5
:1049BC0051F8040F0133934200FB0AFAF8D198F82E
:1049CC000060032E0AD0092E08D0012E56D0314695
:1049DC003E48FFF757FC6FF00D0391E7237D102045
:1049EC00002B34D1FFF776FE012104905046FFF7DF
:1049FC0073FE4FF0010C049B1860DBF88060D8F854
:104A0C001820D8F80410C3F808A083F80CC0C3F819
:104A1C0004C0735105F0D3FBDBF8803062682B4483
:104A2C004A445A60237B09F101094B4508F14008BF
:104A3C0005F10805B3D8DDE906630493059B20480E
:104A4C00DA6890473046FFF743F9049B58E7FFF7C5
:104A5C0041FE012104904FEA8A00FFF73DFE01223E
:104A6C00049BDBF880601860C3F808A01A735A60C6
:104A7C00194640467351FFF7D7FCCDE71020FFF7DE
:104A8C0029FE314604904FEA8A00FFF725FE049B6D
:104A9C00DBF88020C3F808A018601E735E60D8F89D
:104AAC0004105351D8F8182005F089FBB4E74FF0E7
:104ABC00010A84E76FF0020367E705F021F800BFF5
:104ACC00E13C0010C53B00100940001080BD0010F7
:104ADC002DE9F04FB7B0409E0446307B356980011C
:104AEC0089469A46129510929DF80481FFF7F2FDC3
:104AFC0000230546279325933F4B404A2493404B74
:104B0C002692239326AA21AB0F9092E8030083E808
:104B1C000300304619AB1EA91995FFF7EFFC0E9058
:104B2C00002840F0BF829DF89830092B02D0032B4F
:104B3C0040F03C83FEF732FE279BA269139005934D
:104B4C0017921491002B00F0278300231193236CF0
:104B5C002A98DD68299B0193FEF724F8A36C039037
:104B6C00DB6868690293AB6826490D93FDF7D8FAA8
:104B7C00002814BF03230123D9F810500693002DED
:104B8C0000F0DF800027BB46CDF854A0DDF804A070
:104B9C0009954096CDF85880099B0D9AB3F5806F16
:104BAC0028BF4FF4806302FB03F0012180000493C3
:104BBC00FFF792FD0A90002800F06882049BCDF864
:104BCC0068B01B930A9B1C93D9F80830002B00F09B
:104BDC00F5821CAB4846D9F80C401BAA1AA9A04771
:104BEC00099B002B00F09A800A9B0025CDE90BB99C
:104BFC00A3F104083BE000BFC53B0010E13C0010F2
:104C0C00094000107CBE00105046AE49FEF7B2F9C8
:104C1C00002800F015814FF043410398FEF7AAF9E4
:104C2C00002800F00D81029B002B40F0578149F2C7
:104C3C00456244F68B4341F62F5002FB09F2019971
:104C4C0011FB032314FB00300014FDF7ABFF4FF0F6
:104C5C008641FDF7F1FEFEF7BFF900F3070040B205
:104C6C00049B0135AB4237468BF8000054D958F8F9
:104C7C00040FFEF7D7F9059B7E1C03EB070BC0F363
:104C8C0007430193069BC0F30729032BC4B2BBD186
:104C9C00059A504693190793BB1CD318894908935E
:104CAC000337FEF767F9002800F03E814FF04341CF
:104CBC000398FEF75FF9002800F03681DDE9010367
:104CCC00002B40F07B81FDF76DFF4FF08641FDF727
:104CDC00B3FEFEF781F906464846FDF763FF4FF039
:104CEC008641FDF7A9FEFEF777F9034620465CB234
:104CFC00FDF758FF4FF08641FDF79EFEFEF76CF96D
:104D0C0076B240B2079B8BF800601C70089B013593
:104D1C001870049BAB42AAD8DDE90BB9099B049A25
:104D2C000A989B1A0993FEF7D3FFD9F810300BF5AC
:104D3C00806B9B45FFF430AFDDF854A0409EDDF84E
:104D4C005880FFF767FA831C00F02482FEF726FDDB
:104D5C00139BC01A149B61EB0301CAE91801B8F14B
:104D6C00000F40F0F781FEF719FD336904469B688C
:104D7C000D46CDE91E019847002840F01B82FEF736
:104D8C000DFD001B61EB0501CAE91A01FFF742FAA0
:104D9C0002300E9B08BF6FF001030E93337B002B88
:104DAC0046D00025109B0F9C4FEAC308A2681068E0
:104DBC00002840F3F9810023012752F8041F013326
:104DCC00834201FB07F7F8D194F80090B9F1030F77
:104DDC0000F07F81B9F1090F00F07B81B9F1010F6F
:104DEC0040F093811020FFF775FC49468346B800CC
:104DFC00FFF772FCDAF88030CBF80870CBF80000C3
:104E0C008BF80C90CBF80490A269616843F808B059
:104E1C0005F0D5F9DAF88030726843442A445A60B8
:104E2C00337B0135AB4204F1400408F10808BDD8CE
:104E3C00129B2548DB6898470F98FEF749FF2CE139
:104E4C000198FDF7ABFE07464846FDF7A7FE8146E5
:104E5C002046FDF7A3FE029B0446002B4AD13846A0
:104E6C001A49FDF7A7FF194907464846FDF7A2FF67
:104E7C00164981462046FDF79DFF044638461449E5
:104E8C00FDF7E4FE134907464846FDF7DFFE0146F1
:104E9C003846FDF7D3FD03460F4920461C46FDF767
:104EAC00D5FE01462046FDF7C9FD5146FDF782FFB0
:104EBC0004F0E6FD01460398FDF7C0FDFEF78CF803
:104ECC0040B2CDE68180803BE13C001000007F4386
:104EDC008716993EA245163FD578E93D0198FDF716
:104EEC005DFE07464846FDF759FE81462046FDF714
:104EFC0055FE0446029B022B00F08480029B042B7F
:104F0C00BCD138464FF08641FDF796FD4FF08641F7
:104F1C0007464846FDF790FD4FF0864181462046F6
:104F2C00FDF78AFD0446A9E70198FDF737FE064612
:104F3C004846FDF733FE81462046FDF72FFE029BC7
:104F4C000446002B45D130469D49FDF733FF9C4963
:104F5C0006464846FDF72EFF994981462046FDF747
:104F6C0029FF044651463046FDF724FF04F088FD26
:104F7C0001460398FDF762FDFEF72EF851460646F2
:104F8C004846FDF717FF04F07BFDDDF80C90014659
:104F9C004846FDF753FDFEF71FF8034651462046E1
:104FAC005CB2FDF707FF04F06BFD01464846FDF7C8
:104FBC0045FDFEF711F876B240B2A3E6FDF7EEFD23
:104FCC0006464846FDF7EAFD81462046FDF7E6FD1C
:104FDC000446029B022B37D0029B042BC2D13046D5
:104FEC004FF08641FDF728FD4FF0864106464846B6
:104FFC00FDF722FD4FF0864181462046FDF71CFD52
:10500C000446AFE738466E49FDF7D4FE6D49FDF70F
:10501C0013FD6D49FDF7CEFE694907464846FDF77D
:10502C00C9FE6A49FDF708FD6949FDF7C3FE6449ED
:10503C0081462046FDF7BEFE6649FDF7FDFC66493C
:10504C00FDF7B8FE044619E730465D49FDF7B2FEA0
:10505C005C49FDF7F1FC5C49FDF7ACFE584906468E
:10506C004846FDF7A7FE5949FDF7E6FC5849FDF700
:10507C00A1FE534981462046FDF79CFE5549FDF79C
:10508C00DBFC5549FDF796FE04466BE75349544843
:10509C00FFF7F8F86FF004030E93059B13B1119B07
:1050AC00002B53D1259B43B1239A1D93002A00F06A
:1050BC008580249B21A81DA998470022239B25921B
:1050CC001BB121A90322084698470E9837B0BDE8BA
:1050DC00F08F337D102003B3FFF7FCFA01218146DA
:1050EC00B800FFF7F9FA0123DAF88020C9F80000BC
:1050FC00C9F8087089F80C30C9F8043049462046C4
:10510C0042F80890FFF790F984E649463548FFF7D6
:10511C00B9F86FF00D030E93BFE7FFF7DBFA01212F
:10512C0081463846FFF7D8FA0123C9F80000C9F8C0
:10513C000870DAF88070A269616889F80C30C9F8D7
:10514C00043047F8089005F03AF863E60598FEF746
:10515C00BFFDA7E7DAF84C102348FFF793F8179B2D
:10516C00A3B1179B5C1E059B1C445D1E2A9B15F965
:10517C00010FC01AFDF716FD2999FDF767FDFFF722
:10518C0063FA1A48FFF77EF8AC42EFD11848FFF7E4
:10519C0079F8E8E50E9080E701211046FFF79CFABC
:1051AC00012305901193D2E401270DE66FF008035B
:1051BC000E9377E76FF002030E93EFE504F0A0FC7B
:1051CC0000007F43EC51F83EFA7E6A3ED578E93E0A
:1051DC004260653E3BDFCF3E6666663E16FCFFFFD7
:1051EC0088BE001080BD0010B0BE0010F8C30010C7
:1051FC0064C400102DE9F04F8246A5B089461046D4
:10520C0098460A920E93BAF1000F00F09782DAF8E2
:10521C000C30002B00F092821746002A00F08E8290
:10522C00002900F08B828822002104F024FFDAF898
:10523C000C3093F85440E4002046FFF74BFA22461A
:10524C000021C7F88000064604F015FFDAF80C00C0
:10525C0090F85520836C0E2A90F83C40D3E901510C
:10526C0026D844F6A403D340DB0721D590F861304F
:10527C00F3B9B94B9D421BD14B7BCBB1012C17D150
:10528C00036C9A68B54B9A4240F05B82CDE90018EA
:10529C003B4649460022FFF71BFC0546002800F060
:1052AC009C813046FEF714FD284625B0BDE8F08FF2
:1052BC000D94E4002046FFF70DFA8346002800F019
:1052CC00C7812246002104F0D6FE0D9CA31C9F0032
:1052DC00384604F013FC04230360034608330C9097
:1052EC0044600B93002C00F027820D9B00210B983F
:1052FC009A0004F0C0FEFEF751FADAF80C30129066
:10530C0093F83C201391002A00F0A8800024CDF8DB
:10531C001C90A1460C9ACDE9107602F10408196C88
:10532C0004EBC40201EB820351F8221092000992A3
:10533C00D3E901520892DA685E6906921A69DB6950
:10534C001020049303910592FFF7C4F9012107463D
:10535C00A800FFF7C1F94FF001033B73012358F884
:10536C00041FC7E90135C8F80070386049B10868F6
:10537C0018B10B7B002B40F02B810846FEF7A8FCE4
:10538C003868002800F06A81039ADAF80CC00BF137
:10539C0004034BF8347043F83420DCF81830A9447B
:1053AC00994500F27D81059B079A1B93002320935E
:1053BC00DCF82010CDE91C6C8E421A921E932193BE
:1053CC001F9300F0BA801793654B1EAD2093654B6D
:1053DC002193136916AAB3FBF1F306FB03F3229393
:1053EC001AAB169314AB92E8030083E80300049BFA
:1053FC00C5E90001002B00F0A5805B4E3378002B33
:10540C0000F0B480DAF8046056F82400002800F0AC
:10541C00BE800A9FDAF80C605BF8342029460568D8
:10542C000197B66B069B00966D68A847002840F064
:10543C006981FEF7EFFE821C209B00F06D811BB191
:10544C001EA9032208469847DAF80C30013493F869
:10545C003C20A2423FF663AFDDE910765946504638
:10546C00FEF7B2FE0B9BA7F1080405461C4400286E
:10547C0040F05D81FEF792F9129BC01A139B61EB11
:10548C0003010A9BC3E918010E9B002B40F07281AB
:10549C00DDF828805946424650460E9BFEF7BCFE6E
:1054AC000546002840F0078150464146FEF71CFE99
:1054BC000546002840F0FF80D8F86030D8F864101A
:1054CC0013F5FA704FF47A724FF0000341F10001BA
:1054DC00FDF7C8FDD8F86830D8F86C10C8F84C0047
:1054EC0013F5FA704FF47A724FF0000341F100019A
:1054FC00FDF7B8FDD8F87830D8F87C10C8F8500013
:10550C0013F5FA704FF47A724FF0000341F1000179
:10551C00FDF7A8FDD8F87030D8F87410C8F858000A
:10552C0013F5FA704FF47A724FF0000341F1000159
:10553C00FDF798FDC8F85400BDE0049B079D002BB7
:10554C007FF45BAF2846069ADCF838305BF83410F1
:10555C00089DA8476AE700BFB948001035470010FE
:10556C00C93F001029400010BCFD01209649974806
:10557C00FEF788FE9648FEF785FE4FF00103337068
:10558C00DAF8046056F8240000287FF442AFDAF809
:10559C00003009991A6C0A44D068996BD369984702
:1055AC00DAF8043046F8240053F8240000287FF47D
:1055BC0030AF6FF00A05DDE91076209B1BB11EA9F8
:1055CC000322084698470B9BA7F108041C4472E081
:1055DC000F91FEF77DFB0F99CFE60A9C50462146B2
:1055EC00FEF782FD0546D4E9180110F5FA704FF468
:1055FC007A724FF0000341F10001FDF733FDE064D6
:10560C00A06EE16E10F5FA704FF47A724FF0000351
:10561C0041F10001FDF726FD2065A06FE16F10F54B
:10562C00FA704FF47A724FF0000341F10001FDF76C
:10563C0019FDA065206F616F10F5FA704FF47A7246
:10564C004FF0000341F10001FDF70CFD606528E609
:10565C006048FEF717FE6FF0070522E62146DDE9EC
:10566C0010765D48FEF70EFE0B9BA7F108041C4458
:10567C00A34239D0A046DDF82C9004E02846FEF772
:10568C0027FBC1454CD058F8045D002DF9D0286893
:10569C000028F3D02B7B002BF0D0FEF719FBEDE7A5
:1056AC006FF00405DDE910764C48FEF7EBFD0B9B23
:1056BC00A7F108041C440B9BA3421BD0A046DDF8A9
:1056CC002C9004E02046FEF703FBC14512D058F89D
:1056DC00044D002CF9D020680028F3D0237B002B3C
:1056EC00F0D0FEF7F5FAEDE708210C9804F0F3F989
:1056FC006FF007050C98394604F0EDF95846FEF7A3
:10570C00E7FACEE50146DDE910763548FEF7BAFD3D
:10571C006FF00405209B51E70546DDE910764DE757
:10572C0039460C9804F0D7F96FF00705C3E701462A
:10573C002C48FEF7A7FDBEE70827DCE56FF0150542
:10574C00B2E50820FEF7C6FF8346002880D0002370
:10575C000C20CBF80030CBF8043004F0CFF9012347
:10576C00042243600D9300F108030C270C90026097
:10577C000B93BAE50A9B1C48D96CFEF783FD0D9B75
:10578C00EBB1A946DDF834805BF839309BB19A68EF
:10579C0000256AB11B6853F82500FEF755FF134826
:1057AC00FEF770FD5BF8393001359A68AA42F1D8E2
:1057BC000F48FEF767FD09F10109C845E4D10D4812
:1057CC00FEF760FD64E600BF58BF0010F4BD00108A
:1057DC0060BF0010C4BE0010F4BE00102CBF00103F
:1057EC0088BE0010CCBF0010B0BE0010F8C3001073
:1057FC0064C4001000C000102DE9F04F0E4689B0B3
:10580C00002800F0E280036A1D68002D00F0DD80A6
:10581C00D5F80080B8F1000F00F0D780AB68002BF2
:10582C0000F0D3802A69002A00F0CF806C68002C2D
:10583C0000F0CB80EA68002A00F0C7806969002973
:10584C0000F0C3807168012973D14168B7688F4239
:10585C0066D1BC4240F0BE80A2426ED13268002AB2
:10586C0000F0D4804FF0000B4446154600264FF054
:10587C000009CDE901230392002D63D0D4F80080F8
:10588C0049464046FDF776FB08F1004120B901235B
:10589C002A46284601F0F4F90136B74205F1040511
:1058AC0004F10404E8D8DDF80C80DDE901230025BF
:1058BC001C4643464FF07E5AA046A9461C46CDE9ED
:1058CC00022B002C00F08C80D8F800B051465846C2
:1058DC00FDF750FB98B9254601904FF0011659463B
:1058EC0006AA04A8059507950496069601F0D8F922
:1058FC0000283FD1019B13B12846FEF7E9F909F1C5
:10590C0001094F4504F1040408F10408D9D8DDE974
:10591C00022B1AB1BBF1000F40F08580002005E08E
:10592C003A464348FEF7AEFC6FF0170009B0BDE8ED
:10593C00F08F4048FEF7A6FCF6E721463E48FEF7FE
:10594C00A1FCF1E701210420FEF7C6FE82460028E7
:10595C0036D02068494600F10048FDF70BFB28B90A
:10596C00012341465246504601F08AF95046FEF753
:10597C00AFF991E731493248FEF784FC06AA594643
:10598C0004A8CDE90465CDE9066501F089F9014665
:10599C002C48FEF777FC594606AA04A8CDE9055613
:1059AC000496079501F07CF90028A3D0019B2E46A4
:1059BC00029ADDF80CB023B130460192FEF788F95B
:1059CC00019A12B1BBF1000F1CD16FF01D0009B090
:1059DC00BDE8F08F224639461B48FEF753FCA3E77F
:1059EC0001210420FEF778FE0546C8B1D8F800B0B6
:1059FC0051465846FDF7BEFA00287FF47DAF0123CF
:105A0C0001936AE71046FEF763F9DEE70121B8005F
:105A1C000193FEF761FE4FF0010B0246019B23E759
:105A2C00DDE9022BCDE71046FEF752F976E700BF11
:105A3C0068C0001014C00010F8C00010F0BD0010B9
:105A4C00F4BD0010FCBD0010B0C0001000220123FA
:105A5C002DE9F04F814CC1B0C4F8282CC4F82C3C73
:105A6C00BFF35F8F01F008F8002800F0D0807C4E67
:105A7C007C4D56F8041F55F8040FFCF751FB002819
:105A8C0040F0D880784B9D42F3D104462022014649
:105A9C00764804F0F0FA764B01251C70754B1C709F
:105AAC00FEF7AEF8FDF77AFE00234FF47A72FDF79D
:105ABC0029FB714B1C70714B1C60714B1D70714B31
:105ACC001860714B186001F005F8002840F036851D
:105ADC006E4C2378002B00F0C78440F22E23002458
:105AEC000C936B4B1F941E936A4B88220A936A4B40
:105AFC006A4E0B931EAB93E8030014AB83E80300D0
:105B0C0008AB83E803001EA804F0B5FA0222534B3D
:105B1C0006F6B805C3F8384CC3F82C2C02E0AE429C
:105B2C0000F0C6803046FEF70FF918360028F6D084
:105B3C000446A71C0026494D4D4BC5F8286C1E7019
:105B4C004C4B1E70FEF75CF8FDF728FE4FF47A7292
:105B5C000023FDF7D7FA484B494A1E70474B1E608D
:105B6C00484B1860484B186001231370BFF35F8FCC
:105B7C000522631D394B18BFC5F8384C484DC3F886
:105B8C002C2C2B68DFF81C8101332B60FDF706FEF3
:105B9C004FF47A720023FDF7B5FAD5F800C00E4623
:105BAC00BCF1010F05461AD0D8F80020831AD8F89A
:105BBC00042061EB0202B3F57A7F72F100020ED27F
:105BCC00012F21D9642005F055FC0A9B1BB108A9B3
:105BDC00032208469847012041B0BDE8F08F1F4BC7
:105BEC002146D3F83C2CD3F8303C2F48CDE901C3E7
:105BFC00130E0093C2F30933C2F30A02FEF742FB01
:105C0C00012FC8E90056DDD800F0CCFEDAE700F031
:105C1C00C9FE00F031FF00287FF429AF6FF00102BC
:105C2C000523C4F8382C4FF4FA70C4F82C3C05F05A
:105C3C0021FCD0E76FF005010522084B1B48C3F887
:105C4C00381CC3F82C2CFEF71DFB4FF4FA7005F032
:105C5C0011FC012041B0BDE8F08F00BF00500120C5
:105C6C0080CD0010FCF0012018F10120E4F401209B
:105C7C00B5F40120B4F40120B2F40120B8F40120F1
:105C8C0002F0012070F301206CF3012064F3012079
:105C9C00DD3B0010E93F0010CD3B001004F5012066
:105CAC0060F3012058F3012004C3001058C3001006
:105CBC00834BD3F83C3CC3F30A030C2B00F2E08378
:105CCC0001234FF0000A049303227D4BC3F82C2CC4
:105CDC00BFF35F8FFDF762FD00231EAA80460F46BF
:105CEC00784808A9FFF786FA0446FDF757FD4FF4EC
:105CFC007A720023FDF706FA002305460E4640464D
:105D0C0039464FF47A72FDF7FDF92D1A66EB010650
:105D1C00B5F5803F76F1000628BF4FF6FF756A4B4C
:105D2C00ADB21D80002C40F078831EAC26460DF1E0
:105D3C00B008F76851463846FDF73AF9002800F0EC
:105D4C00FF814FF07E513846FDF728F908360028C0
:105D5C0000F0F6814645ECD142F6DC125B4B1B6839
:105D6C0002FB03F30793FDF719FD4FF47A7200233E
:105D7C00FDF7C8F9239F219E059031463846FDF763
:105D8C0021F9002800F0EC8100264FF0010806955F
:105D9C004FF0020B354626460DEBCB02D2F8849021
:105DAC0039464846FDF70EF940AB5FFA8BF403EB2E
:105DBC00C502002840F0A581484652F87C1CFDF72E
:105DCC0001F9002818BF25460BF1010BBBF1060F9A
:105DDC00E2D1DDF8B4903E4B48463E49344693F848
:105DEC0000B02E46069DFDF7E3F8002840F08480B5
:105DFC0049463846FDF7C8F8002800F0C3824846EB
:105E0C003549FDF7C1F8002876D1BBF1000F40F001
:105E1C00ED82324B1B78002B7FD1314B83F800B0D5
:105E2C000021274BD3F8342C0132C3F8342CC3F89F
:105E3C00381CFDF763FF224BC3F82C0CFDF75EFFFB
:105E4C00234B05461B78002B40F08F811C492A46BA
:105E5C00D1F83C1C2348C1F30A0101911A494FF0B7
:105E6C007C570988DFF8808000910499FEF70AFAC4
:105E7C001E4D0BE04FF6FF7255F8041F1C48FEF741
:105E8C0001FA1C4B08349D4200F03F81E6685146F4
:105E9C003046FDF78DF80028ECD04FF07E5130469F
:105EAC00FDF77CF80028E5D041463046FCF7CEFEE5
:105EBC003946FCF7C3FDFDF7B5F80246DCE700BF39
:105ECC0000500120C0FD0120BCF40120B8F40120D9
:105EDC00B5F401209A99593F9A99993E02F0012004
:105EEC00B2F4012054C2001000401C46FCF001200A
:105EFC0090C2001018F10120BBF1000F40F0058298
:105F0C009F4B1B784BB99F4A13780133DBB2012BA3
:105F1C00137085D901239A4A13709B4B059A1B6801
:105F2C00D31A002BFFF67CAF38469849FDF740F8A2
:105F3C0000283FF475AF48469549FDF725F8002831
:105F4C003FF46EAF059A934B1A600123924A13707B
:105F5C000023924A1370FDF753FE079F32463B46CF
:105F6C0041461EA80095FDF7B1FC3B463246414622
:105F7C0000951EA8FDF7AEFD00283FF451AF884BED
:105F8C00884A1D6805930692874B4FF0000993F8D9
:105F9C0000B0DFF81882BBFA8BF67609CB4508D037
:105FAC0058F8261058F82900FDF70CF8002818BFEF
:105FBC004E4609F10109B9F1070FEFD100237C4FCF
:105FCC004A4657F82B100DF1380B58468DF84B30CC
:105FDC00CDF83F30CDF84330CDF8473004F053F8CE
:105FEC0057F826104A4611A804F04DF858F82630F8
:105FFC006E4E109514AD13930FCE0FC596E8070097
:10600C00DFF8B091DFF8B081D9F80030B8F800E0D3
:10601C0085E80700CDE91B3EDFF8A0C1DCF8281CA1
:10602C00013141F00103CCF8283C21F00101BFF310
:10603C005F8F634D0DF13703A5EB0B050DF14F068B
:10604C00EA1813F8010FB3421070F9D15D4814AA85
:10605C00801A0DF17305C21813F8016FAB4216705C
:10606C00F9D1BFF35F8F023108BF0221534BC3F844
:10607C00281CBFF35F8F069B1B78002B00F08481DC
:10608C00514D494B51491B7857F82360059B1868B3
:10609C00FCF7DCFD4FF07C51FCF7D0FCFCF7C2FFA9
:1060AC000746FDF77BFB42F6DC1EB8F80030D9F84A
:1060BC0000C00293464B474A1B680EFB03F3A3EB4D
:1060CC000C03A2FB03239B094FF47A720193002368
:1060DC00FDF718F8844629462E4D3B462D6832466E
:1060EC00ACEB05053C480095FEF7CCF80021334B92
:1060FC000420D3F8342C0132C3F8342CC3F8381CE8
:10610C0099E645464F46A0465EE63448FEF7BAF897
:10611C00334C049AA4FB0234E40804EB8404B2EB81
:10612C00440461D0FDF7EAFD244BC3F82C0CFDF7B9
:10613C00CFFE049B0133049300283FF4C5ADF7E474
:10614C000023284A1370154A13700E4A13701B4A09
:10615C00D2F8341C0131C2F8341CC2F8383C68E661
:10616C0037464FF00008012611E6FDF717FB002318
:10617C004FF47A72FCF7C6FF064B1B68C31A65E630
:10618C0002F00120B2F401206CF301209A99993E9F
:10619C009A99593F70F30120B5F40120B4F4012011
:1061AC0090F30120B1F4012000F0012074F30120E0
:1061BC0000F1012068F3012066F30120005001205A
:1061CC00115C0120415C012040C1001000401C46C4
:1061DC00B8F40120D34D621010C2001080C300101F
:1061EC00CDCCCCCCB0F40120B249B348B1F90A30D3
:1061FC00B24F0293B1F90830B14E0193B1F90630A8
:10620C00DFF8C0B20093B1F90430B1F90220B1F952
:10621C000010FEF737F8AC48FEF734F8DFF8AC8224
:10622C00DFF8AC92AB4857F8041BFEF72BF8022CA6
:10623C0056F8040B2DD8A849FCF708FD4146054635
:10624C00FCF7C0FE002857D049462846FCF79CFEB8
:10625C00002851D051462846FCF796FE002879D1EB
:10626C004FF07C512846FCF7E9FBFCF7B5FE0346E2
:10627C009A4A0028A2FB030299484FEA924200FB7B
:10628C001233B4BF974998499848FDF7FBFF013486
:10629C00C8E75946FCF7DAFC41460546FCF792FE86
:1062AC0078B349462846FCF76FFE50B35146284652
:1062BC00FCF76AFE002859D14FF07C512846FCF7B8
:1062CC00BDFBFCF789FE034600284FF47A70884A20
:1062DC00B8BF8449A2FB03524FEA921200FB12335F
:1062EC00A8BF81498348FDF7CDFF0134062C99D115
:1062FC008148FDF7C7FF15E78048FDF7C3FF013460
:10630C0090E77E48FDF7BEFFEFE77D4F3B78002B13
:10631C0000F0BE8000207B4A1378FF2B04D00133A1
:10632C00DBB2012B137044D0059B3E7803F5AF789C
:10633C00002E4BD0744B754AC3F8008000231370A9
:10634C00704A1370724A1370724A137000287FF4EB
:10635C0016AE65E54FF07C512846FCF76DFBFCF75B
:10636C003BFE80EAE073A3EBE07381E74FF07C51D6
:10637C002846FCF761FBFCF72FFE80EAE073A3EBE9
:10638C00E073A1E738463BE5634D7AE6DDF81CB0D7
:10639C0032465B4641461EA80095FDF797FA5B46D0
:1063AC003246414600951EA8FDF794FB554B83F8E9
:1063BC0000905A4B059A1B68D31AB3F5C86FC5D316
:1063CC00059B3E7803F5AF78002EB3D1FDF7F6FAB6
:1063DC0000282FD14C4BC3F800804C4B1870494B04
:1063EC0018704B4B18704B4B187019E5444F97F8BD
:1063FC000090B9F1000FC9D0424B059A1870474B69
:10640C001B68D31AB3F5C86FFFF40AAD059B3E4A5F
:10641C0003F5AF7313603D4BE2E721464048FDF7AF
:10642C0031FF404B6FF00207C3F8384C6FF0040497
:10643C00FFF780BB3C4B3D491D6805932846FCF794
:10644C00B7FD314BC3F80080304B0028C6D01E700E
:10645C002C4B1E702E4B1E702E4B1E7001233B704E
:10646C00334B06931E708FE53248FDF70BFF0A2263
:10647C0042F6DC113048FDF705FF2570FFF72DBB08
:10648C00FDF726FD044600283FF41AACFFF751BB7C
:10649C00DDF81C9032464B4641461EA80095FDF790
:1064AC0015FA4B463246414600951EA8FDF712FBE5
:1064BC0031E700BFD8F4012098C20010A0CD001025
:1064CC00C0F4012000007A44D4C20010FBFFFFCEC0
:1064DC00FBFFFF4EF0C200100024744983DE1B4307
:1064EC0040420F0010BE0010D0C20010F8C20010C5
:1064FC00D34D62101CBE001080C3001014BE0010DF
:10650C00B3F40120B4F401206CF30120B5F40120A4
:10651C0002F00120B2F4012048C1001070F30120F8
:10652C00F4C100100050012090F301203333B33E2E
:10653C00B1F401206CC10010A4C100100522094B5C
:10654C000146C3F8380CC3F82C2C0748FDF79AFE0B
:10655C0000F028FA642004F08DFF012041B0BDE862
:10656C00F08F00BF005001204CC100102DE9F0410C
:10657C0000270F4D0F4B95F83C600F4C1B684FEAF2
:10658C00860840462560EB662772FEF7A3F860602C
:10659C001EB14246394603F06EFD0023E560C4E9A6
:1065AC000433BDE8F041054A0549034803F08CBAB1
:1065BC0004F00120D8FD0120C0FD012050F3012082
:1065CC00B940001030B5154C83B00DF106012046D2
:1065DC0004F074FFBDF806100B0618D5636BB3B14D
:1065EC000F4D01232A4602E00133212B14D06168A0
:1065FC0002F8011B616B0029F6D15C1915F8011B1F
:10660C00084803F0D9FBA542F8D1BDF806100348A1
:10661C0004F018FF03B030BD2023EEE70034006017
:10662C00DCFD0120F4C3001010B51D2084B004F073
:10663C0069FF1C224FF40071224804F083FF1D22D5
:10664C008021204804F07EFF00224FF400711D4889
:10665C0004F03CFF002280211A4804F037FF00228E
:10666C004FF48061174804F06DFF01224FF48061F4
:10667C00144804F057FF01224FF48061114804F0D4
:10668C003DFF01224FF480610E4804F05FFF64244B
:10669C006A229DF80E300C4823F01F0343F01903B7
:1066AC0001A9ADF808208DF80E30019404F01EFFFE
:1066BC000023064A02F8013F0133202BFAD104B023
:1066CC0010BD00BF80B00460003400601BFE0120D0
:1066DC0008B5022004F0F6FE002004F0C7FE0020EE
:1066EC0004F014FFBDE80840002004F097BE00BF82
:1066FC00002310B582B0044601220F200DF10701D2
:10670C008DF8073004F09AFE9DF80730D3B10122C2
:10671C0010200DF1070104F091FE9DF8070000B95F
:10672C00A92004F077FE002004F06CFE0321642203
:10673C00084604F08FFE40F6C411204604F0A2FE79
:10674C0002B010BD562004F06DFEE0E7002210B53B
:10675C00002482B01146012004F0DCFE4FF4E1234A
:10676C004FF0C0424FF0005100940248FCF7D8FDA6
:10677C0002B010BD00B00460FFF724BFFFF722BFCA
:10678C00FFF720BF70B582B00DF10501454804F04C
:10679C0065FE44489DF8051004F07CFE9DF805301C
:1067AC009A0712D400230DF105013F488DF80530EE
:1067BC0004F054FE3C489DF8051004F06BFE9DF867
:1067CC0005309B0743D402B070BD0DF1060135486E
:1067DC0004F05CFE334804F0B1FE344803F05CFB7B
:1067EC00BDF80630324E5BB100243546314815F801
:1067FC00011B03F0E1FABDF806300134A342F5DCCD
:10680C000A2003F0EBFA2C4A2C4B0121C2F89430ED
:10681C00C2F89860D2F88C3029486FF30F0343F01C
:10682C002003C2F88C3004F041FE0028BAD13F217D
:10683C001C4804F02FFE0028B4D10221194804F0A2
:10684C0049FE0028AED1174804F0E0FDAAE716482F
:10685C0004F074FE1B4803F01FFB174A1A49184B2F
:10686C00C2F8D410C2F8D830D2F8CC303F216FF334
:10687C000F0343F020030C48C2F8CC3004F00AFE9E
:10688C000028A0D10221084804F024FE00289AD147
:10689C000146054804F0F2FD002894D1024804F0AA
:1068AC00B5FD90E780810050C0810050FCC3001002
:1068BC00DCFD0120F4C300100081005004340060A2
:1068CC000034006004C40010FCFD012008B5FFF783
:1068DC00ABFE322004F0CEFDBDE8084000F062B8FB
:1068EC00831D02390C301A88023321F8022F33F839
:1068FC00082C8342CA80F6D1704700BF38B58C464D
:10690C0004460B491546002301220A480C706446C4
:10691C0002F004FF00B138BD03462A462146054863
:10692C0002F012FE0028F6D1024802F0D7FD38BD65
:10693C0048FE012000340060042230B583B00446C8
:10694C000D463A200DEB0201FFF7D8FF08BB9DF86E
:10695C0005109DF804204FEA012C9DF807300CF42B
:10696C00E06C42EA0C0222801B029DF8062003F424
:10697C0040731A432A802388094D43EA016343EA92
:10698C0002334A062B6007D4CB0600D5208003B017
:10699C0030BD4FF0FF30FAE76FF00A00F7E700BFA9
:1069AC0040FE012000232DE9F0412A4E82B00DF16A
:1069BC00030101220F208DF803303360FFF79EFF97
:1069CC009DF8031060BB6A292AD1234C234D04F196
:1069DC001007B4F800C0012302222946204814F8FD
:1069EC00028BA5F800C002F099FEF8B9BC42F0D1B8
:1069FC000322102001A9FFF781FF58B99DF804303C
:106A0C00442B07D19DF805304C2B03D19DF8063053
:106A1C00442B12D0134803F03FFA02B0BDE8F081CA
:106A2C00114803F0C9F902B0BDE8F08141460F48A6
:106A3C0003F0C2F902B0BDE8F081322004F01AFD77
:106A4C0001230B48336003F027FA0A4803F024FAB9
:106A5C00E9E700BF44FE012038E8001048FE0120A1
:106A6C000034006068C400100CC4001038C400105E
:106A7C0090C40010DCC40010014B1868704700BFB4
:106A8C0044FE01202DE9F041DFF834800D4F0D1F3D
:106A9C00841E061D34F9020FFCF784F84146FCF7FE
:106AAC00D5F80346B4F9060045F8043FFCF77AF82C
:106ABC003946FCF7CBF8A642E860EBD1BDE8F08193
:106ACC0040DAFF39295C8F3D014B1868704700BFD5
:106ADC0040FE0120002300B5214A224822491268B9
:106AEC0083B003600B60BAB34FF00A0C1F4901234B
:106AFC0002221F48A1F800C002F010FE30BB42F287
:106B0C000A6C1A49012302221948A1F800C002F0AC
:106B1C0005FED8B9052206206946FFF7EFFEA8B995
:106B2C009DF802209DF80030092A9DF8011010D123
:106B3C009DF803200B431A430BD19DF80430262BF0
:106B4C0018BF6FF0090003B05DF804FB4FF0FF3085
:106B5C00F9E76FF00900F6E76FF00100F3E700BF0B
:106B6C0044FE01203CFE012040FE012048FE012095
:106B7C000034006070B5334B06461B6886B0002BA2
:106B8C005DD00DF10A0102A8FFF7D6FE054630BB19
:106B9C00BDF808300B2B22D9BDF80A40052C1CD8A7
:106BAC0004B3294B1B68C3B902223E2001A9FFF78D
:106BBC00A5FE0134A4B200283AD1062CF4D10DF173
:106BCC000A0102A8FFF7B8FE002836D1BDF808303C
:106BDC000B2B04D9BDF80A3023B16FF00B052846F6
:106BEC0006B070BD03AC214602223E20FFF786FEA4
:106BFC000234E8B906AB9C42F5D10DF10A0102A8AA
:106C0C00FFF79AFE05460028E9D1BDF80830052BA0
:106C1C0003D9BDF80A30002BDFD103A83146FFF7AA
:106C2C005FFE01231D462846074A136006B070BD5F
:106C3C004FF0FF35284606B070BD0546CFE76FF024
:106C4C000105CCE744FE01203CFE01200022134646
:106C5C00104609490A604A608A60CA60CA18013342
:106C6C00B3F57A6F1074F9D1BFF35F8F034B0B60E0
:106C7C00BFF35F8F704700BF005C01204452485344
:106C8C00F8B506460F4615461C4643B156F8040B9C
:106C9C003946FBF7D3FE013C45F8040BF6D1F8BDA1
:106CAC00F8B5048843880F4603FB04F4566845681E
:106CBC0044B155F8040B3946FBF7C8FF013C46F8C4
:106CCC00040BF6D10020F8BD2DE9F04F1D688BB0F8
:106CDC000C46DDE91469DDE9198A17462DB34FF02E
:106CEC00010BC246D8F80C20D9F80010DDF86880EA
:106CFC002069CDE9070BE368059278680693049147
:106D0C003A68A168CDE9022022684346CDE900210A
:106D1C003046189A169900F00FF8D9F80010DAF8E6
:106D2C000C20013D0E449044E2D100200BB0BDE894
:106D3C00F08F00BF002070472DE9F04F95B0239CD9
:106D4C001E9D04EBD4777F10012C2EB29446C6EA1C
:106D5C0006469A46DDF888900B97099040F3F3802D
:106D6C00219F4A467F4227EAE77318460493269BE5
:106D7C004FEA490B5B000C930346012000FA03F326
:106D8C00013BB9F1000FCDF808B0DDF884B0B8BF05
:106D9C0009F1030205930341099822F0030E9710A1
:106DAC002BEAEB7BCDF838E00D97CDF80CB000EB6F
:106DBC0087070EEB010BA9EB0E00E6460A93013395
:106DCC000F902394D04600204C46109711931291AB
:106DDC00CDF84CA0BEF1000F00F0A680774657F816
:106DEC00082BDEF80430BE460F190197029FCF190D
:106DFC0006970D9F002F00F01181CDE9070BDDF8F0
:106E0C002490BC46CDF804800F1959F8040B26FACF
:106E1C0090FB51F804AB26FA80F02FFA9AF828FB75
:106E2C000B282FFA8AFA2AFB008257F8048B2FFAC8
:106E3C0098FA2AFB0B3A2FFA88F8BCF1010C28FBC4
:106E4C0000A3E2D1DDE9070B59460BEB0407DDF893
:106E5C0040C0DDF8048001970E9FBC4212DD0F9FED
:106E6C0007960CEB070A019F1CF9016B11F9019BAA
:106E7C002E4406FB092217F9019BD44506FB093366
:106E8C00F2D1079E03994FF080478A400021DDF82C
:106E9C0080C00130C2FB0C71FA0F42EA4102049F20
:106EAC000599DDF880C011403A414CBF119F0A9FF3
:106EBC00B94203994FF0804703FA01F34FF00001F8
:106ECC00C3FB0C714FEAD77343EA4103049F059946
:106EDC00C8BF013219403B414CBF119F0A9FB942B8
:106EEC001F99C8BF01330A440B4424998A42B8BF86
:106EFC000A468B42B8BF0B4602998B4425998A42AD
:106F0C00A8BF0A468B42A8BF0B4688F80020269AD9
:106F1C0008F802300C9B98440B9B834207DD0699C2
:106F2C00BEF1000F7FF45AAF734672465CE7F4462D
:106F3C000C99DDF84CA0129A03FB01AA0299A14608
:106F4C0003FB0121239CE30764D5BCF1000F68D03F
:106F5C00DCF80030C846B9F1000FB8BF09F10308DE
:106F6C005FEAA8081AD08E464446099F57F8040BCE
:106F7C0026FA90FB5EF8042B26FA80F02FFA92FC8E
:106F8C002CFB0B332FFA82F2013C22FB0033EDD1A8
:106F9C00099A01EB880102EB88020992B9EB880F80
:106FAC004FEA88020CDD099CA9EB0202224414F979
:106FBC00010B11F9016B2844944200FB0633F6D106
:106FCC004FF0804200200121219C24EAE474A3406C
:106FDC00209CC3FB0420219BD20F5B4223EAE3736A
:106FEC00994042EA4002013902EA01001A414FEA93
:106FFC00610148BF013188421F9BC8BF0132134455
:10700C00249A9342B8BF1346259A9342A8BF1346BD
:10701C008AF80030002015B0BDE8F08FDDF824C0F0
:10702C001AE7634696E700BF2DE9F04F9DB09DF837
:10703C00A0401E460B1E19941192299C189340F3E4
:10704C00FF8300231593531E00EB0309631E139358
:10705C00A31E1293DFF8D482530000F1FF3A1A9367
:10706C00CDF80490119A9AF90170012A0AF10103E2
:10707C0040F34186019913F9012F9742B8BF174687
:10708C009942F8D10023D346CDF83CA0CDE9023784
:10709C00B2467DE0C2FB0830002805DA6FF00042F2
:1070AC009A18134640F10000DB0F43EA400303EB50
:1070BC0008024FF080434FF0000E19469C4E0D987D
:1070CC00C2FB061EC90F41EA4E0101FB0CFC10402D
:1070DC000C9A8CEA000C0CEA020100201A46954E20
:1070EC00F224CCFB0620D20F42EA400202FB07F747
:1070FC0000201A46904E4F40C7FB06200B9ED20F25
:10710C0042EA400202FB06F600201A460E9939406C
:10711C008A4F4E40C6FB0720D20F42EA400202FBC8
:10712C0005F500201A4607993140854E4D40C5FBA8
:10713C000620D20F42EA40020598089902FB00F0A3
:10714C00024629404A40002519467E4E0A98C2FB49
:10715C0006151040C90F049A41EA450101FB02F2E1
:10716C0000214240C2FB0431DB0F43EA4103069984
:10717C00099813FB01F302405A401313110548BF41
:10718C000133029A1A440292019B5B4500F0E6809F
:10719C00039A1BF9013F9B1A279A9A42F4DC269A10
:1071AC0093409AEA030F59BF4FF0804100224FF0F1
:1071BC00FF326549C3FB0A12002A04DA6FF0004063
:1071CC00091842F10002C90F9A4541EA420100F048
:1071DC0093804FF0804041F07F435C015B1AC3F316
:1071EC000072C3F38069C3F34076C3F3006CC3F33E
:1071FC004067C3F3C0650592C3F38073013A0693ED
:10720C000892013B721E0A9209930022034604F174
:10721C008054C4FB0432DB0F43EA42030022C3FB5D
:10722C0003020CF1FF3ECDF834E007F1FF3ECDF840
:10723C0030E0C00F09F1FF3E40EA4200CDF838E0E3
:10724C0005F1FF3E84EA0302CDF81CE04FEAA00EE4
:10725C00800748BF0EF1010E002AA6BF4FF08042F6
:10726C0000204FF0FF30CDF82C90049684FB039651
:10727C00B8BF354A12EB090240EB0600002806DACB
:10728C006FF0004912EB09094A4640F10000D20F99
:10729C0042EA40022D48724492EA000F28D44FF083
:1072AC0080404FF0000E294EC2FB060EBEF1000FBF
:1072BC0005DA6FF00042821810464EF1000EC00F36
:1072CC0040EA4E0003445A105CBF03F00103D2188D
:1072DC00224492EA080F59BF4FF0804300204FF030
:1072EC00FF30194B00297FF4D5AE4FF4002348E74B
:1072FC004FF0FF3E1448D6E7BAF1004F7FF469AF68
:10730C004FF0FF3000256FF00041AC462F46CDE921
:10731C000800CDE905550E4A0E4B0F4C0D900E9002
:10732C000B950A90079004950C90B8E794A8F5700B
:10733C007BBEAF63F2CBA24D6CAC162FA4AA52113C
:10734C00B72A580211FE0A00010000C0ABAAAA2AF3
:10735C00FFFF4100F8FFFF01E0FFFF0F029B5646C5
:10736C00002B039FDDF83CA000F0C784B3FA83F92F
:10737C0040F3A2844FF0FF3003FA09F303F100430A
:10738C00DA175B0843EAC27313F1804342F1000E33
:10739C006449654AC3FB0210002805DA6FF000420D
:1073AC008A18114640F10000C90F41EA40014FF024
:1073BC008042002001F15A31C1FB0320D20F42EA76
:1073CC004002C2F1005292EA010F82FB014040F1EF
:1073DC008384544AA21860F100000028C0F2838410
:1073EC00D20F42EA40029200114491EA030F59BFB6
:1073FC004FF0804200254FF0FF354A4A9C46C1FBB6
:10740C000325002D0C464FEAE170C0F2AA84D20F7E
:10741C0042EA4502C2F1005291EA020F00F1A9843E
:10742C004FF080454FF0000B029502FB00F0D51792
:10743C0004FB0500A2FB0424029D2044521940EBDE
:10744C000B00002805DA6FF000441419224640F1B5
:10745C000000D20F42EA4002B2F1005FC0F2EA83B0
:10746C006FF000420A4492EA0C0F61465ABF4FF08B
:10747C00804100204FF0FF3002FB0EF44FEAE27522
:10748C0003FB0544A2FB033548BF26492C445B187B
:10749C0044EB0004002C05DA6FF0004159180B4640
:1074AC0044F10004DB0F43EA4403C3F1005392EAB6
:1074BC00030F59BF4FF0804100204FF0FF301949A6
:1074CC00C2FB0310002805DA6FF00043CB181946F5
:1074DC0040F10000C90F41EA4001B1F1005FC0F278
:1074EC004E846FF000431A44B2F1804FC0F25684C0
:1074FC000293199B002B00F0DD81119BC9F11B023B
:10750C00002B149240F3898101239340013B129983
:10751C0016935B10D346B146039117930497CDF89D
:10752C006CA06DE1010000C0C4C3C3C3269A934094
:10753C0099EA030F59BF4FF0804700224FF0FF32FA
:10754C00C14FC9FB0372002A05DA6FF000417918AC
:10755C000F4642F10002FF0F994547EA420700F03F
:10756C008581B7FA87F34FF0804247F07F41002FB7
:10757C004FEA5313A1EB0707C7F3406503F1FF3341
:10758C00C7F38064099305F1FF33C7F3C06005931B
:10759C0004F1FF33C7F3007C069300F1FF33C7F30C
:1075AC00407E0F930CF1FF33C7F3807A0D930EF1ED
:1075BC00FF3308930AF1FF33CDF838C007934FF02F
:1075CC00000C13464FEA411101F18051C1FB013C03
:1075DC004FEAD37343EA4C034FF0000CC3FB032C6C
:1075EC004FEAD27242EA4C02C7F30066CDF830E0A3
:1075FC000CBF6FF0004700274FEAA20ECDF82CA06D
:10760C00920781FB03CA83EA010248BF0EF1010E07
:10761C00002AA8BF4FF08042CDF840A0AEBF4FF07B
:10762C00000A4FF0FF3A884A0A971CEB0202DDF879
:10763C0040C006F1FF374CEB0A0ABAF1000F06DA2C
:10764C006FF0004C12EB0C0C62464AF1000AD20FA0
:10765C00DFF8F8C142EA4A02724492EA0C0F59BFB1
:10766C004FF0804C4FF0000E4FF0FF3EDFF8D8C1CA
:10767C00DFF8D8A1C2FB0ACEBEF1000F06DA6FF01C
:10768C0000421CEB020294464EF1000E4FEADC7CE9
:10769C004CEA4E0C63445A1002D403F001031A4412
:1076AC000A4492EA080F59BF4FF0804300214FF073
:1076BC00FF31654BC2FB0831002905DA6FF000423F
:1076CC009A18134641F10001DA0F4FF0804342EA59
